:2000000060C37AC379C378C377C376C375C374C373C372C371C370C36FC36EC317C86CC3E4
:200020006BC36AC369C3000092012403B6044806D9076A09FB0A8C0C1C0EAB0F3A11C8127E
:200040005514E2156E17F918821A0B1C931D1A1F9F202322A6232825A8262628A3291F2BB2
:20006000992C112E872FFB306E32DF334D35BA3624388C39F23A563CB83D173F7340CE418B
:2000800025437A44CD451C476948B449FB4A3F4C814DBF4EFB4F335168529B53C954F5558F
:2000A0001D5742586459825A9C5BB35CC75DD75EE35FEB60F061F162EE63E864DD65CF66F5
:2000C000BC67A6688B696D6A4A6B236CF86CC96D966E5E6F2270E2709D7154720773B5731B
:2000E0005F740475A5754176D8766B77FA77847809798979057A7C7AEE7A5C7BC57B297C29
:20010000887CE37C397D897DD57D1D7E5F7E9C7ED57E097F377F617F867FA67FC17FD87FAA
:20012000E97FF57FFD7FFF7F4C43446469726563744C564453353420323031332D30322D57
:2001400030352030343A32393A333200000C36360C001C0618060000000000601E0C1E1EE8
:20016000383F1C3F1E1E00001800061E3E0C3F3C3F7F7F3C331E78670F63631C3F1E3F1E1C
:200180003F33336363337F1E031E08000C00070038001C00070C18070E0000000000000054
:2001A000080000000000003818076E001E36363E6336060C0C660C00000030330F33333C6D
:2001C000030633333300000C000C33631E666636464666330C306606776736663366332D6F
:2001E0003333636333330606181C000C00060030003600060000060C000000000000000C91
:200200000000000000000C180C3B001E367F03331C0306183C0C000000183B0C3030361FD1
:20022000033033330C0C063F18307B33660366161603330C3036067F6F63663366070C3393
:200240003363363319060C183600181E3E1E301E066E360E1E660C371F1E3B6E1B3E3E3317
:20026000336363333F0C180C00000C00361E186E000618FF3F003F000C3F0C1C1C33301F51
:20028000181E3E0C0C030030187B333E03661E1E033F0C301E066B7B633E333E1C0C3333CE
:2002A0006B1C1E0C0618186300003066333E330F336E0C18360C7F3333663336030C33337B
:2002C0006336331907003800000C007F300C3B0006183C0C00000006370C06307F30330C25
:2002E00033300000063F180C7B3F660366161673330C333646637363063B1E380C33337F5B
:20030000360C460630180000003E6603333F0633660C181E0C6B33336633361E0C33336B66
:200320001C330C0C180C00000000361F6633000C0C660C0E000C03330C3333303333063329
:20034000180C0E0C000C000333666636460666330C336666636336061E36330C331E77636B
:200360000C630660180000003366333303063E660C18360C6333333E3E06302C331E7F36D1
:200380003E260C180C00000C00360C636E00180600000C000C011E3F3F1E301E1E061E0E1B
:2003A0000C0C1800060C1E333F3C3F7F0F7C331E1E677F63631C0F38671E1E3F0C63631E96
:2003C0007F1E401E0000006E3D1E6E1E0F30671E1B671E63331E06300F1F186E0C366330F6
:2003E0003F3818070000000000000000000000000006000000000000000000000000000061
:200400000600000000000000000000000000000000000000000000000000000000000000D6
:2004200000000000FF000000000000001F00000E00000000000F78000000000000001F00EA
:2004400000000000F0002222F0002222600C6402600C6402C006408CC006408CE004C404C0
:20046000E4006404E0084C04E2004406E002440CE80046046006600660066006C0C0C0C0D0
:20048000C0000000000000C0C0C0C0C0C0C0C000000F0F0F0F0F0F0000C0C0C0C0C0000082
:2004A0000F0F0F0F0F0F0F0F0000C0C0C000000F0F0F0F0F0F0F0F0F0F0000C0C0000F0F50
:2004C0000F000F0F0F0F000F0F0F00C0000F0F0F0000000F0F0000000F0F0F00000F0F0F3F
:2004E0000F000F0F0F0F000F0F0F0F00000F0F0F0F0F0F0F0F0F0F0F0F0F0F00000F0F0F76
:200500000F0F0F0F0F0F0F0F0F0F0F00000F0F00000F0F0F0F0F0F00000F0F00000F0F0F73
:2005200000000F0F0F0F00000F0F0F00C0000F0F0F0000000000000F0F0F00C0C000000FA9
:200540000F0F0F0F0F0F0F0F0F0000C0C0C000000F0F0F0F0F0F0F0F0000C0C0C0C0C0009C
:20056000000F0F0F0F0F0F0000C0C0C0C0C0C0C0C0000000000000C0C0C0C0C0C0C0C0C061
:20058000C0000000000000C0C0C0C0C0C0C0C000000F0F0F0F0F0F0000C0C0C0C0C0000081
:2005A0000F0F0F0F0F0F0F0F0000C0C0C000000F0F0F0F0F0F0F0F0F0F0000C0C0000F0F4F
:2005C0000F000F0F0F0F0F0F0F0F00C0000F0F0F0000000F0F000F0F0F0F0F00000F0F0F11
:2005E0000F000F0F0F0F00000F0F0F00000F0F0F0F0F0F0F0F0F0F0F0F0F0F00000F0F0F84
:200600000F0F0F0F0F0F0F0F0F0F0F00000F0F00000F0F0F0F0F0F00000F0F00000F0F0F72
:2006200000000F0F0F0F00000F0F0F00C0000F0F0F0000000000000F0F0F00C0C000000FA8
:200640000F0F00030003000F0F0000C0C0C000000F0F00030303000F0000C0C0C0C0C00022
:20066000000F0F0000000F0000C0C0C0C0C0C0C0C0000000000000C0C0C0C0C0205468654C
:2006800020517569636B2042726F776E20466F78204A756D706564204F7665722054686546
:2006A000204C617A7920446F67210045464765666700202B2D2E3031323334353637383968
:2006C000680011241FBECFE5D2E0DEBFCDBF10E0A0E6B0E0EAE3FEE102C005900D92AE3685
:2006E000B107D9F711E0AEE6B0E001C01D92A739B107E1F770D49FCB83CC823028F566301B
:2007000081F0673028F4662351F06330E9F405C0683049F06A30C1F408C092E007C091E024
:2007200005C093E003C094E001C095E09770813029F083B7887F892B83BF04C08FB5887FFD
:20074000892B8FBD80E0089581E008956430F0F4882319F08130D1F40AC0862F8170B1F4E7
:20076000627011F0A89A01C0A89885B30DC0613019F486B5816002C086B58E7F86BD86B51C
:2007800086B58D7F86BD86B580E0089581E008950F931F93182F062F642FD8DF882311F0D3
:2007A000806105C0812F602FA8DF811180621F910F910895843010F081E00895623010F028
:2007C00082E00895442311F041E0F8948295807F860F8130A1F0813030F08031E1F0813113
:2007E00031F183E00895442319F089B7806102C089B78F7E89BF89B788B7806123C0442345
:2008000019F089B7886002C089B7877F89BF89B788B7886017C0442319F089B7806402C0C3
:2008200089B78F7B89BF89B788B780640BC0442319F089B7806202C089B78F7D89BF89B7D0
:2008400088B7806288BF442311F480E00895789480E00895FC0144838481861710F0658370
:2008600002C08481858311821082138212820895FC018481861710F0658302C08481858368
:2008800011821082138212820895FC01828193812581820F911D9383828322813381808101
:2008A00091818217930710F080E008C0808191812481820F911D9183808381E040815181C9
:2008C000228133814217530721F41182108213821282089560E072E093D997FF02C08050E8
:2008E0009E4F8038910544F4FC01EE0FFF1FEA5DFF4F2591349129C08F3F910509F05CF4C7
:20090000E0E0F1E0E81BF90BEE0FFF1FEA5DFF4F259134911AC021E08038920744F4FC01B3
:20092000EE0FFF1FEA5DF140859194910AC0E0E0F2E0E81BF90BEE0FFF1FEA5DFF4F8591C0
:20094000949122273327281B390BC901089560E072E056D99C0137FF02C020503E4F203836
:2009600031053CF4F901EE0FFF1FE95DFF4F849108952F3F310509F054F4E0E0F1E0E21B43
:20098000F30BEE0FFF1FE95DFF4F8491089581E02038380744F4F901EE0FFF1FE95DF1403C
:2009A000849181950895E0E0F2E0E21BF30BEE0FFF1FE95DFF4F849181950895E82FF0E084
:2009C000EE0FFF1FEE0FFF1FED57FF4F862F90E063E070E0D6D8208131814281538104C03B
:2009E00056954795379527958A95D2F7822F877008950F931F93E82FF0E0862F90E063E0D8
:200A000070E0BFD8A82FEE0FFF1FEE0FFF1FED57FF4F67E070E080E090E00A2E04C0660F78
:200A2000771F881F991F0A94D2F76095709580959095008111812281338160237123822300
:200A40009323242F30E040E050E004C0220F331F441F551FAA95D2F7622B732B842B952B6D
:200A600060837183828393831F910F9108950F931F93E3E8F0E0119211921192119290E0AC
:200A8000EB3CF907C1F712E1181B0BC000E0402F410F4770812F602FACDF0F5F0A30B9F70E
:200AA0001F5F123198F31F910F9108952F923F924F925F926F927F928F929F92AF92BF92A3
:200AC000CF92DF92EF92FF920F931F93DF93CF9300D0CDB7DEB780918100853021F4109223
:200AE000810080E0C4DF30906F00409171002090700050918200852F90E0837090708230B5
:200B0000910531F4232D2F5F243009F0E0C0DEC0009719F4342F3F5F05C08330910509F401
:200B20002394342F232D5F5F5093820080916E0090E0880F991F880F991F820F911D880FC5
:200B4000991F8C5B9B4F122D1D5FA0E0B3E0FC01C590D49036C0CF018E0D9F1D260102C082
:200B6000569447948A95E2F740FE1AC01231F8F40A30F8F4802F90E063E070E002D824019A
:200B8000350104C076946794579447948A95D2F7842D877029F0231561F4341751F407C003
:200BA00031960F5FE430F105B1F680E004C081E001C080E0A1E0B1501150BF3FD9F0882354
:200BC000C9F4AA2309F085C0EB2EFF24EE0CFF1CEE0CFF1CE12FF0E0EE0FFF1FEE0FFF1FD1
:200BE000ED57FF4F80809180A280B380032FE0E0F0E0B1CFAA2331F420936F003093710073
:200C000020927000882309F464C080917000882309F045C080917100833009F040C080917D
:200C20006F00882309F03BC0809181008F5F8093810035C040916E00E42FF0E0EE0FFF1F60
:200C4000EE0FFF1F80916F00E80FF11DEE0FFF1FEC5BFB4F85919491B701620F731F02C090
:200C6000969587956A95E2F780FF0CC080917000609171006E0D4F5F810F29833A83B9DE6E
:200C80003A8129810894E11CF11C64E0E616F10489F61F5F2C5F3F4F143021F406C020E0DF
:200CA00030E010E0EE24FF24C5CF80916E008F5F80936E00873011F410926E0083E080933B
:200CC00071001092700010926F0003C020E0342F2ACF0F900F90CF91DF911F910F91FF9074
:200CE000EF90DF90CF90BF90AF909F908F907F906F905F904F903F902F9008958823A9F080
:200D0000909172008150923038F4873068F4E82FF0E0E05AFF4F06C0873030F4E82FF0E077
:200D2000E959FF4F808108958FE308951092730086E08093CB0083E68093CC000895809127
:200D400073008334F8F4E82FF0E0EE0FFF1FE553FF4F9081987FF1F08F5F80937300A82FA1
:200D6000B0E0FD01EE0FFF1FE553FF4FAA0FBB1FA753BF4F8C918770808311968C91119726
:200D800081830895833431F487E08093510183E780935201089520917300562F586F15C058
:200DA000233419F4209373001BC0222321F43091CB00387F09F02F5FE22FF0E0EE0FFF1FAE
:200DC000E553FF4F508341834F978F31910540F720937300009711F480E00895233419F460
:200DE000AEDF81E00895222321F43091CB00387F19F02F5F20937300E0917300F0E0EE0F5D
:200E0000FF1FE553FF4F880F880F880F862B8083418380E00895E0917300F0E0DF01AA0FA7
:200E2000BB1FA553BF4F2C91009711F1422F4695469546954F3198F43FE1341B432F50E05D
:200E40004817590738F0880F880F880F820F8C9380E00895286F2C93841B950B49F0EE0F6E
:200E6000FF1FE553FF4F60816770418194DF089580E00895E0917300EE2311F48CDF089545
:200E8000F0E0EE0FFF1FE553FF4F208130E027703070A62FB0E02A173B0729F42181241717
:200EA00011F4B9DF089577DF08951F93182F842F662359F4109280001092730096E09093B3
:200EC000CB0093E69093CC000BC090917300992339F090918000191719F490E09CDF16C0FC
:200EE000612F70E06C7170707595679575956795212F2295269527702295207F912F9370D7
:200F0000292B90E0422F47DF109380001F910895682F70E0837090E09C0121703070880F57
:200F2000991F282B392B220F331F220F331F2068AB0140735070440F551F242BCB018C70B7
:200F400090709595879595958795822B089589B5826089BD88EC90E00197F1F701C0000030
:200F600009B400FEFCCF89B5846089BD089586E08BBD83E08CBD8FEF81BFE9DF8FB5807FC3
:200F800084608FBD8FB580638FBD80B7826080BF80B7816080BF87B5816087BDB99ABA9AF7
:200FA000BB9ABD9A86B58C7F86BD89E087BD83E680BF80E384BD84E08DBD089583EE83BB09
:200FC00080E062E0C3DB80E068E097DB80E060E041E0F0DB0895EF92FF920F931F93CF93C6
:200FE000DF9387E044DDEADFC2DFD09AD19AD29AD39A10E05CE7E52E55E0F52ECCE7D4E0DA
:2010000001E080917800882301F589B78071E9F74DDD112341F4D0939601C09395010093AB
:20102000720011E00DC0809179008F5F8F7380937900F0929601E09295011092720010E055
:2010400080E060E041E0B6DBDCCFFFCF1F920F920FB60F9211246F927F928F929F92AF9233
:20106000BF92CF92DF92EF92FF920F931F932F933F934F935F936F937F938F939F93AF93D5
:20108000BF93EF93FF93DF93CF9300D0CDB7DEB72091740080917500882339F01DBC8FEA5C
:2010A00090E00197F1F785E007C083E08DBD8FEA90E00197F1F784E08DBD8DE090E00197DB
:2010C000F1F7222309F42DC083E580BFEBECF0E04191542F57706191762F6F7072957F7023
:2010E0005ABD64BD7DBD487FA9F000000000485079F300000000000000000000000000001A
:20110000000000000000000000000000000000000000EDCF83E680BF14BC86E08DBD80E388
:2011200084BD8091760090917700019690937700809376008332910519F18432910538F4C8
:201140008130910569F08032910591F512C023E083329207C9F033E08632930749F517C0CB
:201160001092740081E08093750080E484BD85E005C01092750080E384BD84E08DBD18C060
:2011800081E08093740014C01092740011C0109277001092760080917A008F5F80937A0075
:2011A000823031F410927A0080E060E040E002DB00917600109177000352104043E0003088
:2011C000140708F0AEC3B80180E090E020E330E040E050E0E8D420E033E040E050E023D588
:2011E000F22E80E095DEE82EE5E5F1E0E19251E0E539F507D9F781E18F15A8F18FE388DE46
:20120000782E8093550165E5862E61E0962EAA24BB24CF2CDD24CC0CDD1CCC0CDD1CE3E8A6
:20122000F0E0CE0EDF1EF60180819181A281B3810A2C04C0B695A795979587950A94D2F774
:2012400087705CDD65DEF401818323E030E0A20EB31E0894811C911C3EE1A316B10419F70B
:20126000709260010CC042E1F41649F48FE350DEE5E5F1E0819351E0E136F507D9F7A09042
:201280007000FA1408F441C08A2D90E003962F2D30E082179307CCF18F2D8A19A82EBB24A3
:2012A000AA0CBB1CAA0CBB1CCC24DD2480916E00E82FF0E0EE0FFF1FEE0FFF1F90916F00F7
:2012C000E90FF11DEE0FFF1FEC5BFB4F25913491A6014A0D5B1D02C0369527954A95E2F76A
:2012E00020FF0CC08F5F0ADD13DEE091710096012E0F311DF901EA5AFE4F80830894C11C32
:20130000D11C34E0C316D10489F68F2D8695869586958330B1F0843028F4813049F08230D2
:2013200051F40CC0843009F447C0853021F447C035E427E046C034E523E043C034E52FE0A6
:2013400040C08F2D90E0877090706FE570E019D4FC01E258FE4FE49127E030E080E0F0E099
:2013600067E070E041E050E0DB01A21BB30B6F0102C0D594C794AA95E2F7C0FE09C0DA01BE
:20138000022E02C0AA0FBB1F0A94E2F78A2B0AC0DA01022E02C0AA0FBB1F0A94E2F79A2F32
:2013A00090958923215030409FEF2F3F3907E1F6869530E02CE006C039E42CE302C033E565
:2013C00020E380E09F2D9851983070F08F2D90E0877090706FE570E0D4D3FC01B097E30F29
:2013E000F11DE45BFE4F849195E5A92E91E0B92ECC24DD24882E9924C4010C2C02C0959548
:2014000087950A94E2F780FF07C0822F2A8380DDF50187872A8102C0F501E7860894C11CEB
:20142000D11C0894A11CB11CF8E0CF16D10421F78F2D8052883008F05BC08F2D90E06FE516
:2014400070E09FD3FC0190917900292F22952F702A3010F4205D01C0295CBF0160507C4038
:201460006B01C20ED11C9601245B3E4FF9016490292F30E02F7030709F702A30310514F464
:20148000905D01C0995CFB01E90FF11DE45BFE4F8490B5E5AB2EB1E0BB2ECC24DD2477248E
:2014A0009924EC2CC3010C2C02C0959587950A94E2F780FF05C0809179002ADDF50181830D
:2014C000C40102C095958795EA94E2F780FF05C0809179001DDDF50181870894C11CD11CBC
:2014E0000894A11CB11CF8E0CF16D104D1F60BC0FF2049F480917E0090917F00019690935D
:201500007F0080937E0080917E0090917F00A5E096958795AA95E1F7982F995E9F0DFCE65D
:20152000CF2EF1E0DF2E892F8F7309F485E19A83EFDCF60181936F019A819F5FF5E9CF1674
:20154000F1E0DF0681F78F2D8451803128F58F2D90E04497E4E0880F991FEA95E1F7E0901D
:201560009501F0909601E80EF91E24EE3FEFC20ED31EF7018491982F907C19F4C9DCF60127
:2015800080830894E11CF11C0894C11CD11CF9E8CF16F1E0DF0669F70115110571F48091BE
:2015A0007C0090917D00409690937D0080937C0080917B008F5F80937B001092730086E089
:2015C0008093CB0083E68093CC0083E090E067E043E750DC80917C0090917D00800F911F0B
:2015E000B6D970E8F72EF80E80917C0090917D000196800F911FABD980588F1520F4EF2CA9
:20160000E81AFE1804C0F81620F4E82EEF18EE2011F4EE24E39490907B00E0E063E0D62E71
:20162000AF2CBB24CE2EC3946C2D690D01C060536033E8F7462F437070E062FF03C02D2DB2
:20164000241B422F9B012C703070359527953595279564FF03C03D2D321B232FCB01807308
:20166000907034E0959587953A95E1F766FF03C05D2D581B852F30E023703070220F331FCA
:20168000220F331F4370422B90E083709070B4E0880F991FBA95E1F7482B8C2D90E065E059
:2016A00070E06FD2242F30E0F42FF17040738A159B0598F4B90163707070660F771F6F2B22
:2016C00040642C7030703595279535952795422B85E090E0CFDBEC2DA5CF8E2F90E065E033
:2016E00070E04FD2B90163707070660F771F6F2B40642C7030703595279535952795422B0E
:20170000F501E81BF90BCF01B5DB8E2D90E067E043E7B0DB680143E0D694C7944A95E1F73D
:201720008C2D9C2D01C090539033E8F7692F637092FF03C023E0261B622F982F01C09053E2
:201740009033E8F7792F737092FF03C023E0271B722F282F01C020532033E8F730E0A901AB
:201760004073507034E0559547953A95E1F7542F26FF05C093E0941B592F01C08053803317
:20178000E8F790E09C012C7030703595279535952795422F84FF03C023E0241B422F21E0AA
:2017A00031E02F19310971706370660F672B952F9295907390644370492BC9018E199109C7
:2017C00059DB83E090E067E043E754DB83E090E067E040E44FDBC6016FE570E0FDD1805EE3
:2017E0008983C80187709070B1E0EB2EF12C02C0EE0CFF1C8A95E2F7A9E9AA2EA2E0BA2EB3
:20180000E98195012E0F311DF901E45DFE4F849190E08E219F21009729F081E090E067E0F9
:2018200043E404C081E090E067E040E423DB41EA5FEFA40EB51E51EAA5165FEFB50601F78E
:2018400083E090E067E040E415DB81E090E067E043E710DBB6016458794FCE01019641E06B
:2018600050E04ED283E090E060E040E503DB8CE796E03DD2C816D90620F5F9E9CF2EF2E087
:20188000DF2EE981C6018E0F911DFC01E45DFE4F849190E08E219F21009721F081E090E0C7
:2018A00067E003C081E090E060E040E5E3DAE1EAFFEFCE0EDF1EF1EACF16FFEFDF0609F706
:2018C00005C088E090E060E040E5D4DA83E090E060E040E5CFDA169507951695079520E0E9
:2018E000402F602F6370660F802F8170682B40734064C8018C7090709695879596958795C5
:20190000482B81E090E02A83B5DA2A812F5F0F5F1F4F203429F783E090E067E043E7AADAF6
:201920000EDA0F900F90CF91DF91FF91EF91BF91AF919F918F917F916F915F914F913F9111
:201940002F911F910F91FF90EF90DF90CF90BF90AF909F908F907F906F900F900FBE0F90A6
:201960001F901895ABE0B0E0E7EBFCE082C16C014B017A01FC0117821682838181FD08C053
:201980002FEF3FEFFAC022E030E0E20EF31E04C05E010894A11CB11CF6017380F40173FC97
:2019A000859173FE81914F01882309F4E3C0853251F473FC059173FE01914F01053211F067
:2019C00010E01AC085E290E029C0002309F4D2C082EB96E0602F70E07FD1009739F40332C0
:2019E00011F4106103C00C3661F41068F40173FC059173FE01914F0117FFE7CF002309F466
:201A0000B9C08BEA96E0602F70E066D1009749F024E030E0E20EF31E8FE390E0B6017FD17E
:201A2000BBCF033629F0033771F00335E1F40AC087010E5F1F4FF70180819181B6016FD1F3
:201A40007801AACF1160F7016080718003C090E0B60165D1F30110FD859110FF81913F01C2
:201A60008823A9F790CF043611F0093629F517FF08C0F701608171818281938124E030E050
:201A80000AC0F70120813181B901882777FD8095982F22E030E0E20EF31E1F7E97FF08C06A
:201AA00090958095709561957F4F8F4F9F4F1064A5012AE030E033C00037A9F0013730F404
:201AC0000835B1F00F3609F055C006C0053739F0083709F04FC008C028E030E00CC01F7E1A
:201AE0002AE030E008C01061146220E130E003C0146020E132E017FF08C0F7016081718119
:201B00008281938144E050E007C0F7016081718180E090E042E050E0E40EF51EA5012BD1FF
:201B2000082F0A19612E772416FF04C08DE290E0B601F5D064FE13C0FE01E00FF11D8081BB
:201B4000803369F080E390E0B601E9D062FE07C0C30180729070885A9F4FB601E0D00150D1
:201B6000F501E00FF11D808190E0B601D8D00023B1F712CFF60126813781C9012B96EEE047
:201B800094C05527002480FF02C0060E571F660F771F6115710521F096958795009799F710
:201BA000952F802D0895FF27EE27BB27AA2760FF04C0A20FB31FE41FF51F220F331F441F86
:201BC000551F969587957795679589F70097760771F7CF01BD010895AA1BBB1B51E107C087
:201BE000AA1FBB1FA617B70710F0A61BB70B881F991F5A95A9F780959095BC01CD010895F4
:201C000097FB092E07260AD077FD04D0E5DF06D000201AF4709561957F4F0895F6F790956C
:201C200081959F4F0895A1E21A2EAA1BBB1BFD010DC0AA1FBB1FEE1FFF1FA217B307E407A6
:201C4000F50720F0A21BB30BE40BF50B661F771F881F991F1A9469F7609570958095909552
:201C60009B01AC01BD01CF0108952F923F924F925F926F927F928F929F92AF92BF92CF9235
:201C8000DF92EF92FF920F931F93CF93DF93CDB7DEB7CA1BDB0B0FB6F894DEBF0FBECDBF6E
:201CA00009942A88398848885F846E847D848C849B84AA84B984C884DF80EE80FD800C81B1
:201CC0001B81AA81B981CE0FD11D0FB6F894DEBF0FBECDBFED010895FC010590061621F0A7
:201CE0000020D9F7C00108953197CF010895FC0105900020E9F7809590958E0F9F1F08959D
:201D0000FB01DC014150504048F005900D920020C9F701C01D9241505040E0F708950F93D6
:201D20001F93CF93DF938C01EB018B8181FF1BC082FF0DC02E813F818C819D8128173907D6
:201D400064F4E881F9810193F983E88306C0E885F985802F0995009731F48E819F8101964D
:201D60009F838E8302C00FEF1FEFC801DF91CF911F910F910895FA01AA27283061F1203115
:201D800091F1E8946F936E7F6E5F7F4F8F4F9F4FAF4FB1E040D0B4E03ED0670F781F891FF9
:201DA0009A1FA11D680F791F8A1F911DA11D6A0F711D811D911DA11D22D009F468943F91BC
:201DC000062E000C3019000C000C3019305D3193CEF6CF010895462F4770405D4193B3E067
:201DE0000FD0C9F7F6CF462F4F70405D4A3318F0495D31FD4052419302D0A9F7EACFB4E030
:201E0000A6959795879577956795BA95C9F700976105710508959B01AC010A2E0694579511
:201E2000479537952795BA95C9F7620F731F841F951FA01D0895F894FFCF03070F0C3C3090
:081E4000330104101411051513
:00000001FF
