:10000000BDC3D7C3D6C3D5C3D4C3D3C3D2C3D1C34F
:10001000D0C3CFC3CEC3CDC3CCC3CBC36CCDC9C3B8
:10002000C8C3C7C3C6C33ACB39CB38CB37CB26CB33
:1000300025CB24CB25CB24CB23CB24CB23CB22CB4A
:1000400023CB22CB21CB000092012403B604480627
:10005000D9076A09FB0A8C0C1C0EAB0F3A11C812A7
:100060005514E2156E17F918821A0B1C931D1A1FEE
:100070009F202322A6232825A8262628A3291F2B34
:10008000992C112E872FFB306E32DF334D35BA3667
:1000900024388C39F23A563CB83D173F7340CE4174
:1000A00025437A44CD451C476948B449FB4A3F4C37
:1000B000814DBF4EFB4F335168529B53C954F55588
:1000C0001D5742586459825A9C5BB35CC75DD75E2A
:1000D000E35FEB60F061F162EE63E864DD65CF66DB
:1000E000BC67A6688B696D6A4A6B236CF86CC96D36
:1000F000966E5E6F2270E2709D7154720773B573D5
:100100005F740475A5754176D8766B77FA77847835
:1001100009798979057A7C7AEE7A5C7BC57B297CC2
:10012000887CE37C397D897DD57D1D7E5F7E9C7ECC
:10013000D57E097F377F617F867FA67FC17FD87F8D
:10014000E97FF57FFD7FFF7F4C43446469726563FF
:10015000744C564453363520323031342D30332DE3
:1001600031392032323A35343A353500000C3636E2
:100170000C001C0618060000000000601E0C1E1E6D
:10018000383F1C3F1E1E00001800061E3E0C3F3C60
:100190003F7F7F3C331E78670F63631C3F1E3F1E0B
:1001A0003F33336363337F1E031E08000C000700D8
:1001B00038001C00070C18070E00000000000000AB
:1001C000080000000000003818076E0E001E3636CA
:1001D0003E6336060C0C660C00000030330F3333E0
:1001E0003C030633333300000C000C33631E666699
:1001F00036464666330C30660677673666336633B6
:100200002D3333636333330606181C000C000600DD
:1002100030003600060000060C0000000000000060
:100220000C0000000000000C180C3B13001E367F71
:1002300003331C0306183C0C000000183B0C303044
:10024000361F033033330C0C063F18307B33660304
:1002500066161603330C3036067F6F636633660707
:100260000C333363363319060C183600181E3E1E45
:10027000301E066E360E1E660C371F1E3B6E1B3E72
:100280003E33336363333F0C180C0039000C0036E7
:100290001E186E000618FF3F003F000C3F0C1C1C90
:1002A00033301F181E3E0C0C030030187B333E0306
:1002B000661E1E033F0C301E066B7B633E333E1CE6
:1002C0000C33336B1C1E0C061818630000306633A9
:1002D0003E330F336E0C18360C7F333366333603E0
:1002E0000C3333633633190700380069000C007F84
:1002F000300C3B0006183C0C00000006370C0630A2
:100300007F30330C33300000063F180C7B3F660310
:1003100066161673330C333646637363063B1E381A
:100320000C33337F360C460630180000003E66035F
:10033000333F0633660C181E0C6B33336633361EA0
:100340000C33336B1C330C0C180C000E0000003601
:100350001F6633000C0C660C0E000C03330C333399
:100360003033330633180C0E0C000C000333666672
:1003700036460666330C336666636336061E3633CE
:100380000C331E77630C630660180000003366337D
:100390003303063E660C18360C6333333E3E06309C
:1003A0002C331E7F363E260C180C00F3000C003652
:1003B0000C636E00180600000C000C011E3F3F1E6F
:1003C000301E1E061E0E0C0C1800060C1E333F3C81
:1003D0003F7F0F7C331E1E677F63631C0F38671ED1
:1003E0001E3F0C63631E7F1E401E0000006E3D1EFC
:1003F0006E1E0F30671E1B671E63331E06300F1FF5
:10040000186E0C3663303F381807004600000000B5
:1004100000000000000000000600000000000000D6
:1004200000000000000000060000000000000000C6
:1004300000000000000000000000000000000000BC
:100440000000000000000000000000FF00000000AD
:100450000000001F00000E00000000000F780000E8
:1004600000000000001F0000000000F40000000079
:1004700000C0010000C0010000F0070000F007000C
:1004800000F0070000F0070000F0070000F0070090
:1004900000F0070000F0070000F0070000F0070080
:1004A00000C0010000C001000000000000000000CA
:1004B0000080020000A00A0000A82A0000E829002D
:1004C00000BAA60000BAA60000BAA60000BAA600AC
:1004D00000BAA60000BAA60000E8290000A82A0079
:1004E00000A00A0000800200000000002502072F83
:1004F00000500500005415000055550040555501A9
:10050000D057D507545EB51554FEBF15556EB95575
:10051000556AA9555555555554A96A1500AAAA00FA
:1005200000AAAA0FC0ABFA3FC0AFFE3F00BFFF0F4B
:100530000402270004022700050227000702270003
:10054000030126000020012054555515A9AAAAEA46
:10055000B9AAAAEEA956A5EAA9F597EAA9B5D6EAD5
:10056000A9B5D6EAA9BED5EAA96AFDEAA96AADEAA3
:10057000A9AAAFEAA96AA9EAA96AADEAB9AAAFEE3F
:10058000A9AAAAEAFFFFFFFF250207002502020031
:1005900025020100005555005055550554AAAA15CD
:1005A000A5FEBF5AA5FEBF5A54AAAA155055550517
:1005B00000555500004001001540015454400115FC
:1005C000544141155045510550455105405555017F
:1005D0000050050025040000252F07042517020000
:1005E00025070502000000000000000000000000D8
:1005F00000000000000000000000000000000000FB
:100600000050050040555501D45FF517A5FAAF5AC3
:100610005555555580AAAA0280AAAA02F00FF03FAC
:100620000000000025022700FCFFFF3F575555D56D
:10063000775555DD575555D5575555D5575555D53A
:10064000575555D5575555D5575555D5575555D552
:10065000575555D5575555D5575555D5775555DD1A
:10066000575555D5FCFFFF3F2502000000500500FF
:10067000005429000055AA004055AA025055A9056A
:10068000945A5515A46A5515A56A555AA56A556A0E
:10069000955A556955555555A4FEBF1A00FFFF00E0
:1006A00000FFDF0000FFDF0000FC37002507042FFC
:1006B0002507022F00400100004001000050050006
:1006C0000050050000541500545555155465591532
:1006D00050655905406559010055550000555500B4
:1006E00040555501405555014015540150014005F4
:1006F0005000000525070200250200000000000050
:10070000008001000080010000600500006005001D
:100710000060050000600500007005000070050025
:100720000060050000600500006005000060050035
:1007300000800100008001000000000000000000B7
:1007400000800000008000000080000000800000A9
:10075000008000000080000000C0000000C0000019
:100760000080000000800000008000000080000089
:1007700000800000008000000000000011241FBE67
:10078000CFE5D2E0DEBFCDBF10E0A0E6B0E0EAE901
:10079000FDE102C005900D92AA3BB107D9F711E027
:1007A000AAEBB0E001C01D92AC3CB107E1F738DA2A
:1007B000F2CA26CCFC011182108242838281861704
:1007C00010F063830895828183830895FC01828100
:1007D000861710F063830895828183830895FC0156
:1007E000808191811816190614F080E008C080817C
:1007F00091812281821B91099183808381E02081F4
:1008000031819381290F311D31832083089597B160
:100810008F71907E892B87B9089586B1807411F00D
:1008200081E00895369A80E008953E983F983D987B
:10083000379A3598349A339886B1876086B987B1EC
:100840008F6187B9EADF86B18074E9F7089524B132
:1008500035B1C901089586B18295869586958170D6
:10086000089596B18770987F892B86B90895833053
:1008700080F0873010F48F5F0CC092B1835021E07C
:1008800030E002C0220F331F8A95E2F7922B92B913
:10089000089591B121E030E002C0220F331F8A9504
:1008A000E2F7922B91B90895823028F5663081F0F5
:1008B000673028F4662351F06330E9F405C06830EE
:1008C00049F06A30C1F408C092E007C091E005C069
:1008D00093E003C094E001C095E09770813029F067
:1008E00083B7887F892B83BF04C08FB5887F892B0E
:1008F0008FBD80E0089581E008956430F0F488238E
:1009000019F08130D1F40AC0862F8170B1F4627081
:1009100011F0A89A01C0A89885B30DC0613019F4F0
:1009200086B5816002C086B58E7F86BD86B586B5E8
:100930008D7F86BD86B580E0089581E008950F9390
:100940001F93182F062F642FD8DF882311F08061A2
:1009500005C0812F602FA8DF811180621F910F9148
:100960000895843010F081E00895623010F082E044
:100970000895442311F041E0F8948295807F860F1A
:100980008130A1F0813030F08031E1F0813131F1FE
:1009900083E00895442319F089B7806102C089B7C4
:1009A0008F7E89BF89B788B7806123C0442319F03F
:1009B00089B7886002C089B7877F89BF89B788B740
:1009C000886017C0442319F089B7806402C089B7D2
:1009D0008F7B89BF89B788B780640BC0442319F027
:1009E00089B7806202C089B78F7D89BF89B788B710
:1009F000806288BF442311F480E00895789480E0F9
:100A0000089560E072E0B4D99C0137FF02C0205025
:100A10003E4F203831058CF02F3F310529F024F06E
:100A200051E0203835073CF480E091E0AC01421BF6
:100A3000530B9A0102C020503240C9010895E1DFF2
:100A400097FD02C040E004C0909581959F4F41E022
:100A5000FC01EE0FFF1FEA5BFF4F25913491442309
:100A600019F0309521953F4FC9010895CADF97FDD0
:100A700002C020E004C0909581959F4F21E0FC01C9
:100A8000EE0FFF1FE95BFF4F8491211181950895BF
:100A900089B5826089BD80E991E00197F1F701C0D5
:100AA000000009B400FEFCCF89B5846089BD0895BB
:100AB00086E08BBD83E08CBD8FEF81BFE9DF8FB512
:100AC000807F81608FBD8FB58F7C8FBD80B7826046
:100AD00080BF80B7816080BF87B5816087BDB99ACC
:100AE000BA9ABB9ABD9A86B58C7F86BD89E087BDD0
:100AF00083E680BF80E384BD84E08DBD08950F93BD
:100B0000E22FF0E024E0EE0FFF1F2A95E1F7E00F5F
:100B1000F11DE453FF4F643008F063E070E0660FAE
:100B2000771F660F771F843008F083E0862B4430F0
:100B300008F043E04295407F482B40830F91089591
:100B4000089544E0880F991F4A95E1F760E073E04B
:100B5000FBD8FB0134E0EE0FFF1F3A95E1F7E453B9
:100B6000FF4F8081982F937041F490E000000000C7
:100B700000000000000000000DC0913029F40000CA
:100B80000000000093E006C0923011F494E002C02F
:100B900096E00000282F2C7041F420E000000000B7
:100BA00000000000000000000DC0243029F421E006
:100BB00000000000000006C0283011F422E002C04E
:100BC00023E00000882F807329F484E000000000F7
:100BD000000006C0803111F485E002C086E000000C
:100BE00024BD9ABD8DBD83E580BF80E090E000000C
:100BF0000000019689309105D1F78181982F93707B
:100C000041F490E00000000000000000000000003F
:100C10000DC0913029F400000000000093E006C0F0
:100C2000923011F494E002C096E00000282F2C705E
:100C300041F420E00000000000000000000000007F
:100C40000DC0243029F421E000000000000006C09F
:100C5000283011F422E002C023E00000882F8073C6
:100C600029F484E000000000000006C0803111F487
:100C700085E002C086E0000024BD9ABD8DBD80E005
:100C800090E000000000019689309105D1F7828143
:100C9000982F937041F490E00000000000000000E5
:100CA000000000000DC0913029F400000000000099
:100CB00093E006C0923011F494E002C096E0000088
:100CC000282F2C7041F420E00000000000000000FC
:100CD000000000000DC0243029F421E000000000D5
:100CE000000006C0283011F422E002C023E000001A
:100CF000882F807329F484E000000000000006C003
:100D0000803111F485E002C086E0000024BD9ABD68
:100D10008DBD80E090E000000000019689309105D3
:100D2000D1F78381982F937041F490E00000000088
:100D300000000000000000000DC0913029F4000008
:100D40000000000093E006C0923011F494E002C06D
:100D500096E00000282F2C7041F420E000000000F5
:100D600000000000000000000DC0243029F421E044
:100D700000000000000006C0283011F422E002C08C
:100D800023E00000882F807329F484E00000000035
:100D9000000006C0803111F485E002C086E000004A
:100DA00024BD9ABD8DBD80E090E00000000001965A
:100DB00089309105D1F78481982F937041F490E0A8
:100DC0000000000000000000000000000DC0913095
:100DD00029F400000000000093E006C0923011F4F6
:100DE00094E002C096E00000282F2C7041F420E02F
:100DF0000000000000000000000000000DC02430D2
:100E000029F421E000000000000006C0283011F4A1
:100E100022E002C023E00000882F807329F484E0E0
:100E200000000000000006C0803111F485E002C01F
:100E300086E0000024BD9ABD8DBD80E090E00000FA
:100E40000000019689309105D1F78581982F937024
:100E500041F490E0000000000000000000000000ED
:100E60000DC0913029F400000000000093E006C09E
:100E7000923011F494E002C096E00000282F2C700C
:100E800041F420E00000000000000000000000002D
:100E90000DC0243029F421E000000000000006C04D
:100EA000283011F422E002C023E00000882F807374
:100EB00029F484E000000000000006C0803111F435
:100EC00085E002C086E0000024BD9ABD8DBD80E0B3
:100ED00090E000000000019689309105D1F78681ED
:100EE000982F937041F490E0000000000000000093
:100EF000000000000DC0913029F400000000000047
:100F000093E006C0923011F494E002C096E0000035
:100F1000282F2C7041F420E00000000000000000A9
:100F2000000000000DC0243029F421E00000000082
:100F3000000006C0283011F422E002C023E00000C7
:100F4000882F807329F484E000000000000006C0B0
:100F5000803111F485E002C086E0000024BD9ABD16
:100F60008DBD80E090E00000000001968930910581
:100F7000D1F78781982F937041F490E00000000032
:100F800000000000000000000DC0913029F40000B6
:100F90000000000093E006C0923011F494E002C01B
:100FA00096E00000282F2C7041F420E000000000A3
:100FB00000000000000000000DC0243029F421E0F2
:100FC00000000000000006C0283011F422E002C03A
:100FD00023E00000882F807329F484E000000000E3
:100FE000000006C0803111F485E002C086E00000F8
:100FF00024BD9ABD8DBD80E090E000000000019608
:1010000089309105D1F78085982F937041F490E055
:101010000000000000000000000000000DC0913042
:1010200029F400000000000093E006C0923011F4A3
:1010300094E002C096E00000282F2C7041F420E0DC
:101040000000000000000000000000000DC024307F
:1010500029F421E000000000000006C0283011F44F
:1010600022E002C023E00000882F807329F484E08E
:1010700000000000000006C0803111F485E002C0CD
:1010800086E0000024BD9ABD8DBD80E090E00000A8
:101090000000019689309105D1F78185982F9370D2
:1010A00041F490E00000000000000000000000009B
:1010B0000DC0913029F400000000000093E006C04C
:1010C000923011F494E002C096E00000282F2C70BA
:1010D00041F420E0000000000000000000000000DB
:1010E0000DC0243029F421E000000000000006C0FB
:1010F000283011F422E002C023E00000882F807322
:1011000029F484E000000000000006C0803111F4E2
:1011100085E002C086E0000024BD9ABD8DBD80E060
:1011200090E000000000019689309105D1F782859A
:10113000982F937041F490E0000000000000000040
:10114000000000000DC0913029F4000000000000F4
:1011500093E006C0923011F494E002C096E00000E3
:10116000282F2C7041F420E0000000000000000057
:10117000000000000DC0243029F421E00000000030
:10118000000006C0283011F422E002C023E0000075
:10119000882F807329F484E000000000000006C05E
:1011A000803111F485E002C086E0000024BD9ABDC4
:1011B0008DBD80E090E0000000000196893091052F
:1011C000D1F78385982F937041F490E000000000E0
:1011D00000000000000000000DC0913029F4000064
:1011E0000000000093E006C0923011F494E002C0C9
:1011F00096E00000282F2C7041F420E00000000051
:1012000000000000000000000DC0243029F421E09F
:1012100000000000000006C0283011F422E002C0E7
:1012200023E00000882F807329F484E00000000090
:10123000000006C0803111F485E002C086E00000A5
:1012400024BD9ABD8DBD80E090E0000000000196B5
:1012500089309105D1F78485982F937041F490E0FF
:101260000000000000000000000000000DC09130F0
:1012700029F400000000000093E006C0923011F451
:1012800094E002C096E00000282F2C7041F420E08A
:101290000000000000000000000000000DC024302D
:1012A00029F421E000000000000006C0283011F4FD
:1012B00022E002C023E00000882F807329F484E03C
:1012C00000000000000006C0803111F485E002C07B
:1012D00086E0000024BD9ABD8DBD80E090E0000056
:1012E0000000019689309105D1F78585982F93707C
:1012F00041F490E000000000000000000000000049
:101300000DC0913029F400000000000093E006C0F9
:10131000923011F494E002C096E00000282F2C7067
:1013200041F420E000000000000000000000000088
:101330000DC0243029F421E000000000000006C0A8
:10134000283011F422E002C023E00000882F8073CF
:1013500029F484E000000000000006C0803111F490
:1013600085E002C086E0000024BD9ABD8DBD80E00E
:1013700090E000000000019689309105D1F7868544
:10138000982F937041F490E00000000000000000EE
:10139000000000000DC0913029F4000000000000A2
:1013A00093E006C0923011F494E002C096E0000091
:1013B000282F2C7041F420E0000000000000000005
:1013C000000000000DC0243029F421E000000000DE
:1013D000000006C0283011F422E002C023E0000023
:1013E000882F807329F484E000000000000006C00C
:1013F000803111F485E002C086E0000024BD9ABD72
:101400008DBD80E090E000000000019689309105DC
:10141000D1F78785982F937041F490E00000000089
:1014200000000000000000000DC0913029F4000011
:101430000000000093E006C0923011F494E002C076
:1014400096E00000282F2C7041F420E000000000FE
:1014500000000000000000000DC0243029F421E04D
:1014600000000000000006C0283011F422E002C095
:1014700023E00000882F807329F484E0000000003E
:10148000000006C0803111F485E002C086E0000053
:1014900024BD9ABD8DBD80E090E000000000019663
:1014A00089309105D1F780E0982F937041F490E056
:1014B0000000000000000000000000000DC091309E
:1014C00029F400000000000093E006C0923011F4FF
:1014D00094E002C096E00000282F2C7041F420E038
:1014E0000000000000000000000000000DC02430DB
:1014F00029F421E000000000000006C0283011F4AB
:1015000022E002C023E00000882F807329F484E0E9
:1015100000000000000006C0803111F485E002C028
:1015200086E0000024BD9ABD8DBD86E08ABD83E6BD
:1015300080BF80E384BD84E08DBD08959093BB009F
:101540008093BA000895242F2695269570E0660FA3
:10155000771F660F771F620F711DDC01ED91FC9103
:101560001197E60FF71F849190E050E043705070A0
:10157000440F551F02C0959587954A95E2F78370F1
:10158000089550E0440F551F440F551F480F511D3B
:10159000DB011496ED91FC911597E40FF51F8491F2
:1015A00008951F93CF93DF93EC01162F642F422FE2
:1015B000CADF882341F42091BA003091BB00211585
:1015C000310509F0E901212F30E0220F331F220FEE
:1015D000331F280F311DEC81FD81E20FF31F849131
:1015E000DF91CF911F91089590E0877090708630C1
:1015F000910518F08CE694E007C0FC01EE0FFF1F88
:10160000EE55FF4F80819181242F26952695E62F58
:10161000F0E0EE0FFF1FEE0FFF1FE20FF11DE80FCE
:10162000F91FE4918E2F90E050E043705070440F0A
:10163000551F02C0959587954A95E2F783700895E6
:10164000FC01862F90E0E837F90761F4483030F567
:1016500020917E0030E02150304090E0B90188D3E5
:101660008F5F089590E0EA36F907A1F4E62FF0E0E5
:10167000E031F10558F4ED5EFF4F099481E00895E3
:1016800082E0089583E0089584E0089580917000D9
:101690008150089566814CD3892F089580E0089584
:1016A0009C01862F90E02137390761F46CE040D32C
:1016B0009C3010F082E00895E92FF0E0E255FF4FF2
:1016C0008081089590E02A36390751F447FF02C01F
:1016D00080E004C0442311F080E3089563E028D340
:1016E00008954F925F926F927F928F929F92AF92E6
:1016F000BF92CF92DF92EF92FF920F931F93CF93FF
:10170000DF93EC01562E142FC22EA42EA21A4A2DBE
:10171000C7DFB82ECE016B2D412F92DF782EDD244E
:10172000E4E0CC0CDD1CEA95E1F78CEC90E0C80E0F
:10173000D91E00E08B2C992491E0892299247FE026
:10174000672E4A2C4194A0E0CA36DA0749F4BFE07C
:10175000BB1530F08114910419F0462D401B01C0D7
:10176000402F103180F4E0E0C236DE0721F48B2DEB
:10177000612F3ADF03C0CE01612FE5DE882319F027
:10178000272D7E0119C0E090BA00F090BB00E11453
:10179000F10419F4272D7E010EC0EC16FD0611F49C
:1017A0004A2D01C0442DC701652D7ADF682FC7017E
:1017B000412F46DF282F80E030E0220F331F220F19
:1017C000331F280F311DD7011496ED91FC91159709
:1017D000E20FF31F8491282F30E020733070203205
:1017E00031050CF0805FF60181936F010F5F0031CE
:1017F00009F0A9CFDF91CF911F910F91FF90EF904A
:10180000DF90CF90BF90AF909F908F907F906F9020
:101810005F904F9008950F931F93CF93DF93809124
:10182000BC008F5F8093BC008091BE009091BF0090
:10183000009709F046C0809160009091610020E01F
:101840008F37920751F48091BD008031D0F187E04D
:101850008093BD0081E790E030C020E08A36920797
:1018600029F48091BD00803360F123C020E08236EE
:10187000920729F48091BD00883018F11AC020E049
:101880008638920771F48091BD008830D0F087E0EF
:101890008093BD0081E790E09093610080936000A9
:1018A00010C020E08137920761F08091BD00803147
:1018B00040F01092BD0086E890E09093BF008093C6
:1018C000BE008091BE009091BF00009709F468C0EF
:1018D00080916000909161009093BB008093BA006A
:1018E00020E081379207F1F410E00AC0462F405102
:1018F000410F8091BE009091BF00212FF2DE1F5F4B
:101900006091BD00161790F300E009C086E890E0F2
:101910006091BD00402F212FE4DE0F5F1F5F10316B
:10192000A8F328C00091BD0010E0C0E1D0E009C0DC
:10193000412F400F8091600090916100212FD1DEF6
:101940001F5F6091BD00212F30E0CE01861B910901
:10195000281739076CF300E00BC08091BE0090910E
:10196000BF006091BD00402F212FBBDE0F5F1F5FC6
:10197000103198F38091BD008F5F8093BD0080315E
:1019800048F11092BD008091BE009091BF009093ED
:101990006100809360001092BF001092BE001AC0D8
:1019A0001092BB001092BA0010E0809160009091FC
:1019B00061006091BD00412F212F93DE1F5F103128
:1019C000A1F78091BD008F5F8093BD008C3F10F028
:1019D0001092BD00DF91CF911F910F91089580E388
:1019E00084BD84E08DBD08958091C2009091C300B4
:1019F0004091C0002091C1002223E9F01DBC20E0ED
:101A000030E0000000002F5F3F4F26313105C9F75D
:101A1000000000000000000000000000000025E0C1
:101A20002DBD20E030E0000000002F5F3F4F2B3045
:101A30003105C9F71DC023E02DBD20E030E00000D6
:101A400000002F5F3F4F26313105C9F7000000002D
:101A50000000000000000000000024E02DBD20E098
:101A600030E0000000002F5F3F4F2B303105C9F7F9
:101A700000000000000000000000000000004423FF
:101A800011F086975ED88091C2009091C3000196B4
:101A90009093C3008093C20083329105C1F08432D9
:101AA000910520F483309105E1F408C08632910558
:101AB000A9F023E086329207A1F415C01092C0006D
:101AC00081E08093C10080E484BD85E005C0109270
:101AD000C10080E384BD84E08DBD03C081E08093BC
:101AE000C00080E008951092C0001092C3001092D0
:101AF000C20081E008951F920F920FB60F92112439
:101B00002F933F934F935F936F937F938F939F9305
:101B1000AF93BF93EF93FF9367DF882329F0809102
:101B2000C4008F5F8093C400FF91EF91BF91AF918C
:101B30009F918F917F916F915F914F913F912F91E5
:101B40000F900FBE0F901F9018958091600090919C
:101B5000610020E08137920709F042C08091BE0009
:101B60009091BF00009709F04DC01092BD006FD654
:101B70004091BD002091BC0030E0240F311D63E096
:101B800070E0C4D0280F391F277030702230310523
:101B9000B9F02330310538F42115310559F02130E1
:101BA0003105B9F40AC02330310569F0243031051C
:101BB00081F40CC088E790E00EC08DE890E00BC087
:101BC00084E990E008C08BE990E005C08AE690E0E7
:101BD00002C082E690E09093BF008093BE0008951B
:101BE00020E08A36920771F48091BE009091BF0088
:101BF000009741F41092BD008FE790E09093610050
:101C000080936000089582E283BB80E062E075D635
:101C100080E066E049D680E060E041E0A2D6089529
:101C2000CF92DF92EF92FF920F931F9386E01FD621
:101C3000FCD586E0ECD5E7DF3BD7EFD511E00BD63E
:101C4000882309F059C003D69093C7008093C6003B
:101C5000E4D590916900923020F091509093690002
:101C60004BC02091C6003091C700C090C800D090F2
:101C7000C900E090CA00F090CB00913089F4109236
:101C8000690040E050E02C0D3D1D4E1D5F1D20936E
:101C9000C8003093C9004093CA005093CB002CC0B9
:101CA000C901A0E0B0E0A7019601281B390B4A0B3F
:101CB0005B0BDA01C9012093C8003093C90040933F
:101CC000CA005093CB0057FF07C0B095A0959095E0
:101CD00081959F4FAF4FBF4F80319105A105B10551
:101CE0000CF033DF1092C8001092C9001092CA00A5
:101CF0001092CB00109369000091C4000370809192
:101D0000C500081388DD0093C50099CF552700242E
:101D100080FF02C0060E571F660F771F6115710501
:101D200021F096958795009799F7952F802D089526
:101D3000991B79E004C0991F961708F0961B881F1D
:101D40007A95C9F780950895AA1BBB1B51E107C07E
:101D5000AA1FBB1FA617B70710F0A61BB70B881F3B
:101D6000991F5A95A9F780959095BC01CD010895CA
:101D700097FB092E07260AD077FD04D0E5DF06D0B1
:101D800000201AF4709561957F4F0895F6F79095AD
:0A1D900081959F4F0895F894FFCF4E
:101D9A006200AC040000EC040164F00400003005A9
:101DAA00064805000088050394050000D40504E4EC
:101DBA00050000240601280600006806016C0600DA
:101DCA0000AC06016C060000B00601B4060000F47F
:101DDA000602AC04AC04FC06FC063C073C07000007
:0A1DEA0000010102020101000000E7
:00000001FF
