:100000004DC267C266C265C264C263C262C261C2D7
:1000100060C25FC25EC25DC25CC25BC298C759C2A9
:1000200058C257C256C2000092012403B6044806C3
:10003000D9076A09FB0A8C0C1C0EAB0F3A11C812C7
:100040005514E2156E17F918821A0B1C931D1A1F0E
:100050009F202322A6232825A8262628A3291F2B54
:10006000992C112E872FFB306E32DF334D35BA3687
:1000700024388C39F23A563CB83D173F7340CE4194
:1000800025437A44CD451C476948B449FB4A3F4C57
:10009000814DBF4EFB4F335168529B53C954F555A8
:1000A0001D5742586459825A9C5BB35CC75DD75E4A
:1000B000E35FEB60F061F162EE63E864DD65CF66FB
:1000C000BC67A6688B696D6A4A6B236CF86CC96D56
:1000D000966E5E6F2270E2709D7154720773B573F5
:1000E0005F740475A5754176D8766B77FA77847856
:1000F00009798979057A7C7AEE7A5C7BC57B297CE3
:10010000887CE37C397D897DD57D1D7E5F7E9C7EEC
:10011000D57E097F377F617F867FA67FC17FD87FAD
:10012000E97FF57FFD7FFF7F4C434464697265631F
:10013000744C564453363020323031332D31322D09
:1001400031362031303A30303A343700000C363610
:100150000C001C0618060000000000601E0C1E1E8D
:10016000383F1C3F1E1E00001800061E3E0C3F3C80
:100170003F7F7F3C331E78670F63631C3F1E3F1E2B
:100180003F33336363337F1E031E08000C000700F8
:1001900038001C00070C18070E00000000000000CB
:1001A000080000000000003818076E0E001E3636EA
:1001B0003E6336060C0C660C00000030330F333300
:1001C0003C030633333300000C000C33631E6666B9
:1001D00036464666330C30660677673666336633D6
:1001E0002D3333636333330606181C000C000600FE
:1001F00030003600060000060C0000000000000081
:100200000C0000000000000C180C3B13001E367F91
:1002100003331C0306183C0C000000183B0C303064
:10022000361F033033330C0C063F18307B33660324
:1002300066161603330C3036067F6F636633660727
:100240000C333363363319060C183600181E3E1E65
:10025000301E066E360E1E660C371F1E3B6E1B3E92
:100260003E33336363333F0C180C0039000C003607
:100270001E186E000618FF3F003F000C3F0C1C1CB0
:1002800033301F181E3E0C0C030030187B333E0326
:10029000661E1E033F0C301E066B7B633E333E1C06
:1002A0000C33336B1C1E0C061818630000306633C9
:1002B0003E330F336E0C18360C7F33336633360300
:1002C0000C3333633633190700380069000C007FA4
:1002D000300C3B0006183C0C00000006370C0630C2
:1002E0007F30330C33300000063F180C7B3F660331
:1002F00066161673330C333646637363063B1E383B
:100300000C33337F360C460630180000003E66037F
:10031000333F0633660C181E0C6B33336633361EC0
:100320000C33336B1C330C0C180C000E0000003621
:100330001F6633000C0C660C0E000C03330C3333B9
:100340003033330633180C0E0C000C000333666692
:1003500036460666330C336666636336061E3633EE
:100360000C331E77630C630660180000003366339D
:100370003303063E660C18360C6333333E3E0630BC
:100380002C331E7F363E260C180C00F3000C003672
:100390000C636E00180600000C000C011E3F3F1E8F
:1003A000301E1E061E0E0C0C1800060C1E333F3CA1
:1003B0003F7F0F7C331E1E677F63631C0F38671EF1
:1003C0001E3F0C63631E7F1E401E0000006E3D1E1C
:1003D0006E1E0F30671E1B671E63331E06300F1F15
:1003E000186E0C3663303F381807004600000000D6
:1003F00000000000000000000600000000000000F7
:1004000000000000000000060000000000000000E6
:1004100000000000000000000000000000000000DC
:100420000000000000000000000000FF00000000CD
:100430000000001F00000E00000000000F78000008
:1004400000000000001F0000000000F4F000222265
:10045000F0002222600C6402600C6402C006408C32
:10046000C006408CE004C404E4006404E0084C04CA
:10047000E2004406E002440CE80046046006600620
:100480006006600645464765666700202B2D2E30C6
:1004900031323334353637383968000011241FBE05
:1004A000CFE5D2E0DEBFCDBF10E0A0E6B0E0ECEAE1
:1004B000F7E102C005900D92AE36B107D9F711E011
:1004C000AEE6B0E001C01D92AA3CB107E1F73AD513
:1004D0006BC996CDFC0111821082428382818617FE
:1004E00010F063830895828183830895FC018281E3
:1004F000861710F063830895828183830895FC0139
:10050000808191811816190614F080E008C080815E
:1005100091812281821B91099183808381E02081D6
:1005200031819381290F311D31832083089597B143
:100530008F71907E892B87B9089586B1807411F0F0
:1005400081E00895369A80E008953E983F983D985E
:10055000379A3598349A339886B1876086B987B1CF
:100560008F6187B9EADF86B18074E9F7089524B115
:1005700035B1C901089586B18295869586958170B9
:10058000089596B18770987F892B86B90895833036
:1005900080F0873010F48F5F0CC092B1835021E05F
:1005A00030E002C0220F331F8A95E2F7922B92B9F6
:1005B000089591B121E030E002C0220F331F8A95E7
:1005C000E2F7922B91B90895823028F5663081F0D8
:1005D000673028F4662351F06330E9F405C06830D1
:1005E00049F06A30C1F408C092E007C091E005C04C
:1005F00093E003C094E001C095E09770813029F04A
:1006000083B7887F892B83BF04C08FB5887F892BF0
:100610008FBD80E0089581E008956430F0F4882370
:1006200019F08130D1F40AC0862F8170B1F4627064
:1006300011F0A89A01C0A89885B30DC0613019F4D3
:1006400086B5816002C086B58E7F86BD86B586B5CB
:100650008D7F86BD86B580E0089581E008950F9373
:100660001F93182F062F642FD8DF882311F0806185
:1006700005C0812F602FA8DF811180621F910F912B
:100680000895843010F081E00895623010F082E027
:100690000895442311F041E0F8948295807F860FFD
:1006A0008130A1F0813030F08031E1F0813131F1E1
:1006B00083E00895442319F089B7806102C089B7A7
:1006C0008F7E89BF89B788B7806123C0442319F022
:1006D00089B7886002C089B7877F89BF89B788B723
:1006E000886017C0442319F089B7806402C089B7B5
:1006F0008F7B89BF89B788B780640BC0442319F00A
:1007000089B7806202C089B78F7D89BF89B788B7F2
:10071000806288BF442311F480E00895789480E0DB
:10072000089560E072E04BD797FF02C080509E4F63
:100730008038910544F4FC01EE0FFF1FEA5DFF4F86
:100740002591349129C08F3F910509F05CF4E0E0D8
:10075000F1E0E81BF90BEE0FFF1FEA5DFF4F25915B
:1007600034911AC021E08038920744F4FC01EE0F66
:10077000FF1FEA5DF140859194910AC0E0E0F2E04C
:10078000E81BF90BEE0FFF1FEA5DFF4F8591949177
:1007900022273327281B390BC901089560E072E036
:1007A0000ED79C0137FF02C020503E4F2038310544
:1007B0003CF4F901EE0FFF1FE95DFF4F84910895AE
:1007C0002F3F310509F054F4E0E0F1E0E21BF30BB8
:1007D000EE0FFF1FE95DFF4F8491089581E02038FF
:1007E000380744F4F901EE0FFF1FE95DF1408491F1
:1007F00081950895E0E0F2E0E21BF30BEE0FFF1F9E
:10080000E95DFF4F849181950895682F70E08370B2
:1008100090E09C0121703070880F991F282B392B94
:10082000220F331F220F331F2068AB01407350701B
:10083000440F551F242BCB018C7090709595879594
:1008400095958795822B0895E82FF0E0EE0FFF1F16
:10085000EE0FFF1FE058FF4F862F90E063E070E03F
:100860009CD6208131814281538104C056954795A1
:10087000379527958A95D2F7822F877008950F9321
:100880001F93E82FF0E0862F90E063E070E085D6BC
:10089000A82FEE0FFF1FEE0FFF1FE058FF4F67E07E
:1008A00070E080E090E00A2E04C0660F771F881F7A
:1008B000991F0A94D2F76095709580959095008164
:1008C0001181228133816023712382239323242F7A
:1008D00030E040E050E004C0220F331F441F551F9A
:1008E000AA95D2F7622B732B842B952B608371838F
:1008F000828393831F910F9108950F931F93E0E8D4
:10090000F0E0119211921192119290E0E83CF907F7
:10091000C1F712E1181B0BC000E0402F410F4770D8
:10092000812F602FACDF0F5F0A30B9F71F5F1231E4
:1009300098F31F910F9108952F923F924F925F92DB
:100940006F927F928F929F92AF92BF92CF92DF92DF
:10095000EF92FF920F931F93DF93CF9300D0CDB709
:10096000DEB780917E00853021F410927E0080E019
:10097000C4DF30906F004091710020907000509162
:100980007F00852F90E0837090708230910531F464
:10099000232D2F5F243009F0E0C0DEC0009719F44A
:1009A000342F3F5F05C08330910509F42394342F21
:1009B000232D5F5F50937F0080916E0090E0880F41
:1009C000991F880F991F820F911D880F991F845BB3
:1009D0009B4F122D1D5FA0E0B3E0FC01C590D490A9
:1009E00036C0CF018E0D9F1D260102C0569447943C
:1009F0008A95E2F740FE1AC01231F8F40A30F8F492
:100A0000802F90E063E070E0C8D52401350104C078
:100A100076946794579447948A95D2F7842D87707B
:100A200029F0231561F4341751F407C031960F5F94
:100A3000E430F105B1F680E004C081E001C080E05F
:100A4000A1E0B1501150BF3FD9F08823C9F4AA23C7
:100A500009F085C0EB2EFF24EE0CFF1CEE0CFF1CF2
:100A6000E12FF0E0EE0FFF1FEE0FFF1FE058FF4FEA
:100A700080809180A280B380032FE0E0F0E0B1CFCE
:100A8000AA2331F420936F003093710020927000FC
:100A9000882309F464C080917000882309F045C060
:100AA00080917100833009F040C080916F008823ED
:100AB00009F03BC080917E008F5F80937E0035C03F
:100AC00040916E00E42FF0E0EE0FFF1FEE0FFF1FCE
:100AD00080916F00E80FF11DEE0FFF1FE45BFB4FED
:100AE00085919491B701620F731F02C09695879507
:100AF0006A95E2F780FF0CC08091700060917100F0
:100B00006E0D4F5F810F29833A83B9DE3A812981C7
:100B10000894E11CF11C64E0E616F10489F61F5FFD
:100B20002C5F3F4F143021F406C020E030E010E08D
:100B3000EE24FF24C5CF80916E008F5F80936E00FE
:100B4000873011F410926E0083E080937100109250
:100B5000700010926F0003C020E0342F2ACF0F9056
:100B60000F90CF91DF911F910F91FF90EF90DF9049
:100B7000CF90BF90AF909F908F907F906F905F903D
:100B80004F903F902F9008958823A9F09091720084
:100B90008150923038F4873068F4E82FF0E0E05A62
:100BA000FF4F06C0873030F4E82FF0E0E959FF4FDF
:100BB000808108958FE3089589B5826089BD80E9B9
:100BC00091E00197F1F701C0000009B400FEFCCFED
:100BD00089B5846089BD089586E08BBD83E08CBDB6
:100BE0008FEF81BFE9DF8FB5807F83608FBD8FB5C9
:100BF0008F7C80628FBD80B7826080BF80B781604C
:100C000080BF87B5816087BDB99ABA9ABB9ABD9AF1
:100C100086B58C7F86BD89E087BD83E680BF80E393
:100C200084BD84E08DBD089580E384BD84E08DBDE6
:100C300008951092770086E08093C80083E6809341
:100C4000C9000895809177008F35F8F4E82FF0E01F
:100C5000EE0FFF1FE853FF4F9081987FF1F08F5FF9
:100C600080937700A82FB0E0FD01EE0FFF1FE8533F
:100C7000FF4FAA0FBB1FAA53BF4F8C918770808371
:100C800011968C911197818308958F3531F487E007
:100C90008093860183E780938701089520917700F0
:100CA000562F586F15C02F3519F4209377001BC0AD
:100CB000222321F43091C800387F09F02F5FE22F02
:100CC000F0E0EE0FFF1FE853FF4F508341834F9733
:100CD0008F31910540F720937700009711F480E061
:100CE00008952F3519F4AEDF81E00895222321F411
:100CF0003091C800387F19F02F5F20937700E09182
:100D00007700F0E0EE0FFF1FE853FF4F880F880FCA
:100D1000880F862B8083418380E00895E0917700DF
:100D2000F0E0DF01AA0FBB1FA853BF4F2C91009723
:100D300011F1422F4695469546954F3198F43FE183
:100D4000341B432F50E04817590738F0880F880F9D
:100D5000880F820F8C9380E00895286F2C93841B5A
:100D6000950B49F0EE0FFF1FE853FF4F608167704E
:100D7000418194DF089580E00895E0917700EE23AB
:100D800011F48CDF0895F0E0EE0FFF1FE853FF4FE2
:100D9000208130E027703070A62FB0E02A173B0783
:100DA00029F42181241711F4B9DF089577DF08951C
:100DB0001F93182F842F662359F4109278001092F5
:100DC000770096E09093C80093E69093C9000BC01B
:100DD00090917700992339F090917800191719F4C0
:100DE00090E09CDF16C0612F70E06C71707075959B
:100DF000679575956795212F2295269527702295E1
:100E0000207F912F9370292B90E0422F47DF109382
:100E100078001F91089583E580BFE8ECF0E04191F0
:100E2000542F57706191762F6F7072957F705ABDF5
:100E300064BD7DBD487FA9F000000000485079F3F3
:100E400000000000000000000000000000000000A2
:100E50000000000000000000000000000000000092
:100E6000EDCF80E890E00197F1F71ABC83E680BFF0
:100E700014BC86E08DBD80E384BD0895809175002B
:100E80009091730020917400222339F01DBCEFEA89
:100E9000F0E03197F1F725E007C023E02DBDEFEA40
:100EA000F0E03197F1F724E02DBDE8E5F0E031976F
:100EB000F1F7992311F08652AEDF80917500909181
:100EC00076000196909376008093750083329105A9
:100ED000C1F08432910520F483309105E1F408C01B
:100EE00086329105A9F023E086329207A1F415C05D
:100EF0001092730081E08093740080E484BD85E0EB
:100F000005C01092740080E384BD84E08DBD03C0F1
:100F100081E08093730080E0089510927300109236
:100F200076001092750081E0089584E883BB80E02C
:100F300062E073DB80E066E047DB80E060E041E098
:100F4000A0DB089583E0D9DCF0DF46DEFFCF1F92FF
:100F50000F920FB60F9211246F927F928F929F92F1
:100F6000AF92BF92DF92EF92FF920F931F932F9356
:100F70003F934F935F936F937F938F939F93AF9321
:100F8000BF93CF93DF93EF93FF9378DF882329F00C
:100F9000809179008F5F80937900C0917500D09126
:100FA0007600A39723E0C030D20708F0C9C120978C
:100FB00009F4C2DCCE018F709070009709F02CC14B
:100FC00080E023DCD82EEAE8F1E07F01D19231E025
:100FD000EA3CF307D9F7CE0164E0969587956A95C8
:100FE000E1F7182F8231A8F58FE30FDC082F8093EB
:100FF0008A015AE8652E51E0752E88249924A12E85
:10100000BB24AA0CBB1CAA0CBB1C80E890E0A80E59
:10101000B91EF50180819181A281B381082C04C0A1
:10102000B695A795979587950A94D2F78770ACDD0A
:10103000ECDBF301818323E030E0820E931E089401
:10104000611C711C3EE18316910419F70093950110
:101050000BC0823149F48FE3D8DBEAE8F1E08193F9
:1010600091E0E639F907D9F780907000181508F477
:1010700041C0882D90E00396212F30E0821793071E
:10108000CCF1E12FE8198E2E9924880C991C880C3C
:10109000991CAA24BB2480916E00E82FF0E0EE0F8B
:1010A000FF1FEE0FFF1F90916F00E90FF11DEE0F74
:1010B000FF1FE45BFB4F25913491A501480D591D9D
:1010C00002C0369527954A95E2F720FF0CC08F5F46
:1010D0005BDD9BDBE091710095012E0F311DF90165
:1010E000E557FE4F80830894A11CB11C34E0A31681
:1010F000B10489F6812F8695869586958330B1F067
:10110000843028F4813049F0823051F40CC08430AE
:1011100009F447C0853021F447C025E407E046C004
:1011200024E503E043C024E50FE040C0812F90E0B8
:101130008770907060E670E030D2FC01E258FE4F9C
:10114000E49127E030E080E0F0E067E070E041E02B
:1011500050E0DB01A21BB30B5F0102C0B594A79462
:10116000AA95E2F7A0FE09C0DA01022E02C0AA0F7A
:10117000BB1F0A94E2F78A2B0AC0DA01022E02C0D2
:10118000AA0FBB1F0A94E2F79A2F9095892321504A
:1011900030409FEF2F3F3907E1F6869520E00CE0C5
:1011A00006C029E40CE302C023E500E380E0912FB0
:1011B0009851983098F0812F90E08770907063E09C
:1011C00070E0EBD1FC01319785E0EE0FFF1F8A95AF
:1011D000E1F7E20FF11DE45BFE4F8491AA24BB24EA
:1011E000882E9924C4010A2C02C0959587950A94EB
:1011F000E2F780FF05C0802F08DBF701878702C078
:10120000F701D7860894A11CB11C0894E11CF11CBD
:10121000F8E0AF16B10431F71092770086E08093C2
:10122000C80083E68093C90083E090E066E043E66F
:1012300035DDC0FF0EC0C1E0D0E0FE01E757FE4F34
:1012400080816C2F45E0B4DD2196C134D105A9F72A
:1012500071C0CE018F739070009729F48AE790E0F7
:1012600060E04CE137D9BE01769567956F716C5F90
:101270008AE790E03BD98AE790E041D9B6E0D6957D
:10128000C795BA95E1F7882331F08EE48C1B805323
:101290008033E8F705C08FE48C1B80538033E8F778
:1012A000482F4370682F70E082FF03C083E0841BE7
:1012B000482F9B012C7030703595279535952795D3
:1012C00064FF03C083E0821B282FCB0180739070E2
:1012D000F4E095958795FA95E1F766FF03C093E0F2
:1012E000981B892F30E023703070220F331F220F9C
:1012F000331F4370422B90E08370907074E0880F2E
:10130000991F7A95E1F7482B842F90E09C01237078
:101310003070220F331F642F6170622B4073406462
:101320008C7090709595879595958795482B80E45E
:1013300091E023DD83E090E066E043E6AFDC82DC11
:10134000FF91EF91DF91CF91BF91AF919F918F91DD
:101350007F916F915F914F913F912F911F910F91CD
:10136000FF90EF90DF90BF90AF909F908F907F9015
:101370006F900F900FBE0F901F901895ABE0B0E0EC
:10138000E3ECF9E033C16C014B017A01FC011782F7
:101390001682838181FD08C02FEF3FEFFAC022E063
:1013A00030E0E20EF31E04C05E010894A11CB11CE3
:1013B000F6017380F40173FC859173FE81914F01F6
:1013C000882309F4E3C0853251F473FC059173FE60
:1013D00001914F01053211F010E01AC085E290E052
:1013E00029C0002309F4D2C08BE894E0602F70E09C
:1013F00044D1009739F4033211F4106103C00C3664
:1014000061F41068F40173FC059173FE01914F01C2
:1014100017FFE7CF002309F4B9C084E894E0602FF8
:1014200070E02BD1009749F024E030E0E20EF31E8B
:101430008FE390E0B6012CD1BBCF033629F0033700
:1014400071F00335E1F40AC087010E5F1F4FF70109
:1014500080819181B6011CD17801AACF1160F7017A
:101460006080718003C090E0B60112D1F30110FDDD
:10147000859110FF81913F018823A9F790CF043611
:1014800011F0093629F517FF08C0F7016081718155
:101490008281938124E030E00AC0F701208131810C
:1014A000B901882777FD8095982F22E030E0E20E81
:1014B000F31E1F7E97FF08C09095809570956195EB
:1014C0007F4F8F4F9F4F1064A5012AE030E033C05B
:1014D0000037A9F0013730F40835B1F00F3609F0C4
:1014E00055C006C0053739F0083709F04FC008C0AD
:1014F00028E030E00CC01F7E2AE030E008C0106118
:10150000146220E130E003C0146020E132E017FFF4
:1015100008C0F701608171818281938144E050E0CD
:1015200007C0F7016081718180E090E042E050E007
:10153000E40EF51EA501D8D0082F0A19612E7724D4
:1015400016FF04C08DE290E0B601A2D064FE13C085
:10155000FE01E00FF11D8081803369F080E390E0AF
:10156000B60196D062FE07C0C30180729070885A9F
:101570009F4FB6018DD00150F501E00FF11D808124
:1015800090E0B60185D00023B1F712CFF601268195
:101590003781C9012B96EEE045C05527002480FF16
:1015A00002C0060E571F660F771F6115710521F0E7
:1015B00096958795009799F7952F802D089597FB1D
:1015C000092E07260AD077FD04D043D006D000208C
:1015D0001AF4709561957F4F0895F6F7909581956F
:1015E0009F4F08952F923F924F925F926F927F92FA
:1015F0008F929F92AF92BF92CF92DF92EF92FF9223
:101600000F931F93CF93DF93CDB7DEB7CA1BDB0BCE
:101610000FB6F894DEBF0FBECDBF09942A88398873
:1016200048885F846E847D848C849B84AA84B9847A
:10163000C884DF80EE80FD800C811B81AA81B98186
:10164000CE0FD11D0FB6F894DEBF0FBECDBFED019A
:101650000895AA1BBB1B51E107C0AA1FBB1FA617F9
:10166000B70710F0A61BB70B881F991F5A95A9F74B
:1016700080959095BC01CD010895FC01059006165A
:1016800021F00020D9F7C00108953197CF010895C6
:101690000F931F93CF93DF938C01EB018B8181FF1D
:1016A0001BC082FF0DC02E813F818C819D81281738
:1016B000390764F4E881F9810193F983E88306C06E
:1016C000E885F985802F0995009731F48E819F81F7
:1016D00001969F838E8302C00FEF1FEFC801DF9139
:1016E000CF911F910F910895FA01AA27283061F137
:1016F000203191F1E8946F936E7F6E5F7F4F8F4F33
:101700009F4FAF4FB1E040D0B4E03ED0670F781F9D
:10171000891F9A1FA11D680F791F8A1F911DA11D86
:101720006A0F711D811D911DA11D22D009F46894BD
:101730003F91062E000C3019000C000C3019305D62
:101740003193CEF6CF010895462F4770405D419307
:10175000B3E00FD0C9F7F6CF462F4F70405D4A3344
:1017600018F0495D31FD4052419302D0A9F7EACF0C
:10177000B4E0A6959795879577956795BA95C9F73B
:1017800000976105710508959B01AC010A2E06942E
:101790005795479537952795BA95C9F7620F731FE7
:0C17A000841F951FA01D0895F894FFCF32
:0E17AC0003070F0C3C30330104101411051517
:00000001FF
