:100000000C94DF030C94FC030C94FC030C94FC0391
:100010000C94FC030C94FC030C94FC030C94FC0364
:100020000C94FC030C94FC030C94FC030C941A0D2C
:100030000C94FC030C94FC030C94FC030C94FC0344
:100040000C94FC030C94FC030C94FC030C94FC0334
:10005000B30AB30AB30AB30AB50AB50AB50AA40AC1
:10006000A40AA40AA60AA60AA60AA80AA80AA80A0E
:10007000CA0ACA0ACA0ACE0ACE0ACC0ACC0ACE0AD0
:10008000CE0ACA0ACA0ACA0A000092012403B604A8
:100090004806D9076A09FB0A8C0C1C0EAB0F3A11F3
:1000A000C8125514E2156E17F918821A0B1C931D0D
:1000B0001A1F9F202322A6232825A8262628A32905
:1000C0001F2B992C112E872FFB306E32DF334D35CD
:1000D000BA3624388C39F23A563CB83D173F734053
:1000E000CE4125437A44CD451C476948B449FB4A73
:1000F0003F4C814DBF4EFB4F335168529B53C95407
:10010000F5551D5742586459825A9C5BB35CC75DD4
:10011000D75EE35FEB60F061F162EE63E864DD659A
:10012000CF66BC67A6688B696D6A4A6B236CF86CF6
:10013000C96D966E5E6F2270E2709D715472077386
:10014000B5735F740475A5754176D8766B77FA77C9
:10015000847809798979057A7C7AEE7A5C7BC57B2B
:10016000297C887CE37C397D897DD57D1D7E5F7E01
:100170009C7ED57E097F377F617F867FA67FC17F8A
:10018000D87FE97FF57FFD7FFF7F2502072F0000E5
:10019000000000C0010000C0010000F0070000F0F6
:1001A000070000F0070000F0070000F0070000F073
:1001B000070000F0070000F0070000F0070000F063
:1001C000070000C0010000C00100000000000000A6
:1001D000000000800000008000000080000000801F
:1001E0000000008000000080000000C0000000C08F
:1001F00000000080000000800000008000000080FF
:1002000000000080000000800000000000000000EE
:100210000000008001000080010000600500006017
:10022000050000600500006005000070050000701A
:10023000050000600500006005000060050000602A
:1002400005000080010000800100000000000000A7
:1002500000000080020000A00A0000A82A0000E8B8
:10026000290000BAA60000BAA60000BAA60000BA8B
:10027000A60000BAA60000BAA60000E8290000A85F
:100280002A0000A00A000080020000000000040212
:1002900027000402270005022700070227000301A8
:1002A00026000020012000500500005415000055D4
:1002B000550040555501D057D507545EB51554FE2D
:1002C000BF15556EB955556AA9555555555554A97B
:1002D0006A1500AAAA0000AAAA0FC0ABFA3FC0AFD5
:1002E000FE3F00BFFF0F25040000252F0704251740
:1002F000020025070502005555005055550554AA22
:10030000AA15A5FEBF5AA5FEBF5A54AAAA15505554
:10031000550500555500004001001540015454405A
:100320000115544141155045510550455105405561
:10033000550100500500250702002502000000407D
:10034000010000400100005005000050050000546D
:100350001500545555155465591550655905406596
:10036000590100555500005555004055550140555F
:100370005501401554015001400550000005250766
:10038000022F2507042F00500500005429000055B6
:10039000AA004055AA025055A905945A5515A46AB9
:1003A0005515A56A555AA56A556A955A5569555500
:1003B0005555A4FEBF1A00FFFF0000FFDF0000FF3D
:1003C000DF0000FC370025022700000000000000CD
:1003D000000000000000000000000000000000001D
:1003E0000000000000000050050040555501D45F9A
:1003F000F517A5FAAF5A5555555580AAAA0280AAF5
:10040000AA02F00FF03F0000000025020000FCFFF0
:10041000FF3F575555D5775555DD575555D5575548
:1004200055D5575555D5575555D5575555D5575574
:1004300055D5575555D5575555D5575555D5575564
:1004400055D5775555DD575555D5FCFFFF3F25024E
:100450000700250202002502010054555515A9AADE
:10046000AAEAB9AAAAEEA956A5EAA9F597EAA9B5F2
:10047000D6EAA9B5D6EAA9BED5EAA96AFDEAA96A6B
:10048000ADEAA9AAAFEAA96AA9EAA96AADEAB9AA36
:10049000AFEEA9AAAAEAFFFFFFFF000C36360C0058
:1004A0001C0618060000000000601E0C1E1E383FCF
:1004B0001C3F1E1E00001800061E3E0C3F3C3F7FE6
:1004C0007F3C331E78670F63631C3F1E3F1E3F3324
:1004D000336363337F1E031E08000C0007003800DF
:1004E0001C00070C18070E000000000000000800A8
:1004F00000000000003818076E0E001E36363E63FE
:1005000036060C0C660C00000030330F33333C030E
:100510000633333300000C000C33631E6666364628
:100520004666330C306606776736663366332D339E
:1005300033636333330606181C000C0006003000DA
:100540003600060000060C000000000000000C0051
:1005500000000000000C180C3B13001E367F033314
:100560001C0306183C0C000000183B0C3030361FF2
:10057000033033330C0C063F18307B3366036616AA
:100580001603330C3036067F6F63663366070C3311
:100590003363363319060C183600181E3E1E301E03
:1005A000066E360E1E660C371F1E3B6E1B3E3E331C
:1005B000336363333F0C180C0039000C00361E18EF
:1005C0006E000618FF3F003F000C3F0C1C1C333030
:1005D0001F181E3E0C0C030030187B333E03661EB2
:1005E0001E033F0C301E066B7B633E333E1C0C33F8
:1005F000336B1C1E0C0618186300003066333E3344
:100600000F336E0C18360C7F3333663336030C33DE
:1006100033633633190700380069000C007F300C53
:100620003B0006183C0C00000006370C06307F30FB
:10063000330C33300000063F180C7B3F6603661610
:100640001673330C333646637363063B1E380C3324
:10065000337F360C460630180000003E6603333FF9
:100660000633660C181E0C6B33336633361E0C33A0
:10067000336B1C330C0C180C000E000000361F6688
:1006800033000C0C660C0E000C03330C3333303388
:10069000330633180C0E0C000C0003336666364626
:1006A0000666330C336666636336061E36330C33D8
:1006B0001E77630C63066018000000336633330353
:1006C000063E660C18360C6333333E3E06302C3340
:1006D0001E7F363E260C180C00F3000C00360C630F
:1006E0006E00180600000C000C011E3F3F1E301E5D
:1006F0001E061E0E0C0C1800060C1E333F3C3F7FDE
:100700000F7C331E1E677F63631C0F38671E1E3FFE
:100710000C63631E7F1E401E0000006E3D1E6E1E99
:100720000F30671E1B671E63331E06300F1F186EC7
:100730000C3663303F381807004600000000000008
:1007400000000000000006000000000000000000A3
:100750000000000000060000000000000000000093
:100760000000000000000000000000000000000089
:10077000000000000000000000FF0000000000007A
:10078000001F00000E00000000000F7800000000B5
:100790000000001F0000000000F44C434464697234
:1007A0006563744C564453363720323031342D3023
:1007B000342D32382030303A35373A303700112472
:1007C0001FBECFEFD4E0DEBFCDBF11E0A0E0B1E0AF
:1007D000E6E1FCE102C005900D92A235B107D9F720
:1007E00012E0A2E5B1E001C01D92A737B107E1F721
:1007F0000E94580D0C94090E0C940000FC0182819B
:10080000861710F063830895828183830895FC0125
:100810001182108242830C94FE03FC01808191813D
:10082000181619064CF4808191812281821B91094E
:100830009183808381E001C080E0208131819381B8
:10084000290F311D31832083089598B18F71907ED7
:10085000892B88B908958CB59DB5089586B186FB1E
:10086000882780F908950E942E04811102C0369ACB
:10087000089581E0089596B18770987F892B86B995
:100880000895469847984598379A3598349A3398FA
:1008900087E00E943B048FE10E9425040E943304FC
:1008A0000E942E048111FCCF0895883060F490914D
:1008B000770021E030E0082E01C0220F0A94EAF709
:1008C000922B909377000895813051F4611108C004
:1008D00080918A00887F816080938A0080E00895FB
:1008E00081E00895643088F4813079F4611104C0A6
:1008F00080918A008F7E05C0623039F480918A0031
:10090000806180938A0080E0089581E00895CF930C
:10091000DF93C82FD62F642F0E947204882311F012
:10092000806109C06D2F8C2F0E946404882311F010
:10093000806201C080E0DF91CF910895813051F451
:10094000442361F0F8940D9A41E0159A442321F074
:10095000789402C081E0089580E008950D98F5CF65
:10096000811101C081E0682F70E080E991E00E9470
:10097000EF0D7093020160930101089560910101F0
:100980007091020180E991E00E94DB0D862F0895AD
:1009900060E083E791E00C94FE032E98269A4FEFD7
:1009A00060E083E791E00E94070480E991E0909382
:1009B0000201809301010895809352010895CF921E
:1009C000DF92EF92FF920F931F9330915201432FCA
:1009D000407F232F2F70442331F0211107C041E0C5
:1009E0004093600103C021111092600140916001A9
:1009F000442321F0E32FE295EF7001C0E22F5091E4
:100A00005F01F52FF69500915B0110915C0120913B
:100A10005D0130915E016B017C01C01AD10AE20ACE
:100A2000F30AFE1798F445ECC41649E0D406E10435
:100A3000F10460F160935B0170935C0180935D0150
:100A400090935E015F5F50935F0120C000E21EE45F
:100A500020E030E0042E04C0000F111F221F331FBE
:100A60000A94D2F70C151D052E053F0578F4109257
:100A70005F0160935B0170935C0180935D019093D3
:100A80005E0181E0411180E08093600180915F010F
:100A9000809581701F910F91FF90EF90DF90CF9024
:100AA00008950F931F938091570190915801A09141
:100AB0005901B0915A010196A11DB11D80935701B2
:100AC00090935801A0935901B0935A01409153015A
:100AD0005091540160915501709156018C019D0116
:100AE000041B150B260B370B40910101509102019D
:100AF00060E070E0401751076207730730F580939C
:100B0000530190935401A0935501B09356018091E5
:100B1000760160910001772767FD7095680F711D60
:100B20006F3F710534F08FEF809300016FEF70E03D
:100B300008C0161617062CF081E08093000160E0D3
:100B400070E083E791E00E94FE03809152018823C8
:100B500059F060915701709158018091590190911D
:100B60005A010E94DF0404C083E791E00E940D0453
:100B7000882321F026982E9A81E003C02E98269A89
:100B800080E01F910F9108950C94510526982E9A9C
:100B90008FEF00008150E9F783B186FB882780F949
:100BA000089560E072E00E94EF0D97FD9E5F80382F
:100BB000910584F08F3F910529F024F0803851E0B1
:100BC00095073CF420E031E0A901481B590BCA010C
:100BD0000895925008950E94D10597FF05C0919500
:100BE0008195910921E001C020E0FC01EE0FFF1F7B
:100BF000E857FF4F85919491222319F091958195A3
:100C0000910908950E94D10597FF05C0919581959E
:100C1000910921E001C020E0FC01EE0FFF1FE75722
:100C2000FF4F849121118195089580918700837EE3
:100C3000886180938700809187008260809387001D
:100C40008FE891E00197F1F700C0000080918700E4
:100C500080FD02C00000FACF08950F930E94150690
:100C6000A5E0A0936E0046E050E059BD48BD23E0EA
:100C700030E037BD26BDAD9A82E090E090936500EC
:100C80008093640064E070E07FBD6EBDAD9866E067
:100C900065BB10926F00A0936A0055BD44BD45E04E
:100CA00050E05BBD4ABD8D9A33BD22BD8D988D9AB3
:100CB00090936100809360008D9882E081BB03E196
:100CC000E6E6F6E081E0989486BB09940350F4F7D9
:100CD0000D3F19F00E3F11F00000000082BB0F9194
:100CE00008950F9390E1299FF0011124E00FF11D69
:100CF000E958FE4F443008F043E090E1499F9001ED
:100D00001124843008F083E0282B643008F063E07D
:100D100084E0689FB0011124622B60830F910895D5
:100D2000089524E0880F991F2A95E1F760E073E0A9
:100D30000E94DB0DFB0134E0EE0FFF1F3A95E1F757
:100D4000E958FE4FAD9A81E090E090936500809362
:100D5000640084E090E09FBD8EBDAD988081482FF7
:100D6000429543708D9A282F237030E02E5F3F4FBD
:100D700030936100209360008D988D9A86958695BA
:100D8000837090E0039693BD82BD8D98433011F03F
:100D90004C5F01C048E0AD9A842F90E09FBD8EBDAE
:100DA000AD9887E090E00000000001970097D9F728
:100DB00000000000000000008181482F4295437030
:100DC0008D9A282F237030E02E5F3F4F30936100C3
:100DD000209360008D988D9A86958695837090E01B
:100DE000039693BD82BD8D98433011F04C5F01C0D6
:100DF00048E0AD9A842F90E09FBD8EBDAD9887E00E
:100E000090E00000000001970097D9F70000000073
:100E1000000000008281482F429543708D9A282F50
:100E2000237030E02E5F3F4F3093610020936000CD
:100E30008D988D9A86958695837090E0039693BDE4
:100E400082BD8D98433011F04C5F01C048E0AD9AEF
:100E5000842F90E09FBD8EBDAD9887E090E00000AC
:100E6000000001970097D9F7000000000000000083
:100E70008381482F429543708D9A282F237030E04C
:100E80002E5F3F4F30936100209360008D988D9AC4
:100E900086958695837090E0039693BD82BD8D986C
:100EA000433011F04C5F01C048E0AD9A842F90E0D0
:100EB0009FBD8EBDAD9887E090E0000000000197D7
:100EC0000097D9F700000000000000008481482F3F
:100ED000429543708D9A282F237030E02E5F3F4F4C
:100EE00030936100209360008D988D9A8695869549
:100EF000837090E0039693BD82BD8D98433011F0CE
:100F00004C5F01C048E0AD9A842F90E09FBD8EBD3C
:100F1000AD9887E090E00000000001970097D9F7B6
:100F200000000000000000008581482F42954370BA
:100F30008D9A282F237030E02E5F3F4F3093610051
:100F4000209360008D988D9A86958695837090E0A9
:100F5000039693BD82BD8D98433011F04C5F01C064
:100F600048E0AD9A842F90E09FBD8EBDAD9887E09C
:100F700090E00000000001970097D9F70000000002
:100F8000000000008681482F429543708D9A282FDB
:100F9000237030E02E5F3F4F30936100209360005C
:100FA0008D988D9A86958695837090E0039693BD73
:100FB00082BD8D98433011F04C5F01C048E0AD9A7E
:100FC000842F90E09FBD8EBDAD9887E090E000003B
:100FD000000001970097D9F7000000000000000012
:100FE0008781482F429543708D9A282F237030E0D7
:100FF0002E5F3F4F30936100209360008D988D9A53
:1010000086958695837090E0039693BD82BD8D98FA
:10101000433011F04C5F01C048E0AD9A842F90E05E
:101020009FBD8EBDAD9887E090E000000000019765
:101030000097D9F700000000000000008085482FCD
:10104000429543708D9A282F237030E02E5F3F4FDA
:1010500030936100209360008D988D9A86958695D7
:10106000837090E0039693BD82BD8D98433011F05C
:101070004C5F01C048E0AD9A842F90E09FBD8EBDCB
:10108000AD9887E090E00000000001970097D9F745
:1010900000000000000000008185482F4295437049
:1010A0008D9A282F237030E02E5F3F4F30936100E0
:1010B000209360008D988D9A86958695837090E038
:1010C000039693BD82BD8D98433011F04C5F01C0F3
:1010D00048E0AD9A842F90E09FBD8EBDAD9887E02B
:1010E00090E00000000001970097D9F70000000091
:1010F000000000008285482F429543708D9A282F6A
:10110000237030E02E5F3F4F3093610020936000EA
:101110008D988D9A86958695837090E0039693BD01
:1011200082BD8D98433011F04C5F01C048E0AD9A0C
:10113000842F90E09FBD8EBDAD9887E090E00000C9
:10114000000001970097D9F70000000000000000A0
:101150008385482F429543708D9A282F237030E065
:101160002E5F3F4F30936100209360008D988D9AE1
:1011700086958695837090E0039693BD82BD8D9889
:10118000433011F04C5F01C048E0AD9A842F90E0ED
:101190009FBD8EBDAD9887E090E0000000000197F4
:1011A0000097D9F700000000000000008485482F58
:1011B000429543708D9A282F237030E02E5F3F4F69
:1011C00030936100209360008D988D9A8695869566
:1011D000837090E0039693BD82BD8D98433011F0EB
:1011E0004C5F01C048E0AD9A842F90E09FBD8EBD5A
:1011F000AD9887E090E00000000001970097D9F7D4
:1012000000000000000000008585482F42954370D3
:101210008D9A282F237030E02E5F3F4F309361006E
:10122000209360008D988D9A86958695837090E0C6
:10123000039693BD82BD8D98433011F04C5F01C081
:1012400048E0AD9A842F90E09FBD8EBDAD9887E0B9
:1012500090E00000000001970097D9F7000000001F
:10126000000000008685482F429543708D9A282FF4
:10127000237030E02E5F3F4F309361002093600079
:101280008D988D9A86958695837090E0039693BD90
:1012900082BD8D98433011F04C5F01C048E0AD9A9B
:1012A000842F90E09FBD8EBDAD9887E090E0000058
:1012B000000001970097D9F700000000000000002F
:1012C0008785482F429543708D9A282F237030E0F0
:1012D0002E5F3F4F30936100209360008D988D9A70
:1012E00086958695837090E0039693BD82BD8D9818
:1012F000433011F04C5F01C048E0AD9A842F90E07C
:101300009FBD8EBDAD9887E090E000000000019782
:101310000097D9F700000000000000008D9A22E03D
:1013200030E030936100209360008D988D9A83E0C7
:1013300090E093BD82BD8D98AD9A84E090E09FBD12
:101340008EBDAD988D9A45E050E05093610040937A
:1013500060008D98AD9A30936500209364009FBD26
:101360008EBDAD98089590936B0180936A010895A6
:10137000242F2695269530E054E0659F200D311DE1
:101380001124DC01ED91FC91E20FF31F8491437075
:1013900090E0440F02C0959587954A95E2F78370D7
:1013A000089590E024E0429F800D911D1124DB01FF
:1013B0001496ED91FC911597E80FF91F849108950B
:1013C0000F931F93CF93DF931F92CDB7DEB7182FE4
:1013D000792F062F642F422F79830E94B8097981D3
:1013E000811109C020916A0130916B0121153105ED
:1013F00011F0122F732F402F612F0F90DF91CF919B
:101400001F910F910C94D1098770863048F4E82F12
:10141000F0E0EE0FFF1FEB5BFE4F8081918102C079
:101420008EE891E0E42FE695E695F0E024E0629FF7
:10143000E00DF11D1124E80FF91FE49143708E2F88
:1014400090E0440F02C0959587954A95E2F7837026
:101450000895809104019091050121E08E33920757
:1014600009F041C08091660190916701892B09F0D4
:101470004BC0109268010E942B044091680120919A
:10148000690130E0240F311DAC01440F551F480F96
:10149000591F240F351F2770332722303105B1F033
:1014A00048F42115310579F021303105C9F489E27C
:1014B00091E00EC02330310581F02430310581F4F4
:1014C0008DE091E005C084E191E002C082E291E00C
:1014D000909367018093660108958BE191E0F8CFC6
:1014E00086E091E0F5CF8D50914071F480916601D6
:1014F00090916701892B41F41092680180E391E09B
:1015000090930501809304010895FC01862F91E0DA
:10151000E431F90761F4483030F590E060911A0148
:1015200070E0615071090E94EF0D8F5F089591E0A6
:10153000ED30F90799F490E08031910558F4FC0101
:10154000E85DFF4F0C94030E82E0089583E0089558
:1015500084E00895809113018150089566810E946E
:10156000CF0D892F089580E0089581E008959C01B2
:10157000862F91E02E33390799F46CE00E94CF0D4D
:10158000892F90E08C30910538F4FC01E85CFF4F26
:101590000C94030E80E0089582E0089581E00895A0
:1015A0002D50314069F447FD03C0411108C001C00E
:1015B00080E09BEA899F812D11248695089580E320
:1015C00008954F925F926F927F928F929F92AF9207
:1015D000BF92CF92DF92EF92FF920F931F93CF9320
:1015E000DF93EC01762EB42EC22E942E921A492D42
:1015F0000E94B70AA82E4B2D682FCE010E94850AA3
:10160000882E80E1C89E60011124C60189589E4F32
:101610006C01E12CF12C692C61949A2D9170592E5A
:101620007FE0472E4E2D9FE081E0CD30D80741F47A
:101630009A1590F0552081F0842D8E19482F0CC0FA
:101640009B1598F081E0C630D80749F44E2D6B2DDC
:101650008A2D0E94040A07C09FE09B1530F06B2D75
:10166000CE010E94B809811118C000916A01109141
:101670006B0101151105A1F00C171D0711F0462D86
:1016800001C0492D672DC8010E94B70A4B2D682F54
:10169000C8010E94850A482F05C0482D8E0103C04D
:1016A000482D8E0180E0B8010E94D109282F2073B7
:1016B00030E0203231050CF0805FF601EE0DFF1DA9
:1016C00080839FEFE91AF90A80E1E816F10409F036
:1016D000A9CFDF91CF911F910F91FF90EF90DF90F5
:1016E000CF90BF90AF909F908F907F906F905F90C2
:1016F0004F9008950F931F93CF93DF9380916901CB
:101700008F5F809369018091660190916701892BB9
:1017100009F042C080910401909105012091680177
:1017200031E08033930741F42031B0F187E08093BA
:1017300068018EE391E00AC031E08D30930759F4DF
:10174000203350F11092680187E391E09093670194
:101750008093660121C031E08630930719F4283068
:1017600088F71AC031E08733930761F42830A0F07E
:1017700087E0809368018EE391E090930501809368
:1017800004010AC08E53914019F02031D8F604C0EC
:101790002C3310F00E94290A809166019091670114
:1017A000892B09F46BC080910401909105019093FD
:1017B0006B0180936A018E539140B1F5C0E0609156
:1017C0006801C61760F440EF460F4C0F2C2F809134
:1017D0006601909167010E94E10ACF5FF0CFDC2F94
:1017E000C03158F44C2F4D1B2C2F6091680187E3BA
:1017F00091E00E94E10ACF5FF3CF809168018F5F93
:1018000080936801803108F454C01092680180917F
:1018100066019091670190930501809304011092F5
:1018200067011092660145C00091680110E0C0E1B7
:10183000D0E060916801412F50E0CE01861B9109F4
:10184000481759075CF4412F400F212F8091040164
:10185000909105010E94E10A1F5FEBCFC12F10316B
:1018600060F6412F4C1B212F609168018091660129
:10187000909167010E94E10A1F5FF1CF10926B0106
:1018800010926A01C0E02C2F4C2F6091680180916A
:101890000401909105010E94E10ACF5FC03199F7E0
:1018A000809168018F5F809368018C3F10F01092E7
:1018B0006801DF91CF911F910F910895AD9A82E059
:1018C00090E0909365008093640084E090E09FBD79
:1018D0008EBDAD980895409165018091620190910F
:1018E000630120916401AD9A222379F126E030E072
:1018F00030936500209364003FBD2EBDAD9826E176
:1019000030E0000000002150310921153105C9F7F0
:101910000000000000000000000000000000AD9A80
:1019200023E030E0309365002093640024E030E051
:101930003FBD2EBDAD982BE030E0000000002150EF
:10194000310921153105C9F730C022E030E030936C
:1019500065002093640023E030E03FBD2EBDAD98CC
:1019600026E130E000000000215031092115310549
:10197000C9F70000000000000000000000000000A7
:10198000AD9A22E030E0309365002093640024E0BB
:1019900030E03FBD2EBDAD982BE030E000000000F0
:1019A0002150310921153105C9F700000000000060
:1019B0000000000000000000442319F086970E94F8
:1019C0009106809162019091630101969093630169
:1019D0008093620183329105C9F050F48330910500
:1019E00039F51092650121E020936401AD9A13C08E
:1019F00086329105D1F086329340D1F41092650180
:101A0000109263011092620181E0089510926401C6
:101A1000AD9A82E090E0909365008093640084E04A
:101A200090E09FBD8EBDAD9803C081E080936501BD
:101A300080E008951F920F920FB60F9211242F93FA
:101A40003F934F935F936F937F938F939F93AF9346
:101A5000BF93EF93FF930E946B0C882329F0809132
:101A600061018F5F80936101FF91EF91BF91AF9111
:101A70009F918F917F916F915F914F913F912F91A6
:101A80000F900FBE0F901F90189585E098E09093EF
:101A90008D0080938C0062E081E00E94720460E01F
:101AA00081E00E94640441E060E081E00C949E04C7
:101AB00086E00E9455040E94410486E00E942504AD
:101AC0000E94450D0E94CD0480E00E94B0040E9457
:101AD0002D060E943304C1E00E942E04811152C0E1
:101AE0000E942B0490937201809371010E94330431
:101AF00040910301423020F041504093030142C025
:101B0000209171013091720180916D0190916E016F
:101B1000A0916F01B0917001413079F410920301EE
:101B2000820F931FA11DB11D80936D0190936E01D3
:101B3000A0936F01B093700125C0821B930BA10984
:101B4000B10980936D0190936E01A0936F01B093E2
:101B50007001B7FF07C0B095A095909581959F4FF4
:101B6000AF4FBF4F4097A105B10514F00E94290A5D
:101B700010926D0110926E0110926F01109270011F
:101B8000C0930301D0916101D37080916C01D8138F
:101B90000E947A0BD0936C010E9451059DCF991B36
:101BA00079E004C0991F961708F0961B881F7A9554
:101BB000C9F780950895AA1BBB1B51E107C0AA1F56
:101BC000BB1FA617B70710F0A61BB70B881F991FDE
:101BD0005A95A9F780959095BC01CD01089597FB82
:101BE000072E16F4009407D077FD09D00E94DB0D74
:101BF00007FC05D03EF4909581959F4F0895709510
:101C000061957F4F0895EE0FFF1F0590F491E02D31
:061C10000994F894FFCFD7
:101C1600019C006406014E0200008A0101A6020032
:101C2600008E0206F6020000E602043E03000036BD
:101C36000302860300007E0301860300008203017F
:101C4600CA030000C603010E0400000A04015A0478
:101C560000004E04034E024E020E020E02CE01CECC
:021C660001007B
:00000001FF
