:1000000067C481C480C47FC47EC47DC47CC47BC4F7
:100010007AC479C478C477C476C475C4F4C973C487
:1000200072C471C470C4000092012403B60448066F
:10003000D9076A09FB0A8C0C1C0EAB0F3A11C812C7
:100040005514E2156E17F918821A0B1C931D1A1F0E
:100050009F202322A6232825A8262628A3291F2B54
:10006000992C112E872FFB306E32DF334D35BA3687
:1000700024388C39F23A563CB83D173F7340CE4194
:1000800025437A44CD451C476948B449FB4A3F4C57
:10009000814DBF4EFB4F335168529B53C954F555A8
:1000A0001D5742586459825A9C5BB35CC75DD75E4A
:1000B000E35FEB60F061F162EE63E864DD65CF66FB
:1000C000BC67A6688B696D6A4A6B236CF86CC96D56
:1000D000966E5E6F2270E2709D7154720773B573F5
:1000E0005F740475A5754176D8766B77FA77847856
:1000F00009798979057A7C7AEE7A5C7BC57B297CE3
:10010000887CE37C397D897DD57D1D7E5F7E9C7EEC
:10011000D57E097F377F617F867FA67FC17FD87FAD
:10012000E97FF57FFD7FFF7F4C434464697265631F
:10013000744C564453353920323031332D31322D01
:1001400031322030303A35333A323200000C363614
:100150000C001C0618060000000000601E0C1E1E8D
:10016000383F1C3F1E1E00001800061E3E0C3F3C80
:100170003F7F7F3C331E78670F63631C3F1E3F1E2B
:100180003F33336363337F1E031E08000C000700F8
:1001900038001C00070C18070E00000000000000CB
:1001A000080000000000003818076E001E36363EBA
:1001B0006336060C0C660C00000030330F33333C02
:1001C000030633333300000C000C33631E666636BF
:1001D000464666330C306606776736663366332DDF
:1001E0003333636333330606181C000C00060030FB
:1001F000003600060000060C000000000000000CA5
:100200000000000000000C180C3B001E367F03337A
:100210001C0306183C0C000000183B0C3030361F45
:10022000033033330C0C063F18307B3366036616FD
:100230001603330C3036067F6F63663366070C3364
:100240003363363319060C183600181E3E1E301E56
:10025000066E360E1E660C371F1E3B6E1B3E3E336F
:10026000336363333F0C180C00000C00361E186E0D
:10027000000618FF3F003F000C3F0C1C1C33301FD2
:10028000181E3E0C0C030030187B333E03661E1E06
:10029000033F0C301E066B7B633E333E1C0C333336
:1002A0006B1C1E0C0618186300003066333E330FBB
:1002B000336E0C18360C7F3333663336030C33330E
:1002C0006336331907003800000C007F300C3B0008
:1002D00006183C0C00000006370C06307F30330C4B
:1002E00033300000063F180C7B3F6603661616731A
:1002F000330C333646637363063B1E380C33337F4F
:10030000360C460630180000003E6603333F0633C5
:10031000660C181E0C6B33336633361E0C33336B8E
:100320001C330C0C180C00000000361F6633000C48
:100330000C660C0E000C03330C33333033330633AE
:10034000180C0E0C000C0003336666364606663346
:100350000C336666636336061E36330C331E7763D2
:100360000C630660180000003366333303063E66F4
:100370000C18360C6333333E3E06302C331E7F366A
:100380003E260C180C00000C00360C636E0018069C
:1003900000000C000C011E3F3F1E301E1E061E0EEC
:1003A0000C0C1800060C1E333F3C3F7F0F7C331EA5
:1003B0001E677F63631C0F38671E1E3F0C63631E3E
:1003C0007F1E401E0000006E3D1E6E1E0F30671E19
:1003D0001B671E63331E06300F1F186E0C3663300A
:1003E0003F38180700000000000000000000000077
:1003F00000060000000000000000000000000000F7
:1004000006000000000000000000000000000000E6
:1004100000000000000000000000000000000000DC
:1004200000000000FF000000000000001F00000EA0
:1004300000000000000F78000000000000001F0016
:1004400000000000F0002222F0002222600C640272
:10045000600C6402C006408CC006408CE004C404FA
:10046000E4006404E0084C04E2004406E002440CAA
:10047000E80046046006600660066006C0C0C0C0B2
:10048000C0000000000000C0C0C0C0C0C0C0C000AC
:10049000000F0F0F0F0F0F0000C0C0C0C0C0000042
:1004A0000F0F0F0F0F0F0F0F0000C0C0C000000F85
:1004B0000F0F0F0F0F0F0F0F0F0000C0C0000F0F17
:1004C0000F000F0F0F0F000F0F0F00C0000F0F0FC7
:1004D0000000000F0F0000000F0F0F00000F0F0FA4
:1004E0000F000F0F0F0F000F0F0F0F00000F0F0F58
:1004F0000F0F0F0F0F0F0F0F0F0F0F00000F0F0F2A
:100500000F0F0F0F0F0F0F0F0F0F0F00000F0F0028
:10051000000F0F0F0F0F0F00000F0F00000F0F0F36
:1005200000000F0F0F0F00000F0F0F00C0000F0F84
:100530000F0000000000000F0F0F00C0C000000FF0
:100540000F0F0F0F0F0F0F0F0F0000C0C0C00000E4
:100550000F0F0F0F0F0F0F0F0000C0C0C0C0C00063
:10056000000F0F0F0F0F0F0000C0C0C0C0C0C0C0F1
:10057000C0000000000000C0C0C0C0C0C0C0C0C0FB
:10058000C0000000000000C0C0C0C0C0C0C0C000AB
:10059000000F0F0F0F0F0F0000C0C0C0C0C0000041
:1005A0000F0F0F0F0F0F0F0F0000C0C0C000000F84
:1005B0000F0F0F0F0F0F0F0F0F0000C0C0000F0F16
:1005C0000F000F0F0F0F0F0F0F0F00C0000F0F0FB7
:1005D0000000000F0F000F0F0F0F0F00000F0F0F85
:1005E0000F000F0F0F0F00000F0F0F00000F0F0F66
:1005F0000F0F0F0F0F0F0F0F0F0F0F00000F0F0F29
:100600000F0F0F0F0F0F0F0F0F0F0F00000F0F0027
:10061000000F0F0F0F0F0F00000F0F00000F0F0F35
:1006200000000F0F0F0F00000F0F0F00C0000F0F83
:100630000F0000000000000F0F0F00C0C000000FEF
:100640000F0F00030003000F0F0000C0C0C0000028
:100650000F0F00030303000F0000C0C0C0C0C000A4
:10066000000F0F0000000F0000C0C0C0C0C0C0C01D
:10067000C0000000000000C0C0C0C0C000000000FA
:1006800000400100005005000054150000941700C0
:1006900000655D0000655D0000655D0000655D0052
:1006A00000655D0000655D000094170000541500B2
:1006B00000500500004001000000000025072F0247
:1006C000550550555501405555000055150000542D
:1006D000C503C053010EB04001FEBF40002EB8005C
:1006E000002AA8000000000001A82A4055AAAA5527
:1006F00055AAAA5FD5ABFA7FD5AFFE7F55BFFF5F86
:1007000002352700005555005055550554AAAA1525
:10071000A5FEBF5AA5FEBF5A54AAAA1550555505A5
:10072000005555000040010015400154544001158A
:10073000544141155045510550455105405555010D
:100740000050050025040000252F0704251702008E
:10075000250705020040010000400100005005008F
:100760000050050000541500545555155465591591
:100770005065590540655901005555000055550013
:100780004055550140555501401554015001400553
:10079000500000052507020025020000005005005A
:1007A000005429000055AA004055AA025055A90539
:1007B000945A5515A46A5515A56A555AA56A556ADD
:1007C000955A556955555555A4FEBF1A00FFFF00AF
:1007D00000FFDF0000FFDF0000FC37002507022FCD
:1007E0002507042F000000000000000000000000AA
:1007F00000000000000000000000000000000000F9
:100800000050050040555501D45FF517A5FAAF5AC1
:100810005555555580AAAA0280AAAA02F00FF03FAA
:100820000000000025022700FCFFFF3F575555D56B
:10083000775555DD575555D5575555D5575555D538
:10084000575555D5575555D5575555D5575555D550
:10085000575555D5575555D5575555D5775555DD18
:10086000575555D5FCFFFF3F25020000545555153F
:10087000A9AAAAEAB9AAAAEEA956A5EAA9F597EAE9
:10088000A9B5D6EAA9B5D6EAA9BED5EAA96AFDEA0C
:10089000A96AADEAA9AAAFEAA96AA9EAA96AADEA72
:1008A000B9AAAFEEA9AAAAEAFFFFFFFF2502070037
:1008B00025020200250201004546476566670020C3
:1008C0002B2D2E303132333435363738396800002D
:1008D00011241FBECFE5D2E0DEBFCDBF10E0A0E601
:1008E000B0E0E4EBFBE102C005900D92A03BB10744
:1008F000D9F711E0A0EBB0E001C01D92A63DB10711
:10090000E1F771D555C97CCB97B18F71907E892B5A
:1009100087B9089586B1807411F081E00895369A00
:1009200080E008953E983F983D98379A3598349ADC
:10093000339886B1876086B987B18F6187B9EADF5E
:1009400086B18074E9F7089524B135B1C9010895DD
:1009500086B18295869586958170089596B1877047
:10096000987F892B86B90895833080F0873010F402
:100970008F5F0CC092B1835021E030E002C0220FA3
:10098000331F8A95E2F7922B92B9089591B121E035
:1009900030E002C0220F331F8A95E2F7922B91B903
:1009A0000895823028F5663081F0673028F4662398
:1009B00051F06330E9F405C0683049F06A30C1F4A1
:1009C00008C092E007C091E005C093E003C094E046
:1009D00001C095E09770813029F083B7887F892B1B
:1009E00083BF04C08FB5887F892B8FBD80E00895B9
:1009F00081E008956430F0F4882319F08130D1F457
:100A00000AC0862F8170B1F4627011F0A89A01C0FB
:100A1000A89885B30DC0613019F486B5816002C015
:100A200086B58E7F86BD86B586B58D7F86BD86B53B
:100A300080E0089581E008950F931F93182F062FEB
:100A4000642FD8DF882311F0806105C0812F602FCB
:100A5000A8DF811180621F910F910895843010F0FA
:100A600081E00895623010F082E00895442311F08F
:100A700041E0F8948295807F860F8130A1F081302B
:100A800030F08031E1F0813131F183E00895442389
:100A900019F089B7806102C089B78F7E89BF89B795
:100AA00088B7806123C0442319F089B7886002C0E9
:100AB00089B7877F89BF89B788B7886017C0442303
:100AC00019F089B7806402C089B78F7B89BF89B765
:100AD00088B780640BC0442319F089B7806202C0D4
:100AE00089B78F7D89BF89B788B7806288BF442363
:100AF00011F480E00895789480E00895FC01448327
:100B00008481861710F0658302C0848185831182F9
:100B10001082138212820895FC018481861710F0DE
:100B2000658302C0848185831182108213821282C0
:100B30000895FC01828193812581820F911D938309
:100B4000828322813381808191818217930710F003
:100B500080E008C0808191812481820F911D918362
:100B6000808381E040815181228133814217530784
:100B700021F41182108213821282089560E072E0E3
:100B800036D797FF02C080509E4F8038910544F4BD
:100B9000FC01EE0FFF1FEA5DFF4F2591349129C044
:100BA0008F3F910509F05CF4E0E0F1E0E81BF90B00
:100BB000EE0FFF1FEA5DFF4F259134911AC021E02F
:100BC0008038920744F4FC01EE0FFF1FEA5DF1400C
:100BD000859194910AC0E0E0F2E0E81BF90BEE0F7A
:100BE000FF1FEA5DFF4F8591949122273327281B31
:100BF000390BC901089560E072E0F9D69C0137FF16
:100C000002C020503E4F203831053CF4F901EE0F70
:100C1000FF1FE95DFF4F849108952F3F310509F0D3
:100C200054F4E0E0F1E0E21BF30BEE0FFF1FE95D8F
:100C3000FF4F8491089581E02038380744F4F9018A
:100C4000EE0FFF1FE95DF140849181950895E0E08A
:100C5000F2E0E21BF30BEE0FFF1FE95DFF4F849103
:100C600081950895E82FF0E0EE0FFF1FEE0FFF1FB4
:100C7000EE53FF4F862F90E063E070E086D6208130
:100C800031814281538104C0569547953795279508
:100C90008A95D2F7822F877008950F931F93E82FBC
:100CA000F0E0862F90E063E070E06FD6A82FEE0FA3
:100CB000FF1FEE0FFF1FEE53FF4F67E070E080E075
:100CC00090E00A2E04C0660F771F881F991F0A94B0
:100CD000D2F7609570958095909500811181228161
:100CE00033816023712382239323242F30E040E05B
:100CF00050E004C0220F331F441F551FAA95D2F79E
:100D0000622B732B842B952B608371838283938357
:100D10001F910F9108950F931F93E2ECF0E0119251
:100D200011921192119291E0EA30F907C1F712E1A4
:100D3000181B0BC000E0402F410F4770812F602F20
:100D4000ACDF0F5F0A30B9F71F5F123198F31F91C4
:100D50000F9108952F923F924F925F926F927F92E0
:100D60008F929F92AF92BF92CF92DF92EF92FF92BB
:100D70000F931F93DF93CF9300D0CDB7DEB7809151
:100D8000C000853021F41092C00080E0C4DF3090B4
:100D9000B1004091B3002090B2005091C100852F66
:100DA00090E0837090708230910531F4232D2F5F95
:100DB000243009F0E0C0DEC0009719F4342F3F5F03
:100DC00005C08330910509F42394342F232D5F5FF0
:100DD0005093C1008091B00090E0880F991F880F58
:100DE000991F820F911D880F991F8C5B9B4F122DAD
:100DF0001D5FA0E0B3E0FC01C590D49036C0CF01E8
:100E00008E0D9F1D260102C0569447948A95E2F7E5
:100E100040FE1AC01231F8F40A30F8F4802F90E046
:100E200063E070E0B2D52401350104C07694679484
:100E3000579447948A95D2F7842D877029F023150B
:100E400061F4341751F407C031960F5FE430F105B7
:100E5000B1F680E004C081E001C080E0A1E0B150C3
:100E60001150BF3FD9F08823C9F4AA2309F085C0E7
:100E7000EB2EFF24EE0CFF1CEE0CFF1CE12FF0E02C
:100E8000EE0FFF1FEE0FFF1FEE53FF4F808091808C
:100E9000A280B380032FE0E0F0E0B1CFAA2331F4C9
:100EA0002093B1003093B3002092B200882309F45C
:100EB00064C08091B200882309F045C08091B300DE
:100EC000833009F040C08091B100882309F03BC015
:100ED0008091C0008F5F8093C00035C04091B0000A
:100EE000E42FF0E0EE0FFF1FEE0FFF1F8091B10027
:100EF000E80FF11DEE0FFF1FEC5BFB4F8591949106
:100F0000B701620F731F02C0969587956A95E2F745
:100F100080FF0CC08091B2006091B3006E0D4F5FF6
:100F2000810F29833A83B9DE3A8129810894E11C33
:100F3000F11C64E0E616F10489F61F5F2C5F3F4F59
:100F4000143021F406C020E030E010E0EE24FF244D
:100F5000C5CF8091B0008F5F8093B000873011F4CF
:100F60001092B00083E08093B3001092B200109210
:100F7000B10003C020E0342F2ACF0F900F90CF9103
:100F8000DF911F910F91FF90EF90DF90CF90BF9076
:100F9000AF909F908F907F906F905F904F903F9019
:100FA0002F9008958823A9F09091B4008150923039
:100FB00038F4873068F4E82FF0E0EF55FF4F06C0B3
:100FC000873030F4E82FF0E0E855FF4F8081089536
:100FD0008FE308951092B50086E080930A0183E6BE
:100FE00080930B0108958091B5008334F8F4E82FC5
:100FF000F0E0EE0FFF1FE65FFE4F9081987FF1F06B
:101000008F5F8093B500A82FB0E0FD01EE0FFF1FAA
:10101000E65FFE4FAA0FBB1FA85FBE4F8C91877083
:10102000808311968C91119781830895833431F4D4
:1010300087E08093900183E7809391010895209148
:10104000B500562F586F15C0233419F42093B500FE
:101050001BC0222321F430910A01387F09F02F5F51
:10106000E22FF0E0EE0FFF1FE65FFE4F508341835B
:101070004F978F31910540F72093B500009711F4F9
:1010800080E00895233419F4AEDF81E0089522232F
:1010900021F430910A01387F19F02F5F2093B500B9
:1010A000E091B500F0E0EE0FFF1FE65FFE4F880F06
:1010B000880F880F862B8083418380E00895E0911C
:1010C000B500F0E0DF01AA0FBB1FA65FBE4F2C9159
:1010D000009711F1422F4695469546954F3198F469
:1010E0003FE1341B432F50E04817590738F0880F71
:1010F000880F880F820F8C9380E00895286F2C93BF
:10110000841B950B49F0EE0FFF1FE65FFE4F6081D9
:101110006770418194DF089580E00895E091B50003
:10112000EE2311F48CDF0895F0E0EE0FFF1FE65F71
:10113000FE4F208130E027703070A62FB0E02A17D4
:101140003B0729F42181241711F4B9DF089577DFD3
:1011500008951F93182F842F662359F41092BF000F
:101160001092B50096E090930A0193E690930B01DC
:101170000BC09091B500992339F09091BF001917D9
:1011800019F490E09CDF16C0612F70E06C717070F4
:101190007595679575956795212F229526952770EA
:1011A0002295207F912F9370292B90E0422F47DFCB
:1011B0001093BF001F910895682F70E0837090E036
:1011C0009C0121703070880F991F282B392B220F1A
:1011D000331F220F331F2068AB0140735070440F40
:1011E000551F242BCB018C70907095958795959504
:1011F0008795822B089589B5826089BD88EC90E03F
:101200000197F1F701C0000009B400FEFCCF89B5D9
:10121000846089BD089586E08BBD83E08CBD8FEF2F
:1012200081BFE9DF8FB5807F84608FBD8FB580631C
:101230008FBD80B7826080BF80B7816080BF87B577
:10124000816087BDB99ABA9ABB9ABD9A86B58C7FE0
:1012500086BD89E087BD83E680BF80E384BD84E0EE
:101260008DBD089580E384BD84E08DBD08952091F7
:10127000B6008091B700882339F01DBC8FEA90E05A
:101280000197F1F785E007C083E08DBD8FEA90E01C
:101290000197F1F784E08DBD88E590E00197F1F7C3
:1012A000222309F42DC083E580BFEAE0F1E04191FB
:1012B000542F57706191762F6F7072957F705ABD61
:1012C00064BD7DBD487FA9F000000000485079F35F
:1012D000000000000000000000000000000000000E
:1012E00000000000000000000000000000000000FE
:1012F000EDCF83E680BF14BC86E08DBD80E384BD66
:101300008091B8009091B90001969093B9008093B4
:10131000B80083329105C1F08432910520F4833006
:101320009105E1F408C086329105A9F023E08632E8
:101330009207A1F415C01092B60081E08093B70027
:1013400080E484BD85E005C01092B70080E384BDD1
:1013500084E08DBD03C081E08093B60080E00895F5
:101360001092B6001092B9001092B80081E0089572
:10137000DC01822F8695869550E0440F551F440F5F
:10138000551F480F511D8D919C911197840F951FEA
:10139000FC01449150E030E023703070220F331F85
:1013A00002C0559547952A95E2F74370507070E05A
:1013B000660F771F660F771F460F571F1496ED9124
:1013C000FC911597E40FF51F8491089583EE83BB7C
:1013D00080E062E00FDB80E068E0E3DA80E060E07C
:1013E00041E03CDB089587E096DCF0DF14DF80917C
:1013F000BA00882339F489B78071E9F760E041E0E9
:101400002DDBF5CFFFCF1F920F920FB60F92112455
:101410002F923F924F925F926F927F929F92AF92E4
:10142000BF92CF92DF92EF92FF920F931F932F9371
:101430003F934F935F936F937F938F939F93AF935C
:10144000BF93EF93FF93DF93CF93CDB7DEB727978B
:10145000DEBFCDBF0CDF882369F08091BB008F5FBA
:101460008093BB00823031F41092BB0080E060E0DA
:1014700040E0F4DA0091B8001091B9000352104036
:1014800023E00030120708F04CC1B898C09A1092BF
:10149000B50086E080930A0183E680930B015E012C
:1014A0000894A11CB11CC50161E045E027DBC8011F
:1014B00024E0880F991F2A95E1F760E073E083D25A
:1014C000E62EFF24BAE96B2EB0E07B2EA3E9CA2EEC
:1014D000A0E0DA2EF9E64F2EF0E05F2EEEE72E2E9A
:1014E000E0E03E2E7FE0972EC501BA2CA92EB099E0
:1014F00020C08091BC009091BD00009771F41093C2
:10150000BD000093BC0001151105B1F481E090E02D
:101510009093BD008093BC0015C09801281B390B27
:101520002034310530F08050904C9093BD00809372
:10153000BC000115110531F08091BC009091BD00F7
:1015400097FF86C08091BC009091BD0097FD10C0B0
:10155000809160009091610020E08A39920741F00B
:1015600040E08936940721F01092BD001092BC0033
:101570008091BC009091BD00009709F441C020917A
:1015800060003091610040E02936340739F48091E1
:10159000BE008130A9F58CE890E02EC01092BE000C
:1015A00001976CE070E00FD282309105B1F083308A
:1015B000910530F4009759F081309105D9F40AC0B3
:1015C0008330910579F084309105A1F40EC080E755
:1015D00090E012C085E890E00FC030926100209248
:1015E00060000EC087E790E007C050926100409213
:1015F000600006C082E690E09093610080936000F6
:10160000809160009091610020E08236920729F479
:101610008091BE00823078F417C040E08A39940788
:1016200099F02091BE00243078F01092BE0020E0A6
:101630008339920729F0D0926100C092600004C003
:1016400070926100609260001092BD001092BC0028
:10165000E0916000F091610040E0E037F40791F420
:1016600087E08E1560F06091760070E06150704008
:101670008091BE0090E0BBD1682F6F5F17C0CF0193
:1016800060E015C08091BE0090E0E936F90759F49A
:1016900080FD02C02F2D02C0292D2F1989E690E070
:1016A00060E04E2D06C0668182D1692FCF014E2D9C
:1016B0002F2D5EDE482F90E0807390708032910570
:1016C0000CF0405F8B2D9A2D4F8333DA4F81242FFE
:1016D00030E090E0F901E370F070EE0FFF1F642F2F
:1016E00061706E2B407340642C7030703595279577
:1016F00035952795422B469611DDF39420E1F2169D
:1017000009F0F5CE42E00F3F140729F48091BE00A6
:101710008F5F8093BE0081E090E067E043E7FEDCEE
:1017200062DC2796DEBFCDBFCF91DF91FF91EF91B5
:10173000BF91AF919F918F917F916F915F914F91E9
:101740003F912F911F910F91FF90EF90DF90CF90DD
:10175000BF90AF909F907F906F905F904F903F9021
:101760002F900F900FBE0F901F901895ABE0B0E038
:10177000EBEBFBE053C16C014B017A01FC011782DA
:101780001682838181FD08C02FEF3FEFFAC022E06F
:1017900030E0E20EF31E04C05E010894A11CB11CEF
:1017A000F6017380F40173FC859173FE81914F0102
:1017B000882309F4E3C0853251F473FC059173FE6C
:1017C00001914F01053211F010E01AC085E290E05E
:1017D00029C0002309F4D2C08FEB98E0602F70E09D
:1017E00050D1009739F4033211F4106103C00C3664
:1017F00061F41068F40173FC059173FE01914F01CF
:1018000017FFE7CF002309F4B9C088EB98E0602FF9
:1018100070E037D1009749F024E030E0E20EF31E8B
:101820008FE390E0B60138D1BBCF033629F0033700
:1018300071F00335E1F40AC087010E5F1F4FF70115
:1018400080819181B60128D17801AACF1160F7017A
:101850006080718003C090E0B6011ED1F30110FDDD
:10186000859110FF81913F018823A9F790CF04361D
:1018700011F0093629F517FF08C0F7016081718161
:101880008281938124E030E00AC0F7012081318118
:10189000B901882777FD8095982F22E030E0E20E8D
:1018A000F31E1F7E97FF08C09095809570956195F7
:1018B0007F4F8F4F9F4F1064A5012AE030E033C067
:1018C0000037A9F0013730F40835B1F00F3609F0D0
:1018D00055C006C0053739F0083709F04FC008C0B9
:1018E00028E030E00CC01F7E2AE030E008C0106124
:1018F000146220E130E003C0146020E132E017FF01
:1019000008C0F701608171818281938144E050E0D9
:1019100007C0F7016081718180E090E042E050E013
:10192000E40EF51EA501E4D0082F0A19612E7724D4
:1019300016FF04C08DE290E0B601AED064FE13C085
:10194000FE01E00FF11D8081803369F080E390E0BB
:10195000B601A2D062FE07C0C30180729070885A9F
:101960009F4FB60199D00150F501E00FF11D808124
:1019700090E0B60191D00023B1F712CFF601268195
:101980003781C9012B96EEE065C05527002480FF02
:1019900002C0060E571F660F771F6115710521F0F3
:1019A00096958795009799F7952F802D0895991B07
:1019B00079E004C0991F961708F0961B881F7A9546
:1019C000C9F780950895AA1BBB1B51E107C0AA1F48
:1019D000BB1FA617B70710F0A61BB70B881F991FD0
:1019E0005A95A9F780959095BC01CD01089597FB74
:1019F000092E07260AD077FD04D0E5DF06D00020A7
:101A00001AF4709561957F4F0895F6F7909581953A
:101A10009F4F08952F923F924F925F926F927F92C5
:101A20008F929F92AF92BF92CF92DF92EF92FF92EE
:101A30000F931F93CF93DF93CDB7DEB7CA1BDB0B9A
:101A40000FB6F894DEBF0FBECDBF09942A8839883F
:101A500048885F846E847D848C849B84AA84B98446
:101A6000C884DF80EE80FD800C811B81AA81B98152
:101A7000CE0FD11D0FB6F894DEBF0FBECDBFED0166
:101A80000895FC010590061621F00020D9F7C00149
:101A900008953197CF0108950F931F93CF93DF934C
:101AA0008C01EB018B8181FF1BC082FF0DC02E8159
:101AB0003F818C819D812817390764F4E881F98181
:101AC0000193F983E88306C0E885F985802F09959D
:101AD000009731F48E819F8101969F838E8302C08F
:101AE0000FEF1FEFC801DF91CF911F910F91089564
:101AF000FA01AA27283061F1203191F1E8946F931F
:101B00006E7F6E5F7F4F8F4F9F4FAF4FB1E040D0E2
:101B1000B4E03ED0670F781F891F9A1FA11D680F80
:101B2000791F8A1F911DA11D6A0F711D811D911DB5
:101B3000A11D22D009F468943F91062E000C3019A3
:101B4000000C000C3019305D3193CEF6CF010895B2
:101B5000462F4770405D4193B3E00FD0C9F7F6CFF1
:101B6000462F4F70405D4A3318F0495D31FD4052B9
:101B7000419302D0A9F7EACFB4E0A695979587954F
:101B800077956795BA95C9F700976105710508952E
:101B90009B01AC010A2E06945795479537952795DA
:101BA000BA95C9F7620F731F841F951FA01D089572
:041BB000F894FFCFD7
:101BB4009A007C060000BC0601C006000000070174
:101BC40004070000440704540700009407029C071C
:101BD4000000DC07019C070000E00701E4070000A7
:101BE400240801280800006808016C080000AC08FB
:101BF4000303070F0C3C30330104101411051500C6
:00000001FF
