:1000000049C363C362C361C360C35FC35EC35DC3EF
:100010005CC35BC35AC359C358C357C3BFC955C395
:1000200054C353C352C3000092012403B6044806CC
:10003000D9076A09FB0A8C0C1C0EAB0F3A11C812C7
:100040005514E2156E17F918821A0B1C931D1A1F0E
:100050009F202322A6232825A8262628A3291F2B54
:10006000992C112E872FFB306E32DF334D35BA3687
:1000700024388C39F23A563CB83D173F7340CE4194
:1000800025437A44CD451C476948B449FB4A3F4C57
:10009000814DBF4EFB4F335168529B53C954F555A8
:1000A0001D5742586459825A9C5BB35CC75DD75E4A
:1000B000E35FEB60F061F162EE63E864DD65CF66FB
:1000C000BC67A6688B696D6A4A6B236CF86CC96D56
:1000D000966E5E6F2270E2709D7154720773B573F5
:1000E0005F740475A5754176D8766B77FA77847856
:1000F00009798979057A7C7AEE7A5C7BC57B297CE3
:10010000887CE37C397D897DD57D1D7E5F7E9C7EEC
:10011000D57E097F377F617F867FA67FC17FD87FAD
:10012000E97FF57FFD7FFF7F4C434464697265631F
:10013000744C564453353920323031332D31322D01
:1001400031312032323A30313A343000000C363618
:100150000C001C0618060000000000601E0C1E1E8D
:10016000383F1C3F1E1E00001800061E3E0C3F3C80
:100170003F7F7F3C331E78670F63631C3F1E3F1E2B
:100180003F33336363337F1E031E08000C000700F8
:1001900038001C00070C18070E00000000000000CB
:1001A000080000000000003818076E001E36363EBA
:1001B0006336060C0C660C00000030330F33333C02
:1001C000030633333300000C000C33631E666636BF
:1001D000464666330C306606776736663366332DDF
:1001E0003333636333330606181C000C00060030FB
:1001F000003600060000060C000000000000000CA5
:100200000000000000000C180C3B001E367F03337A
:100210001C0306183C0C000000183B0C3030361F45
:10022000033033330C0C063F18307B3366036616FD
:100230001603330C3036067F6F63663366070C3364
:100240003363363319060C183600181E3E1E301E56
:10025000066E360E1E660C371F1E3B6E1B3E3E336F
:10026000336363333F0C180C00000C00361E186E0D
:10027000000618FF3F003F000C3F0C1C1C33301FD2
:10028000181E3E0C0C030030187B333E03661E1E06
:10029000033F0C301E066B7B633E333E1C0C333336
:1002A0006B1C1E0C0618186300003066333E330FBB
:1002B000336E0C18360C7F3333663336030C33330E
:1002C0006336331907003800000C007F300C3B0008
:1002D00006183C0C00000006370C06307F30330C4B
:1002E00033300000063F180C7B3F6603661616731A
:1002F000330C333646637363063B1E380C33337F4F
:10030000360C460630180000003E6603333F0633C5
:10031000660C181E0C6B33336633361E0C33336B8E
:100320001C330C0C180C00000000361F6633000C48
:100330000C660C0E000C03330C33333033330633AE
:10034000180C0E0C000C0003336666364606663346
:100350000C336666636336061E36330C331E7763D2
:100360000C630660180000003366333303063E66F4
:100370000C18360C6333333E3E06302C331E7F366A
:100380003E260C180C00000C00360C636E0018069C
:1003900000000C000C011E3F3F1E301E1E061E0EEC
:1003A0000C0C1800060C1E333F3C3F7F0F7C331EA5
:1003B0001E677F63631C0F38671E1E3F0C63631E3E
:1003C0007F1E401E0000006E3D1E6E1E0F30671E19
:1003D0001B671E63331E06300F1F186E0C3663300A
:1003E0003F38180700000000000000000000000077
:1003F00000060000000000000000000000000000F7
:1004000006000000000000000000000000000000E6
:1004100000000000000000000000000000000000DC
:1004200000000000FF000000000000001F00000EA0
:1004300000000000000F78000000000000001F0016
:1004400000000000F0002222F0002222600C640272
:10045000600C6402C006408CC006408CE004C404FA
:10046000E4006404E0084C04E2004406E002440CAA
:10047000E80046046006600660066006C0C0C0C0B2
:10048000C0000000000000C0C0C0C0C0C0C0C000AC
:10049000000F0F0F0F0F0F0000C0C0C0C0C0000042
:1004A0000F0F0F0F0F0F0F0F0000C0C0C000000F85
:1004B0000F0F0F0F0F0F0F0F0F0000C0C0000F0F17
:1004C0000F000F0F0F0F000F0F0F00C0000F0F0FC7
:1004D0000000000F0F0000000F0F0F00000F0F0FA4
:1004E0000F000F0F0F0F000F0F0F0F00000F0F0F58
:1004F0000F0F0F0F0F0F0F0F0F0F0F00000F0F0F2A
:100500000F0F0F0F0F0F0F0F0F0F0F00000F0F0028
:10051000000F0F0F0F0F0F00000F0F00000F0F0F36
:1005200000000F0F0F0F00000F0F0F00C0000F0F84
:100530000F0000000000000F0F0F00C0C000000FF0
:100540000F0F0F0F0F0F0F0F0F0000C0C0C00000E4
:100550000F0F0F0F0F0F0F0F0000C0C0C0C0C00063
:10056000000F0F0F0F0F0F0000C0C0C0C0C0C0C0F1
:10057000C0000000000000C0C0C0C0C0C0C0C0C0FB
:10058000C0000000000000C0C0C0C0C0C0C0C000AB
:10059000000F0F0F0F0F0F0000C0C0C0C0C0000041
:1005A0000F0F0F0F0F0F0F0F0000C0C0C000000F84
:1005B0000F0F0F0F0F0F0F0F0F0000C0C0000F0F16
:1005C0000F000F0F0F0F0F0F0F0F00C0000F0F0FB7
:1005D0000000000F0F000F0F0F0F0F00000F0F0F85
:1005E0000F000F0F0F0F00000F0F0F00000F0F0F66
:1005F0000F0F0F0F0F0F0F0F0F0F0F00000F0F0F29
:100600000F0F0F0F0F0F0F0F0F0F0F00000F0F0027
:10061000000F0F0F0F0F0F00000F0F00000F0F0F35
:1006200000000F0F0F0F00000F0F0F00C0000F0F83
:100630000F0000000000000F0F0F00C0C000000FEF
:100640000F0F00030003000F0F0000C0C0C0000028
:100650000F0F00030303000F0000C0C0C0C0C000A4
:10066000000F0F0000000F0000C0C0C0C0C0C0C01D
:10067000C0000000000000C0C0C0C0C045464765C3
:10068000666700202B2D2E30313233343536373823
:100690003968000011241FBECFE5D2E0DEBFCDBF18
:1006A00010E0A0E6B0E0E2E8FEE102C005900D92A5
:1006B000A03AB107D9F712E0A0EAB0E001C01D925C
:1006C000AC34B107E1F751D6DACB9ACC97B18F7140
:1006D000907E892B87B9089586B1807411F081E0EE
:1006E0000895369A80E008953E983F983D98379A4D
:1006F0003598349A339886B1876086B987B18F610F
:1007000087B9EADF86B18074E9F7089524B135B17D
:10071000C901089586B18295869586958170089560
:1007200096B18770987F892B86B90895833080F0C1
:10073000873010F48F5F0CC092B1835021E030E01D
:1007400002C0220F331F8A95E2F7922B92B90895C7
:1007500091B121E030E002C0220F331F8A95E2F709
:10076000922B91B90895823028F5663081F0673078
:1007700028F4662351F06330E9F405C0683049F08D
:100780006A30C1F408C092E007C091E005C093E070
:1007900003C094E001C095E09770813029F083B7E1
:1007A000887F892B83BF04C08FB5887F892B8FBD3D
:1007B00080E0089581E008956430F0F4882319F012
:1007C0008130D1F40AC0862F8170B1F4627011F0CB
:1007D000A89A01C0A89885B30DC0613019F486B5F8
:1007E000816002C086B58E7F86BD86B586B58D7F59
:1007F00086BD86B580E0089581E008950F931F932C
:10080000182F062F642FD8DF882311F0806105C0D0
:10081000812F602FA8DF811180621F910F910895B1
:10082000843010F081E00895623010F082E0089585
:10083000442311F041E0F8948295807F860F813047
:10084000A1F0813030F08031E1F0813131F183E08D
:100850000895442319F089B7806102C089B78F7E5B
:1008600089BF89B788B7806123C0442319F089B74D
:10087000886002C089B7877F89BF89B788B78860D9
:1008800017C0442319F089B7806402C089B78F7BF1
:1008900089BF89B788B780640BC0442319F089B732
:1008A000806202C089B78F7D89BF89B788B78062AF
:1008B00088BF442311F480E00895789480E008957F
:1008C000FC0144838481861710F0658302C0848113
:1008D000858311821082138212820895FC01848123
:1008E000861710F0658302C084818583118210828F
:1008F000138212820895FC01828193812581820FE7
:10090000911D93838283228133818081918182171B
:10091000930710F080E008C0808191812481820FCC
:10092000911D9183808381E04081518122813381B7
:100930004217530721F41182108213821282089504
:1009400060E072E085D997FF02C080509E4F8038EA
:10095000910544F4FC01EE0FFF1FEA5DFF4F259166
:10096000349129C08F3F910509F05CF4E0E0F1E09B
:10097000E81BF90BEE0FFF1FEA5DFF4F2591349145
:100980001AC021E08038920744F4FC01EE0FFF1FEB
:10099000EA5DF140859194910AC0E0E0F2E0E81B45
:1009A000F90BEE0FFF1FEA5DFF4F8591949122270F
:1009B0003327281B390BC901089560E072E048D93C
:1009C0009C0137FF02C020503E4F203831053CF4D7
:1009D000F901EE0FFF1FE95DFF4F849108952F3F4E
:1009E000310509F054F4E0E0F1E0E21BF30BEE0F07
:1009F000FF1FE95DFF4F8491089581E0203838079B
:100A000044F4F901EE0FFF1FE95DF14084918195F7
:100A10000895E0E0F2E0E21BF30BEE0FFF1FE95D4B
:100A2000FF4F849181950895E82FF0E0EE0FFF1FAE
:100A3000EE0FFF1FE85CFE4F862F90E063E070E052
:100A4000DCD8208131814281538104C0569547957D
:100A5000379527958A95D2F7822F877008950F933F
:100A60001F93E82FF0E0862F90E063E070E0C5D898
:100A7000A82FEE0FFF1FEE0FFF1FE85CFE4F67E091
:100A800070E080E090E00A2E04C0660F771F881F98
:100A9000991F0A94D2F76095709580959095008182
:100AA0001181228133816023712382239323242F98
:100AB00030E040E050E004C0220F331F441F551FB8
:100AC000AA95D2F7622B732B842B952B60837183AD
:100AD000828393831F910F9108950F931F93E8E3EF
:100AE000F1E0119211921192119291E0E038F90720
:100AF000C1F712E1181B0BC000E0402F410F4770F7
:100B0000812F602FACDF0F5F0A30B9F71F5F123102
:100B100098F31F910F9108952F923F924F925F92F9
:100B20006F927F928F929F92AF92BF92CF92DF92FD
:100B3000EF92FF920F931F93DF93CF9300D0CDB727
:100B4000DEB780913601853021F41092360180E0C5
:100B5000C4DF3090A1004091A3002090A2005091EA
:100B60003701852F90E0837090708230910531F4C9
:100B7000232D2F5F243009F0E0C0DEC0009719F468
:100B8000342F3F5F05C08330910509F42394342F3F
:100B9000232D5F5F509337018091A00090E0880F74
:100BA000991F880F991F820F911D880F991F8C5BC9
:100BB0009B4F122D1D5FA0E0B3E0FC01C590D490C7
:100BC00036C0CF018E0D9F1D260102C0569447945A
:100BD0008A95E2F740FE1AC01231F8F40A30F8F4B0
:100BE000802F90E063E070E008D82401350104C054
:100BF00076946794579447948A95D2F7842D87709A
:100C000029F0231561F4341751F407C031960F5FB2
:100C1000E430F105B1F680E004C081E001C080E07D
:100C2000A1E0B1501150BF3FD9F08823C9F4AA23E5
:100C300009F085C0EB2EFF24EE0CFF1CEE0CFF1C10
:100C4000E12FF0E0EE0FFF1FEE0FFF1FE85CFE4FFD
:100C500080809180A280B380032FE0E0F0E0B1CFEC
:100C6000AA2331F42093A1003093A3002092A20084
:100C7000882309F464C08091A200882309F045C04C
:100C80008091A300833009F040C08091A1008823A7
:100C900009F03BC0809136018F5F8093360135C0EB
:100CA0004091A000E42FF0E0EE0FFF1FEE0FFF1FBA
:100CB0008091A100E80FF11DEE0FFF1FEC5BFB4FD1
:100CC00085919491B701620F731F02C09695879525
:100CD0006A95E2F780FF0CC08091A2006091A300AA
:100CE0006E0D4F5F810F29833A83B9DE3A812981E6
:100CF0000894E11CF11C64E0E616F10489F61F5F1C
:100D00002C5F3F4F143021F406C020E030E010E0AB
:100D1000EE24FF24C5CF8091A0008F5F8093A000B8
:100D2000873011F41092A00083E08093A30010920A
:100D3000A2001092A10003C020E0342F2ACF0F9010
:100D40000F90CF91DF911F910F91FF90EF90DF9067
:100D5000CF90BF90AF909F908F907F906F905F905B
:100D60004F903F902F9008958823A9F09091A40070
:100D70008150923038F4873068F4E82FF0E0EE5676
:100D8000FF4F06C0873030F4E82FF0E0E756FF4F02
:100D9000808108958FE308951092A50086E08093E6
:100DA000800183E68093810108958091A5008334BA
:100DB000F8F4E82FF0E0EE0FFF1FE058FE4F9081AF
:100DC000987FF1F08F5F8093A500A82FB0E0FD0120
:100DD000EE0FFF1FE058FE4FAA0FBB1FA258BE4FD9
:100DE0008C918770808311968C91119781830895DF
:100DF000833431F487E08093060283E7809307020F
:100E000008952091A500562F586F15C0233419F46A
:100E10002093A5001BC0222321F430918001387F4C
:100E200009F02F5FE22FF0E0EE0FFF1FE058FE4FBA
:100E3000508341834F978F31910540F72093A50050
:100E4000009711F480E00895233419F4AEDF81E0B7
:100E50000895222321F430918001387F19F02F5F0B
:100E60002093A500E091A500F0E0EE0FFF1FE058F1
:100E7000FE4F880F880F880F862B8083418380E088
:100E80000895E091A500F0E0DF01AA0FBB1FA05874
:100E9000BE4F2C91009711F1422F469546954695ED
:100EA0004F3198F43FE1341B432F50E04817590766
:100EB00038F0880F880F880F820F8C9380E0089598
:100EC000286F2C93841B950B49F0EE0FFF1FE05801
:100ED000FE4F60816770418194DF089580E008953E
:100EE000E091A500EE2311F48CDF0895F0E0EE0F01
:100EF000FF1FE058FE4F208130E027703070A62F92
:100F0000B0E02A173B0729F42181241711F4B9DF37
:100F1000089577DF08951F93182F842F662359F4BF
:100F2000109235011092A50096E09093800193E60F
:100F3000909381010BC09091A500992339F0909175
:100F40003501191719F490E09CDF16C0612F70E08D
:100F50006C7170707595679575956795212F2295C1
:100F6000269527702295207F912F9370292B90E052
:100F7000422F47DF109335011F910895682F70E0CD
:100F8000837090E09C0121703070880F991F282B8E
:100F9000392B220F331F220F331F2068AB01407300
:100FA0005070440F551F242BCB018C709070959579
:100FB000879595958795822B08954F925F926F92B2
:100FC0007F928F929F92AF92BF92CF92DF92EF92D9
:100FD000FF921F934423A1F020E03AEC4AE95BE33F
:100FE00020938E0030938F00409390005093910097
:100FF00060933101709332018093330190933401F7
:1010000060918E0070918F0080919000909191007E
:10101000611571058105910511F48FEF3BC0209199
:1010200031013091320140913301509134018824D3
:1010300099245401861A970AA80AB90A10E003C035
:101040001F5FA701960169017A01C80CD91CEA1C2F
:10105000FB1C26013701460E571E681E791E4616D8
:1010600057066806790660F7209331013093320104
:1010700040933301509334012AE030E040E050E0E7
:10108000FAD520938E0030938F00409390005093B8
:101090009100812F1F91FF90EF90DF90CF90BF9034
:1010A000AF909F908F907F906F905F904F9008953A
:1010B0004F925F926F927F929F92AF92BF92CF9228
:1010C000DF92EF92FF920F931F93CF93DF93EC0188
:1010D000022F009741F440932D0150932E0160930D
:1010E0002F0170933001C0902D01D0902E01E0901F
:1010F0002F01F0903001C701B60141E05EDF182FEB
:10110000CE01969587956FE570E077D5E0EE4E2E8F
:10111000EFEF5E2E480E591E802F90E09C01237049
:101120003070220F331FAA24A394A022A22A007396
:1011300000648C7090709595879595958795082B90
:10114000C0E0D0E0BB24992457E0652E712C6C22BE
:101150007D2261147104C1F4812F8F5F823020F4ED
:101160001F3F61F0992051F0105DF201E10FF11D78
:10117000E45BFE4FB4909924939401C0BB24C70153
:10118000B60140E01ADF182F8B2D90E002C0959534
:1011900087956A94E2F780FF05C081E090E06A2DB0
:1011A000402F04C081E090E060E040E799DE2196A6
:1011B000C235D10549F6DF91CF911F910F91FF9074
:1011C000EF90DF90CF90BF90AF909F907F906F9007
:1011D0005F904F90089589B5826089BD88EC90E05A
:1011E0000197F1F701C0000009B400FEFCCF89B5FA
:1011F000846089BD089586E08BBD83E08CBD8FEF50
:1012000081BFE9DF8FB5807F84608FBD8FB580633C
:101210008FBD80B7826080BF80B7816080BF87B597
:10122000816087BDB99ABA9ABB9ABD9A86B58C7F00
:1012300086BD89E087BD83E680BF80E384BD84E00E
:101240008DBD089580E384BD84E08DBD0895209117
:10125000A6008091A700882339F01DBC8FEA90E09A
:101260000197F1F785E007C083E08DBD8FEA90E03C
:101270000197F1F784E08DBD88E590E00197F1F7E3
:10128000222309F42DC083E580BFE0E8F1E041911D
:10129000542F57706191762F6F7072957F705ABD81
:1012A00064BD7DBD487FA9F000000000485079F37F
:1012B000000000000000000000000000000000002E
:1012C000000000000000000000000000000000001E
:1012D000EDCF83E680BF14BC86E08DBD80E384BD86
:1012E0008091A8009091A90001969093A900809305
:1012F000A80083329105C1F08432910520F4833037
:101300009105E1F408C086329105A9F023E0863208
:101310009207A1F415C01092A60081E08093A70067
:1013200080E484BD85E005C01092A70080E384BD01
:1013300084E08DBD03C081E08093A60080E0089525
:101340001092A6001092A9001092A80081E00895C2
:1013500083EE83BB80E062E02FDA80E068E003DAAE
:1013600080E060E041E05CDA089586E0DFD9BCD936
:1013700086E0ACD987E0B1DBEBDF3DDFD09AD19AD4
:10138000D29AD39A8091AA00882339F489B78071C0
:10139000E9F760E041E044DAF5CFFFCF1F920F920A
:1013A0000FB60F9211244F925F926F927F928F929D
:1013B0009F92AF92BF92CF92DF92EF92FF920F93E4
:1013C0001F932F933F934F935F936F937F938F93CD
:1013D0009F93AF93BF93EF93FF93DF93CF93CDB7DB
:1013E000DEB7AD97DEBFCDBF32DF882369F08091D5
:1013F000AB008F5F8093AB00823031F41092AB0072
:1014000080E060E040E00CDA0091A8001091A900B3
:101410000352104033E00030130708F0BBC25CD920
:1014200001C0000077D98823E1F770D94C01969468
:1014300087949694879445E050E0840E951E54E678
:10144000851651E0950624F0A3E68A2EA1E09A2E97
:101450001092A50086E08093800183E6809381014D
:1014600081E090E067E043E73BDD80912C01882339
:1014700009F48DC228E190E0DE011196E1E6F0E08A
:101480008DE201900D928150E1F7A8014F715070EB
:101490004115510509F085C0A801F5E0569547951D
:1014A000FA95E1F7F42ED92ED40EED2CEA94E7FE4E
:1014B00002C0EFE2EE2EF20ECF2CCA94C7FE02C09D
:1014C0007FE2C72E8091AC009091AD0076DA9091CA
:1014D00060002091AC003091AD00290F311D309398
:1014E000AD002093AC0062E02030360734F020508D
:1014F00032403093AD002093AC00992787FD909542
:1015000080589F4FED2DF0E0EE0FFF1FE453FF4F8B
:1015100091838083EC2DFF27E7FDF095EE0FFF1FF1
:10152000E453FF4F208131813093BD002093BC00F4
:10153000EE2DFF27E7FDF095EE0FFF1FE453FF4F61
:10154000608171817093BB006093BA00681779075E
:1015500038F441E04093BE00A82FA61B6A2F03C0B9
:101560001092BE00681BEF2DF0E0EE0FFF1FE4535A
:10157000FF4FC080D1802C153D0528F481E0809379
:10158000BF00C21A05C01092BF00B22FBC19CB2EEB
:1015900080EC90E040E294D986EC90E06C2D40E243
:1015A0008FD98091BF00E090BC00F090BD008823EF
:1015B00031F086EC90E09FD9E80EF11C05C086EC76
:1015C00090E099D9E81AF108F092BD00E092BC00D1
:1015D0008091BE00E090BA00F090BB00882331F00B
:1015E00080EC90E088D9E80EF11C05C080EC90E01A
:1015F00082D9E81AF108F092BB00E092BA0080911B
:10160000BC009091BD002091BA003091BB008217C0
:101610009307A8F59A838983ECE3EB83AC01405FE1
:101620005F4F2417350780F4F901E81BF90BFB879E
:10163000EA876CE06C87421B530B5C8B4B8B4FE053
:101640004D8BFD8FEC8F10C060E170E07B876A8767
:101650004CE04C87A90140515040481B590B5C8B12
:101660004B8BED8B7D8F6C8F83E08E8F8827992736
:10167000821B930B80509F4F9EA38DA338C02817C9
:101680003907C0F53A832983ECE3EB83A901405F76
:101690005F4F8417950788F4BC01621B730B9B0195
:1016A0007B876A8763E06C87481B590B5C8B4B8B8D
:1016B0004FE04D8B3D8F2C8F10C060E170E07B8739
:1016C0006A8743E04C87AC0140515040421B530BAA
:1016D0005C8B4B8BED8B7D8F6C8F2CE02E8F2227BC
:1016E0003327281B390B20503F4F3EA32DA38CE3FB
:1016F0008FA313C09A8389834CE34B8320E130E0AE
:101700003B872A872FE02C8722273327281B390B7A
:1017100020503F4F3C8B2B8B4D8B6E010894C11C8E
:10172000D11CF60120E030E06624772480E090E0D0
:10173000E080F1808E0D9F1D59010894A11CB11C01
:1017400088159905C0F1C90163E070E056D22E01F9
:101750000894411C511CF201E80FF91F86189708E4
:1017600091828082C50163E070E047D2840D951DAF
:1017700041E050E0DC0111965C934E9312961C926E
:10178000C901029663E070E038D2D201A80FB91FF8
:1017900080819181E81AF90A1196FC92EE92828179
:1017A00012968C93129782818C3061F08F3051F0B9
:1017B0008824839408C0950133962F30310511F0A9
:1017C0003C01B6CF88248EE2E82EF12CEC0EFD1EF3
:1017D000F601808191810097F9F0882031F0228113
:1017E0002C3319F467E040E716C0D60112964C91ED
:1017F000242F30E0F901E370F070EE0FFF1F642F2B
:1018000061706E2B407340642C7030703595279555
:1018100035952795422B64DBE3E0F0E0CE0EDF1E2A
:10182000CE14DF04A9F68820A1F08091B600909133
:10183000B700A091B800B091B9000196A11DB11DEB
:101840008093B6009093B700A093B800B093B9000E
:1018500013C08091B2009091B300A091B400B091F8
:10186000B5000196A11DB11D8093B2009093B30005
:10187000A093B400B093B50081E090E060E040E751
:101880002FDBC090B200D090B300E090B400F09095
:10189000B5008090B6009090B700A090B800B090CE
:1018A000B900C701B60124E630E040E050E0B7D10E
:1018B000A50194012C0D3D1D4E1D5F1DDCD1233370
:1018C00028F18091AE009091AF00A091B000B0914E
:1018D000B100B701A601481B590B6A0B7B0BDB015A
:1018E000CA01813059E0950750E0A50750E0B507DF
:1018F00068F0C092AE00D092AF00E092B000F092DB
:10190000B100809160008F5F80936000C8010697EE
:101910008031910538F44091600050E060E070E063
:101920002CE31CC0C80148978031910520F4B70111
:10193000A6012CE013C0C8018A978031910520F4DC
:10194000B501A40123E00AC0C801CC9780319105FC
:1019500030F4422F50E060E070E02FE0A9DB83E537
:1019600090E060E040E7BCDA81E090E067E043E7C8
:10197000B7DA1BDA62E00F3F160761F480E090915E
:101980002C01992309F481E080932C0103C020E00D
:1019900098E172CDAD96DEBFCDBFCF91DF91FF91C3
:1019A000EF91BF91AF919F918F917F916F915F91D7
:1019B0004F913F912F911F910F91FF90EF90DF90EA
:1019C000CF90BF90AF909F908F907F906F905F90DF
:1019D0004F900F900FBE0F901F901895ABE0B0E0A6
:1019E000E3EFFCE06EC16C014B017A01FC01178250
:1019F0001682838181FD08C02FEF3FEFFAC022E0FD
:101A000030E0E20EF31E04C05E010894A11CB11C7C
:101A1000F6017380F40173FC859173FE81914F018F
:101A2000882309F4E3C0853251F473FC059173FEF9
:101A300001914F01053211F010E01AC085E290E0EB
:101A400029C0002309F4D2C083E896E0602F70E03B
:101A50007FD1009739F4033211F4106103C00C36C2
:101A600061F41068F40173FC059173FE01914F015C
:101A700017FFE7CF002309F4B9C08CE796E0602F89
:101A800070E066D1009749F024E030E0E20EF31EEA
:101A90008FE390E0B60167D1BBCF033629F003375F
:101AA00071F00335E1F40AC087010E5F1F4FF701A3
:101AB00080819181B60157D17801AACF1160F701D9
:101AC0006080718003C090E0B6014DD1F30110FD3C
:101AD000859110FF81913F018823A9F790CF0436AB
:101AE00011F0093629F517FF08C0F70160817181EF
:101AF0008281938124E030E00AC0F70120813181A6
:101B0000B901882777FD8095982F22E030E0E20E1A
:101B1000F31E1F7E97FF08C0909580957095619584
:101B20007F4F8F4F9F4F1064A5012AE030E033C0F4
:101B30000037A9F0013730F40835B1F00F3609F05D
:101B400055C006C0053739F0083709F04FC008C046
:101B500028E030E00CC01F7E2AE030E008C01061B1
:101B6000146220E130E003C0146020E132E017FF8E
:101B700008C0F701608171818281938144E050E067
:101B800007C0F7016081718180E090E042E050E0A1
:101B9000E40EF51EA50113D1082F0A19612E772432
:101BA00016FF04C08DE290E0B601DDD064FE13C0E4
:101BB000FE01E00FF11D8081803369F080E390E049
:101BC000B601D1D062FE07C0C30180729070885AFE
:101BD0009F4FB601C8D00150F501E00FF11D808183
:101BE00090E0B601C0D00023B1F712CFF6012681F4
:101BF0003781C9012B96EEE080C05527002480FF75
:101C000002C0060E571F660F771F6115710521F080
:101C100096958795009799F7952F802D0895FF2722
:101C2000EE27BB27AA2760FF04C0A20FB31FE41F43
:101C3000F51F220F331F441F551F969587957795E3
:101C4000679589F70097760771F7CF01BD01089571
:101C500097FB092E07260AD077FD04D065D006D061
:101C600000201AF4709561957F4F0895F6F79095CE
:101C700081959F4F0895A1E21A2EAA1BBB1BFD015F
:101C80000DC0AA1FBB1FEE1FFF1FA217B307E4075B
:101C9000F50720F0A21BB30BE40BF50B661F771FB3
:101CA000881F991F1A9469F7609570958095909593
:101CB0009B01AC01BD01CF0108952F923F924F923D
:101CC0005F926F927F928F929F92AF92BF92CF92CC
:101CD000DF92EF92FF920F931F93CF93DF93CDB7D5
:101CE000DEB7CA1BDB0B0FB6F894DEBF0FBECDBF4D
:101CF00009942A88398848885F846E847D848C841E
:101D00009B84AA84B984C884DF80EE80FD800C8126
:101D10001B81AA81B981CE0FD11D0FB6F894DEBF09
:101D20000FBECDBFED010895AA1BBB1B51E107C03B
:101D3000AA1FBB1FA617B70710F0A61BB70B881F5B
:101D4000991F5A95A9F780959095BC01CD010895EA
:101D5000FC010590061621F00020D9F7C001089576
:101D60003197CF0108950F931F93CF93DF938C0189
:101D7000EB018B8181FF1BC082FF0DC02E813F8153
:101D80008C819D812817390764F4E881F9810193DA
:101D9000F983E88306C0E885F985802F09950097C7
:101DA00031F48E819F8101969F838E8302C00FEF55
:101DB0001FEFC801DF91CF911F910F910895FA0194
:101DC000AA27283061F1203191F1E8946F936E7F5A
:101DD0006E5F7F4F8F4F9F4FAF4FB1E040D0B4E069
:101DE0003ED0670F781F891F9A1FA11D680F791FAA
:101DF0008A1F911DA11D6A0F711D811D911DA11DBD
:101E000022D009F468943F91062E000C3019000C82
:101E1000000C3019305D3193CEF6CF010895462F76
:101E20004770405D4193B3E00FD0C9F7F6CF462F1E
:101E30004F70405D4A3318F0495D31FD4052419387
:101E400002D0A9F7EACFB4E0A69597958795779544
:101E50006795BA95C9F700976105710508959B01CB
:101E6000AC010A2E06945795479537952795BA9554
:101E7000C9F7620F731F841F951FA01D0895F89462
:021E8000FFCF92
:101E82000100003F00003F00003F00003F00003F14
:101E920000003F00003F00003F00003F00003F0005
:101EA200003F00003F00003F00003F00003F00CA2B
:101EB2009A3B03070F0C3C30330104101411051533
:00000001FF
