:100000000C943B030C9458030C9458030C94580321
:100010000C9458030C9458030C9458030C945803F4
:100020000C9458030C9458030C9458030C94450BEF
:100030000C9458030C9458030C9458030C945803D4
:100040000C9458030C9458030C9458030C945803C4
:10005000000092012403B6044806D9076A09FB0A86
:100060008C0C1C0EAB0F3A11C8125514E2156E170A
:10007000F918821A0B1C931D1A1F9F202322A623F6
:100080002825A8262628A3291F2B992C112E872F37
:10009000FB306E32DF334D35BA3624388C39F23AC4
:1000A000563CB83D173F7340CE4125437A44CD4579
:1000B0001C476948B449FB4A3F4C814DBF4EFB4F3A
:1000C000335168529B53C954F5551D5742586459D2
:1000D000825A9C5BB35CC75DD75EE35FEB60F06107
:1000E000F162EE63E864DD65CF66BC67A6688B6984
:1000F0006D6A4A6B236CF86CC96D966E5E6F2270E8
:10010000E2709D7154720773B5735F740475A575C1
:100110004176D8766B77FA77847809798979057A88
:100120007C7AEE7A5C7BC57B297C887CE37C397D9C
:10013000897DD57D1D7E5F7E9C7ED57E097F377F44
:10014000617F867FA67FC17FD87FE97FF57FFD7FB6
:10015000FF7FC0C0C0C0C0000000000000C0C0C021
:10016000C0C0C0C0C000000F0F0F0F0F0F0000C0B5
:10017000C0C0C0C000000F0F0F0F0F0F0F0F000007
:10018000C0C0C000000F0F0F0F0F0F0F0F0F0F0099
:1001900000C0C0000F0F0F000F0F0F0F0F0F0F0F3A
:1001A00000C0000F0F0F0000000F0F000F0F0F0F08
:1001B0000F00000F0F0F0F000F0F0F0F00000F0F9A
:1001C0000F00000F0F0F0F0F0F0F0F0F0F0F0F0F5D
:1001D0000F00000F0F0F0F0F0F0F0F0F0F0F0F0F4D
:1001E0000F00000F0F00000F0F0F0F0F0F00000F79
:1001F0000F00000F0F0F00000F0F0F0F00000F0F69
:100200000F00C0000F0F0F0000000000000F0F0FC5
:1002100000C0C000000F0F0F00030003000F0F000D
:1002200000C0C0C000000F0F00030303000F000058
:10023000C0C0C0C0C000000F0F0000000F0000C011
:10024000C0C0C0C0C0C0C0000000000000C0C0C02E
:10025000C0C0C0C0C0C0C0000000000000C0C0C01E
:10026000C0C0C0C0C000000F0F0F0F0F0F0000C0B4
:10027000C0C0C0C000000F0F0F0F0F0F0F0F000006
:10028000C0C0C000000F0F0F0F0F0F0F0F0F0F0098
:1002900000C0C0000F0F0F000F0F0F0F000F0F0F48
:1002A00000C0000F0F0F0000000F0F0000000F0F25
:1002B0000F00000F0F0F0F000F0F0F0F000F0F0F8A
:1002C0000F00000F0F0F0F0F0F0F0F0F0F0F0F0F5C
:1002D0000F00000F0F0F0F0F0F0F0F0F0F0F0F0F4C
:1002E0000F00000F0F00000F0F0F0F0F0F00000F78
:1002F0000F00000F0F0F00000F0F0F0F00000F0F68
:100300000F00C0000F0F0F0000000000000F0F0FC4
:1003100000C0C000000F0F0F0F0F0F0F0F0F0F00C7
:1003200000C0C0C000000F0F0F0F0F0F0F0F000015
:10033000C0C0C0C0C000000F0F0F0F0F0F0000C0E3
:10034000C0C0C0C0C0C0C0000000000000C0C0C02D
:10035000C0C0000C36360C001C0618060000000059
:1003600000601E0C1E1E383F1C3F1E1E00001800A1
:10037000061E3E0C3F3C3F7F7F3C331E78670F6379
:10038000631C3F1E3F1E3F33336363337F1E031ED8
:1003900008000C00070038001C00070C18070E00AE
:1003A00000000000000008000000000000381807EE
:1003B0006E0E001E36363E6336060C0C660C0000D0
:1003C0000030330F33333C030633333300000C006B
:1003D0000C33631E666636464666330C3066067717
:1003E0006736663366332D3333636333330606185B
:1003F0001C000C00060030003600060000060C0051
:100400000000000000000C0000000000000C180CB0
:100410003B13001E367F03331C0306183C0C000000
:1004200000183B0C3030361F033033330C0C063FC2
:1004300018307B33660366161603330C3036067F9E
:100440006F63663366070C333363363319060C1853
:100450003600181E3E1E301E066E360E1E660C3707
:100460001F1E3B6E1B3E3E33336363333F0C180C41
:100470000039000C00361E186E000618FF3F003FC2
:10048000000C3F0C1C1C33301F181E3E0C0C0300CC
:1004900030187B333E03661E1E033F0C301E066B76
:1004A0007B633E333E1C0C33336B1C1E0C0618184A
:1004B0006300003066333E330F336E0C18360C7F0A
:1004C0003333663336030C3333633633190700385E
:1004D0000069000C007F300C3B0006183C0C00004B
:1004E0000006370C06307F30330C33300000063FF7
:1004F000180C7B3F660366161673330C333646635F
:100500007363063B1E380C33337F360C46063018B7
:100510000000003E6603333F0633660C181E0C6B6A
:1005200033336633361E0C33336B1C330C0C180C10
:10053000000E000000361F6633000C0C660C0E0027
:100540000C03330C33333033330633180C0E0C00EA
:100550000C000333666636460666330C3366666304
:100560006336061E36330C331E77630C6306601841
:100570000000003366333303063E660C18360C6306
:1005800033333E3E06302C331E7F363E260C180C8D
:1005900000F3000C00360C636E00180600000C001F
:1005A0000C011E3F3F1E301E1E061E0E0C0C1800B6
:1005B000060C1E333F3C3F7F0F7C331E1E677F635C
:1005C000631C0F38671E1E3F0C63631E7F1E401E98
:1005D0000000006E3D1E6E1E0F30671E1B671E63FF
:1005E000331E06300F1F186E0C3663303F38180765
:1005F00000460000000000000000000000000600AF
:1006000000000000000000000000000000060000E4
:1006100000000000000000000000000000000000DA
:1006200000000000000000000000000000000000CA
:1006300000FF000000000000001F00000E0000008E
:1006400000000F78000000000000001F0000000004
:1006500000F44C43446469726563744C56445336E9
:100660003820323031342D30342D32382032313A86
:1006700033373A34330011241FBECFEFD4E0DEBF4E
:10068000CDBF11E0A0E0B1E0EAE7F8E102C00590DB
:100690000D92A630B107D9F712E0A6E0B1E001C093
:1006A0001D92A433B107E1F70E94AD0B0C943B0CF3
:1006B0000C940000FC018281861710F0638308957A
:1006C000828183830895FC011182108242830C94FD
:1006D0005A03FC0180819181181619064CF480811F
:1006E00091812281821B91099183808381E001C0E5
:1006F00080E0208131819381290F311D3183208356
:10070000089598B18F71907E892B88B908958CB522
:100710009DB5089586B186FB882780F908950E94CB
:100720008A03811102C0369A089581E0089596B136
:100730008770987F892B86B9089546984798459881
:10074000379A3598349A339887E00E9497038FE15F
:100750000E9481030E948F030E948A038111FCCFB3
:100760000895883060F49091770021E030E0082E01
:1007700001C0220F0A94EAF7922B90937700089514
:10078000813051F4611108C080918A00887F8160B6
:1007900080938A0080E0089581E00895643088F4B1
:1007A000813079F4611104C080918A008F7E05C088
:1007B000623039F480918A00806180938A0080E001
:1007C000089581E00895CF93DF93C82FD62F642F2B
:1007D0000E94CE03882311F0806109C06D2F8C2FF9
:1007E0000E94C003882311F0806201C080E0DF9185
:1007F000CF910895813051F4442361F0F8940D9A1B
:1008000041E0159A442321F0789402C081E00895D4
:1008100080E008950D98F5CF811101C081E0682F27
:1008200070E08CE990E00E94EB0B70930201609302
:100830000101089560910101709102018CE990E03D
:100840000E94D70B862F089560E08BE191E00C9415
:100850005A032E98269A4FEF60E08BE191E00E94B8
:1008600063038CE990E09093020180930101089565
:100870008093060108950F931F9330910601432F33
:10088000407F232F2F70442331F0211107C041E016
:1008900040930C0103C0211110920C01E0910C0156
:1008A000EE2321F0532F52955F7001C0522F4091DB
:1008B0000B01642F66952091090130910A0165179B
:1008C00078F4BC01621B730B9B01253C394048F155
:1008D00090930A01809309014F5F40930B0121C05F
:1008E0008C01021B130B20E030E040E25EE460E08C
:1008F00070E00E2E04C0440F551F661F771F0A9428
:10090000D2F7401751076207730758F410920B0192
:1009100090930A018093090181E0E11180E08093C6
:100920000C0180910B01809581701F910F910895AA
:10093000CF92DF92EF92FF92C0900D01D0900E0106
:10094000E0900F01F0901001809107019091080153
:100950009601281B390B80910101909102018217A9
:10096000930710F5D0920801C092070180911E01F3
:1009700060910001772767FD7095680F711D6F3FCB
:10098000710534F08FEF809300016FEF70E008C0C5
:10099000161617062CF081E08093000160E070E0ED
:1009A0008BE191E00E945A0380910601882321F097
:1009B000C6010E943B0404C08BE191E00E946903E0
:1009C000882321F026982E9A81E003C02E98269A3B
:1009D00080E0FF90EF90DF90CF9008950C94980402
:1009E00026982E9A8FEF00008150E9F783B186FB9D
:1009F000882780F908958F929F92AF92BF92CF92ED
:100A0000DF92EF92FF920F931F93CF93DF9300D06B
:100A100000D0CDB7DEB78A01C0900D01D0900E0195
:100A2000E0900F01F090100180900D0190900E0168
:100A3000A0900F01B09010018C189D08AE08BF085F
:100A400086169706A806B90670F40115110561F31C
:100A500069837A838B839C83F80109959C818B81C0
:100A60007A816981E1CF0F900F900F900F90DF9105
:100A7000CF911F910F91FF90EF90DF90CF90BF909B
:100A8000AF909F908F90089597FF12C061157105E8
:100A9000810520E8920741F09095809570956195C9
:100AA0007F4F8F4F9F4F08956FEF7FEF8FEF9FE73F
:100AB0000895621773078407950714F4CA01B901F2
:100AC000089516161706180619064CF021E0672B34
:100AD000682B692B09F420E0822F8195089581E02D
:100AE0000895CF92DF92EF92FF920F931F93FA0136
:100AF000C080D180E280F380C616D706E806F906EA
:100B000034F460837183828393838FEF0CC00C1560
:100B10001D052E053F0534F40083118322833383A2
:100B200081E001C080E01F910F91FF90EF90DF9076
:100B3000CF900895CF92DF92EF92FF920F931F9381
:100B4000FA01C080D180E280F380C616D706E8069D
:100B5000F90630F460837183828393838FEF0CC036
:100B60000C151D052E053F0530F4008311832283EB
:100B7000338381E001C080E01F910F91FF90EF90DF
:100B8000DF90CF9008959F92AF92BF92CF92DF9265
:100B9000EF92FF920F931F93CF93DF93CDB7DEB702
:100BA0002C970FB6F894DEBF0FBECDBF5C01498312
:100BB0005A836B837C830D831E832F83388777FF53
:100BC00002C08FEF01C081E0F501808B0FEF1FEFB6
:100BD0002FEF3FE3AE014F5F5F4F61E070E080E0D9
:100BE00090EC0E947105811102C0912C02C082E03C
:100BF000982E0FEF1FEF2FEF3FE7AE014B5F5F4FD8
:100C000061E070E080E090E00E949A05882319F08E
:100C1000F92DF1609F2EC980DA80EB80FC802D8158
:100C20003E814F815885C701B6010E94FF0BF50137
:100C30002483358346835783C701B60129873A87C2
:100C40004B875C870E9444056B017C016D817E812E
:100C50008F81988529853A854B855C850E94C70BD5
:100C60000E944405C61AD70AE80AF90AF501C086A7
:100C7000D186E286F3868D819E81AF81B885848797
:100C80009587A687B7871082118212821382118AF4
:100C9000128A138A148A892D2C960FB6F894DEBF17
:100CA0000FBECDBFDF91CF911F910F91FF90EF90BD
:100CB000DF90CF90BF90AF909F900895CF92DF923A
:100CC000EF92FF920F931F93FC01648175818681DF
:100CD0009781C080D180E280F380008511852285D4
:100CE00033850C0D1D1D2E1D3F1D00831183228396
:100CF0003383C080D180E280F3800485158526850A
:100D00003785C016D106E206F306D8F000811181BE
:100D100022813381C484D584E684F7840C191D09AB
:100D20002E093F0900831183228333830089112711
:100D300007FD1095212F312F600F711F821F931F08
:100D4000D8CF0189128923893489060F171F281FDC
:100D5000391F018B128B238B348B1F910F91FF90C6
:100D6000EF90DF90CF900895FC01608171818281C6
:100D70009381089560E072E00E94EB0B97FD9E5F07
:100D80008038910584F08F3F910529F024F0803858
:100D900051E095073CF420E031E0A901481B590BD4
:100DA000CA010895925008950E94BA0697FF05C09F
:100DB00091958195910921E001C020E0FC01EE0FA1
:100DC000FF1FE05BFF4F85919491222319F09195CD
:100DD0008195910908950E94BA0697FF05C09195E3
:100DE0008195910921E001C020E0FC01EE0FFF1F79
:100DF000EF5AFF4F849121118195089580918700CA
:100E0000837E8861809387008091870082608093D1
:100E100087008FE891E00197F1F700C00000809112
:100E2000870080FD02C00000FACF08950F930E9452
:100E3000FE06A5E0A0936E0046E050E059BD48BD17
:100E400023E030E037BD26BDAD9A82E090E090937C
:100E500065008093640064E070E07FBD6EBDAD9876
:100E600066E065BB10926F00A0936A0055BD44BD5B
:100E700045E050E05BBD4ABD8D9A33BD22BD8D98E3
:100E80008D9A90936100809360008D9882E081BB81
:100E900003E1EFE4F7E081E0989486BB0994035006
:100EA000F4F70D3F19F00E3F11F00000000082BB77
:100EB0000F9108950F9390E1299FF0011124E00F05
:100EC000F11DEC5CFE4F443008F043E090E1499F97
:100ED00090011124843008F083E0282B643008F05E
:100EE00063E084E0689FB0011124622B60830F915E
:100EF00008950895CF93DF938091190190911A017D
:100F0000019690931A01809319019C012F71332748
:100F1000232B29F4209118012F5F2093180180348E
:100F2000910589F410921A0110921901809117010C
:100F3000811114C081E08093170182E592E09093C3
:100F4000040180930301D091180164E371E04091A2
:100F500003015091040190E080E005C01092170158
:100F600082E591E0ECCFC92FCD0F20E030E0F90110
:100F7000E40FF51FE491DB01A20FB31FE03C11F475
:100F8000EC2FE20FFC91FE1711F0EC9381E02F5F44
:100F90003F4F2031310559F79F5F605F7F4F405FC2
:100FA0005F4F903101F7DF91CF91089524E0880FD2
:100FB000991F2A95E1F760E073E00E94D70BFB01CF
:100FC00034E0EE0FFF1F3A95E1F7EC5CFE4FAD9A6F
:100FD00081E090E0909365008093640084E090E06D
:100FE0009FBD8EBDAD983081232F26952695822FEB
:100FF00086958695837094E0980F833009F498E085
:10100000AD9A8D9A832F83708E5F23702D5F90939E
:101010004E0080936000209342008D98AD9887E049
:1010200090E00000000001970097D9F70000000051
:10103000000000003181232F26952695822F86956A
:101040008695837094E0980F833009F498E0AD9A08
:101050008D9A832F83708E5F23702D5F90934E0047
:1010600080936000209342008D98AD9887E090E0D7
:101070000000000001970097D9F700000000000071
:1010800000003281232F26952695822F86958695FE
:10109000837094E0980F833009F498E0AD9A8D9AAC
:1010A000832F83708E5F23702D5F90934E0080930B
:1010B0006000209342008D98AD9887E090E000009A
:1010C000000001970097D9F7000000000000000021
:1010D0003381232F26952695822F869586958370BA
:1010E00094E0980F833009F498E0AD9A8D9A832F9D
:1010F00083708E5F23702D5F90934E00809360000D
:10110000209342008D98AD9887E090E000000000A9
:1011100001970097D9F7000000000000000034811B
:10112000232F26952695822F86958695837094E0A9
:10113000980F833009F498E0AD9A8D9A832F8370CD
:101140008E5F23702D5F90934E00809360002093FC
:1011500042008D98AD9887E090E000000000019774
:101160000097D9F700000000000000003581232F10
:1011700026952695822F86958695837094E0980F04
:10118000833009F498E0AD9A8D9A832F83708E5F37
:1011900023702D5F90934E00809360002093420057
:1011A0008D98AD9887E090E00000000001970097CF
:1011B000D9F700000000000000003681232F26959B
:1011C0002695822F86958695837094E0980F8330BC
:1011D00009F498E0AD9A8D9A832F83708E5F237007
:1011E0002D5F90934E0080936000209342008D9875
:1011F000AD9887E090E00000000001970097D9F7D4
:1012000000000000000000003781232F269526955E
:10121000822F86958695837094E0980F833009F429
:1012200098E0AD9A8D9A832F83708E5F23702D5F27
:1012300090934E0080936000209342008D98AD986B
:1012400087E090E00000000001970097D9F70000C8
:101250000000000000003085232F26952695822F60
:1012600086958695837094E0980F833009F498E012
:10127000AD9A8D9A832F83708E5F23702D5F90932C
:101280004E0080936000209342008D98AD9887E0D7
:1012900090E00000000001970097D9F700000000DF
:1012A000000000003185232F26952695822F8695F4
:1012B0008695837094E0980F833009F498E0AD9A96
:1012C0008D9A832F83708E5F23702D5F90934E00D5
:1012D00080936000209342008D98AD9887E090E065
:1012E0000000000001970097D9F7000000000000FF
:1012F00000003285232F26952695822F8695869588
:10130000837094E0980F833009F498E0AD9A8D9A39
:10131000832F83708E5F23702D5F90934E00809398
:101320006000209342008D98AD9887E090E0000027
:10133000000001970097D9F70000000000000000AE
:101340003385232F26952695822F86958695837043
:1013500094E0980F833009F498E0AD9A8D9A832F2A
:1013600083708E5F23702D5F90934E00809360009A
:10137000209342008D98AD9887E090E00000000037
:1013800001970097D9F700000000000000003485A5
:10139000232F26952695822F86958695837094E037
:1013A000980F833009F498E0AD9A8D9A832F83705B
:1013B0008E5F23702D5F90934E008093600020938A
:1013C00042008D98AD9887E090E000000000019702
:1013D0000097D9F700000000000000003585232F9A
:1013E00026952695822F86958695837094E0980F92
:1013F000833009F498E0AD9A8D9A832F83708E5FC5
:1014000023702D5F90934E008093600020934200E4
:101410008D98AD9887E090E000000000019700975C
:10142000D9F700000000000000003685232F269524
:101430002695822F86958695837094E0980F833049
:1014400009F498E0AD9A8D9A832F83708E5F237094
:101450002D5F90934E0080936000209342008D9802
:10146000AD9887E090E00000000001970097D9F761
:1014700000000000000000003785232F26952695E8
:10148000822F86958695837094E0980F833009F4B7
:1014900098E0AD9A8D9A832F83708E5F23702D5FB5
:1014A00090934E0080936000209342008D98AD98F9
:1014B00087E090E00000000001970097D9F7000056
:1014C00000000000000084E090E0933009F488E020
:1014D000AD9A8D9A23E092E080934E009093600045
:1014E000209342008D98AD988D9A85E090E090937E
:1014F0006100809360008D98AD9A82E090E09093B7
:1015000065008093640084E090E09FBD8EBDAD983F
:101510000895AD9A82E090E0909365008093640016
:1015200084E090E09FBD8EBDAD9808954091150177
:10153000809112019091130120911401AD9A222300
:1015400079F126E030E030936500209364003FBDE0
:101550002EBDAD9826E130E0000000002150310999
:1015600021153105C9F7000000000000000000004F
:1015700000000000AD9A23E030E030936500209336
:10158000640024E030E03FBD2EBDAD982BE030E09C
:10159000000000002150310921153105C9F730C084
:1015A00022E030E0309365002093640023E030E0D7
:1015B0003FBD2EBDAD9826E130E000000000215077
:1015C000310921153105C9F70000000000000000B5
:1015D000000000000000AD9A22E030E0309365008A
:1015E0002093640024E030E03FBD2EBDAD982BE099
:1015F00030E0000000002150310921153105C9F704
:101600000000000000000000000000000000442373
:1016100019F086970E94D6078091120190911301CC
:101620000196909313018093120183329105C9F0C2
:1016300050F48330910539F51092150121E0209383
:101640001401AD9A13C086329105D1F086329340D1
:10165000D1F410921501109213011092120181E041
:10166000089510921401AD9A82E090E09093650085
:101670008093640084E090E09FBD8EBDAD9803C070
:1016800081E08093150180E008951F920F920FB6BC
:101690000F9211242F933F934F935F936F937F93F8
:1016A0008F939F93AF93BF93EF93FF938FE191E05D
:1016B0000E945E068091300190913101A09132012B
:1016C000B091330180930D0190930E01A0930F010F
:1016D000B093100180910501882349F00E94960A79
:1016E000882329F0809111018F5F80931101FF9170
:1016F000EF91BF91AF919F918F917F916F915F918A
:101700004F913F912F910F900FBE0F901F90189502
:1017100085E098E090938D0080938C0062E081E0FA
:101720000E94CE0360E081E00E94C00341E060E0DF
:1017300081E00C94FA0390911101937081E0209163
:101740001601921301C080E09093160108950E9443
:101750009B0B81110C947A07089501E010E020E0C2
:1017600030E041E050E060E070E08FE191E00E9405
:10177000C3050E94880B0E94290480E00E940C048B
:101780000E9416070E94A70B0E949804FBCFDB0162
:101790008F939F930E94210CBF91AF91A29F800DC8
:1017A000911DA39F900DB29F900D11240895AA1B27
:1017B000BB1B51E107C0AA1FBB1FA617B70710F03C
:1017C000A61BB70B881F991F5A95A9F7809590956E
:1017D000BC01CD01089597FB072E16F4009407D0A5
:1017E00077FD09D00E94D70B07FC05D03EF49095F9
:1017F00081959F4F0895709561957F4F0895A1E25F
:101800001A2EAA1BBB1BFD010DC0AA1FBB1FEE1F7A
:10181000FF1FA217B307E407F50720F0A21BB30BC5
:10182000E40BF50B661F771F881F991F1A9469F741
:1018300060957095809590959B01AC01BD01CF019D
:1018400008950E942C0CA59F900DB49F900DA49F0D
:10185000800D911D11240895A29FB001B39FC00176
:10186000A39F700D811D1124911DB29F700D811DCC
:0A1870001124911D0895F894FFCF94
:06187A00019C0052020176
:00000001FF
