:10000000C2C5DCC53DCCDAC5D9C5D8C5D7C5D6C5AE
:10001000D5C5D4C5D3C5D2C5D1C5D0C5A3CECEC54F
:10002000CDC5CCC5CBC56ECC70CC72CC74CC76CCE7
:10003000A4CC8ECC76CC78CC88CC8ACC8CCC8ECC14
:1000400090CC92CC94CC99CC95CCF1CDF0CDEFCD99
:10005000EECDEFCDEECDEDCDDDCDDCCDDBCDDCCD10
:10006000DBCDDACDDBCDDACDD9CDF7CDF6CDF5CD03
:1000700004CE03CEF4CDF3CD00CEFFCDEECDEDCD4D
:10008000ECCD990000009500012800004C0B440BBA
:10009000340B0000032500172F0055010050AF1648
:1000A00000F4AA6A00BDAAAA0155555501FDFFFF3B
:1000B00001FD57D551FDF7DF11FD57D511FDF7DFD4
:1000C00015FDF7DF017DF5D5015D75D5015D7DF588
:1000D00001FDFFFF01555555010055010050AF16B8
:1000E00000F4AA6A00BDAAAA0155555501FDFFFFFB
:1000F00001FD57D501FDF7DF01FD57D551FDF7DFB4
:1001000005FDF7DF017DF5D5015D75D5015D7DF557
:1001100001FDFFFF01555555010055010050AF1677
:1001200000F4AA6A00BDAAAA0155555501FDFFFFBA
:1001300001FD57D501FDF7DF01FD57D501FDF7DFC3
:1001400015FDF7DF117DF5D5515D75D5015D7DF5A7
:1001500001FDFFFF0155555501700100006C0101C3
:100160002800004C0B440B340B0000012500072F26
:10017000000054150050FD5F00F5FF7F40FFFF7F3A
:10018000D0FFFF1FF4FFFF07B4EAFF1DBDAE7F1FC6
:10019000BDAEFF07BDEAFF1DBDFE7F1FBDFEFF0711
:1001A000F4FFFF07F4FFFF01D0FF5F00405505009B
:1001B000C7010000C301012800004C0B440B340BA5
:1001C0000000012500022F0054555440F57FFDD05A
:1001D0005F555D7455555554555555F55555555DF7
:1001E0005555541450555400401A0000401A000050
:1001F000401A0000401A0000401A0000401A000097
:10020000401A0000000500510200004D02013400B8
:10021000002D02440B1A0200000200000000200220
:1002200055555555000000000355555555004002E1
:10023000F03302AAAAAAAAB8BBBBBBBBBB00000092
:100240000000000354545454545400000025000C82
:100250002F5055551594AAAA56A4AAAA5AA4AAAAD8
:100260005AA4AAAA565455557D90AAAA7D90AAAA26
:100270007554A56A7FA59AAA75A9AAAA7DA9AAAA52
:100280007DA9AAAA56A9AAAA5AA5AAAA56545555FA
:10029000155055551594AAAA56A4AAAA5AA4AAAAB2
:1002A0005AA4AAAA5A5455555590AAAA5590AAAA32
:1002B0007D54A56A7FA59AAA7DA9AAAA55A9AAAA2A
:1002C0005AA9AAAA5AA9AAAA5AA5AAAA56545555D9
:1002D00015E8020000E402012800004C0B440B3436
:1002E0000B00000125000C2F40055001901AA406B8
:1002F0009055550694A55A16A9AAAA6AA99AA66A5B
:10030000A9AAAA6A94AAAA1640A96A0194555516E0
:1003100069AAAA69A999666A9999666669996669D6
:1003200094596516A969696A3F0300003B030128D7
:1003300000004C0B440B340B0000012500022F0081
:10034000055000405FF50140AAAA0190769D0690F5
:10035000755D0690569506406AA90100A55A0050A1
:10036000AAAA05A4FAAF1AA9FEBF6A69FEBF697DF1
:10037000FAAF7D54AAAA15407FFD0100555500D261
:10038000030000CE030130C803A403C2039203009C
:100390000001000000009803555555555755554428
:1003A0004404000000B603F0AA03AAAAAAAA57555B
:1003B00055555555555500000000EAAAEAAAEAAA83
:1003C000EAAAFFFF000000000000F807F807250276
:1003D000000000000000000000A0000000980000E5
:1003E00000980000A8A60080562B0068F5950056DE
:1003F0007F9580FD7595E07775257A755D25565D4D
:10040000550968555502A056A50200AA2A00000009
:10041000000038040000B00A01030000D409440BB6
:100420005C0B00000138040000B00A010800005C09
:100430000B00005C0B00000155555555FDFFFF7F7B
:10044000DDFFFF77FDFFFF7FFDFFFF7FFDFFFF7FEC
:10045000FDFFFF7FFDFFFF7FFDFFFF7FFDFFFF7FB4
:10046000FDFFFF7FFDFFFF7FFDFFFF7FDDFFFF77CC
:10047000FDFFFF7F55555555BF040000920501183B
:100480008B048E04460BAD04000003FFFFFF0094B5
:100490000410560BABAA02000000BF040000A9051F
:1004A00001180000B304460BAD0400000300000077
:1004B000103E0B00B90410560BAAAA000000000061
:1004C00000000000A80A0000AAAA0200D5370040D8
:1004D000F7F70340D7DF0F40FD570100FCFF000096
:1004E00055C600C055F503F056F50050AA2A0090F5
:1004F000AA2A00948A0A0004500100005005000056
:10050000A80A0000AAAA0200D5370040F7F7034066
:10051000D7DF0F40FD570100FCFF0050A505005F2D
:10052000A5563F3FE56A3D0FAA2A0480AAAA05A066
:10053000AAAA05940AA80554000000500100000072
:10054000A80A0000AAAA0200D5370040F7F7034026
:10055000D7DF0F40FD570100FCFF0000650500409C
:1005600095160040A5EB004095AA0080F5AB000071
:10057000F62A0000A815000054550000540100ADF3
:100580000500009205011000004C0B440B340B00D9
:10059000000125042F07AD050000A905011000008A
:1005A0004C0B440B340B0000012505020700A80A80
:1005B0000000AAAA0200D5370040F7F70340D7DFB2
:1005C0000F40FD570100FCFF000065050040655924
:1005D0000150A55A05F0B96E0FF0ABEA0FF0AAAAC8
:1005E0000F002AA8004005500150055005040600E0
:1005F000000006012800005706440B340B000001E0
:10060000252F002A80AAAA026055550B5855552D52
:100610005855552D5855552D566559B5566559B5EA
:10062000566559B5565555B5565555B5565965B5CE
:1006300058A55A2D5855552F78D5572FE0BFFE0B8A
:10064000802AA8026B0600006706012800005706F2
:10065000440B340B000004000000F05D06AAAAAAB7
:10066000AA55AAAAAAAAAA2502072F0000000000DC
:1006700080020000A00A0000A82A0000E82900006B
:10068000BAA60000BAA60000BAA60000BAA60000EA
:10069000BAA60000BAA60000E8290000A82A0000B7
:1006A000A00A00008002000000000000000000001E
:1006B000800100008001000060050000600500006E
:1006C0006005000060050000700500007005000076
:1006D0006005000060050000600500006005000086
:1006E0008001000080010000000000000000000008
:1006F00080000000800000008000000080000000FA
:100700008000000080000000C0000000C000000069
:1007100080000000800000008000000080000000D9
:1007200080000000800000000000000000000000C9
:10073000C0010000C0010000F0070000F007000049
:10074000F0070000F0070000F0070000F0070000CD
:10075000F0070000F0070000F0070000F0070000BD
:10076000C0010000C0010000000000860700007EFC
:1007700007022800004C0B440B340BD90701250756
:10078000020025020000004001000040010000506E
:1007900005000050050000541500545555155465CA
:1007A00059155065590540655901005555000055CA
:1007B0005500405555014055550140155401500113
:1007C000400550000005EE070000DE07032800008A
:1007D0004C0B440B340BD90701FFFFFFFFFF252F04
:1007E000070425170200250705022504000000550F
:1007F00055005055550554AAAA15A5FEBF5AA5FE89
:10080000BF5A54AAAA155055550500555500004029
:100810000100154001545440011554414115504503
:1008200051055045510540555501005005005C08E3
:1008300000004108012800004C0B440B340B000061
:10084000012507022F5C0800005808012800004C11
:100850000B440B340B0000012507042F005005004A
:10086000005429000055AA004055AA025055A90578
:10087000945A5515A46A5515A56A555AA56A556A1C
:10088000955A556955555555A4FEBF1A00FFFF00EE
:1008900000FFDF0000FFDF0000FC3700C40800009D
:1008A000C00801140000BA080000AF0800000100F1
:1008B000000010B508035555555500000010000004
:1008C00025022700000000000000000000000000DA
:1008D0000000000000000000000000000000000018
:1008E0000050050040555501D45FF517A5FAAF5AE1
:1008F0005555555580AAAA0280AAAA02F00FF03FCA
:100900000000000081090000690906505F094509DF
:1009100021092B09170901000001000410800001C2
:1009200000FFFF0000000000000000000000003198
:100930000955555555000003000000000000000057
:100940000055555555000000F04B09AAAAAAAA0067
:10095000000000000000000000000000000000AAED
:10096000AAAAAAAAAAAAAAFFFF2502270004022768
:1009700000050227000702270003012600002001CE
:1009800020005005000054150000555500405555F5
:1009900001D057D507545EB51554FEBF15556EB935
:1009A00055556AA9555555555554A96A1500AAAA11
:1009B0000000AAAA0FC0ABFA3FC0AFFE3F00BFFFC6
:1009C0000FF2090000EE0901030000D409440B5C9A
:1009D0000B00000100000000DA092EF2090000EE11
:1009E00009010800005C0B00005C0B0000012502FF
:1009F0000000FCFFFF3F575555D5775555DD57553E
:100A000055D5575555D5575555D5575555D557558E
:100A100055D5575555D5575555D5575555D557557E
:100A200055D5575555D5775555DD575555D5FCFFF7
:100A3000FF3F5D0A00004D0A043C00005C0B000013
:100A40005C0B450A01A8822AA8822AA8022502076F
:100A5000002502020025020100250202005455551E
:100A600015A9AAAAEAB9AAAAEEA956A5EAA9F597CC
:100A7000EAA9B5D6EAA9B5D6EAA9BED5EAA96AFD1A
:100A8000EAA96AADEAA9AAAFEAA96AA9EAA96AAD80
:100A9000EAB9AAAFEEA9AAAAEAFFFFFFFFB40A00CB
:100AA00000B00A011000005C0B00005C0B000001AC
:100AB00025001707FFFFFFFFFFFFFFFFFFFFFFFFFF
:100AC000FFAAEAFFBFAAAAFFBF5AA9FDFFD5ABFD47
:100AD000FFAF6AFDFFAF56FFFF7FF5FFFFAFFEFFE1
:100AE000FFAFF6FFFF7FF5FFFFFFFFFFFFFFFFFFF9
:100AF000FFFFFFFF55555555A9AAAA6A19000044E2
:100B000009000040090000400900004009000040C1
:100B100009000040090000400900004009000040B1
:100B2000090000400900004019000044090000408D
:100B300055555555000000003A0B555555550003C5
:100B400055555555FFFF000000000000000000F063
:100B5000520BAAAAAAAA0000000000000000000090
:100B600000004C43446469726563744C56445339C5
:100B70003820323031342D30372D31362030363A6E
:100B800035323A32300011241FBECFE5D2E0DEBF4D
:100B9000CDBF10E0A0E6B0E0EEE2FFE102C00590BC
:100BA0000D92AA36B107D9F711E0AAE6B0E001C06C
:100BB0001D92AE3BB107E1F727D9B7C921CAFC01A5
:100BC0008281861710F0638308958281838308955C
:100BD000FC01118210824283F2CFFC01808191815D
:100BE000181619064CF4808191812281821B91098B
:100BF0009183808381E001C080E0208131819381F5
:100C0000290F311D318320830895823008F5663025
:100C100079F030F4662351F06330D1F492E00BC0E8
:100C2000683041F06A30A1F495E005C091E003C05E
:100C300093E001C094E0813029F083B7887F892B4D
:100C400083BF04C08FB5887F892B8FBD80E0089556
:100C500081E008956430D0F4882319F0813049F0A0
:100C600015C060FD13C0669511F0A89A0DC0A89834
:100C70000BC0613019F486B5816002C086B58E7FE5
:100C800086BD86B58D7F86BD80E0089581E008959C
:100C9000CF93DF93C82FD62F642FDCDF882311F08A
:100CA000806108C06D2F8C2FB0DF882311F0806227
:100CB00001C080E0DF91CF910895843008F042C0F8
:100CC000623008F041C091E0411101C090E082958E
:100CD000807F860F992309F0F894813081F028F005
:100CE0008031B9F08131F9F031C089B7992311F021
:100CF000806101C08F7E89BF88B780611DC089B7C0
:100D0000992311F0886001C0877F89BF88B7886008
:100D100013C089B7992311F0806401C08F7B89BF0C
:100D200088B7806409C089B7992311F0806201C037
:100D30008F7D89BF88B7806288BF992341F07894FE
:100D400090E005C091E003C092E001C093E0892FDC
:100D50000895811101C081E0282F30E040E050E08B
:100D600060EE79E780E090E0BED820936100309398
:100D700062004093630050936400089520916100E5
:100D800030916200409163005091640060EE79E719
:100D900080E090E0A8D8822F089560E08EE890E08F
:100DA0000ECFDE98D69A4FEF60E08EE890E010DF2D
:100DB00080EE99E7A0E0B0E080936100909362003C
:100DC000A0936300B0936400F6C080936A00089516
:100DD0000F931F9344D180917B0090917C00A09150
:100DE0007D00B0917E004091710050917200609141
:100DF000730070917400841B950BA60BB70B409188
:100E000061005091620060916300709164008417EA
:100E10009507A607B70768F180917B0090917C0049
:100E2000A0917D00B0917E0080937100909372003C
:100E3000A0937300B0937400809191006091600062
:100E4000772767FD7095680F711D6F3F710534F04E
:100E50008FEF809360006FEF70E008C016161706E2
:100E60002CF081E08093600060E070E08EE890E01C
:100E7000A6DE80916A00882309F483C0982F9F70B2
:100E8000282F207F31F0911107C021E020937000BE
:100E900003C0911110927000E0917000EE2319F0E0
:100EA00082958F7001C0892F40916F00942F969585
:100EB00000916B0010916C0020916D0030916E00DC
:100EC000981730F580917B0090917C00A0917D0077
:100ED000B0917E00801B910BA20BB30B8032914A24
:100EE000A740B10508F448C080917B0090917C0038
:100EF000A0917D00B0917E0080936B0090936C0078
:100F0000A0936D00B0936E004F5F40936F0034C0AC
:100F100040917B0050917C0060917D0070917E003B
:100F2000401B510B620B730B80E099E0ADE3B0E026
:100F30000E2E04C0880F991FAA1FBB1F0A94D2F758
:100F4000481759076A077B07B8F080917B0090919A
:100F50007C00A0917D00B0917E0080936B00909307
:100F60006C00A0936D00B0936E0010926F0081E052
:100F7000E11180E08093700080916F008095817016
:100F800003C08EE890E029DE882321F0D698DE9A0F
:100F900081E003C0DE98D69A80E01F910F910895FA
:100FA000D698DE9A8FEF00008150E9F789B386FB6F
:100FB000882780F9089582B780937A0010927B0089
:100FC00010927C0010927D0010927E000895E2B78E
:100FD000409176005091770060917800709179008F
:100FE0008E2F90E0452B462B472B71F040917A00D5
:100FF000E41718F42DEE30E002C020E030E0841B4E
:101000009109820F931F06C020917500821B9109E0
:1010100083519F4F40917B0050917C0060917D00F7
:1010200070917E00AA2797FDA095BA2F840F951F77
:10103000A61FB71F80937B0090937C00A0937D0038
:10104000B0937E0010927600109277001092780094
:1010500010927900E0937A00E0937500089522B72A
:1010600030917A00822F90E0831B910940917500A6
:10107000241791F1409176005091770060917800AB
:10108000709179004F5F5F4F6F4F7F4F40937600B5
:10109000509377006093780070937900231710F4D1
:1010A00083519F4F20937A0040917B0050917C00A8
:1010B00060917D0070917E00AA2797FDA095BA2FC0
:1010C000840F951FA61FB71F80937B0090937C0011
:1010D000A0937D00B0937E0008958F929F92AF926F
:1010E000BF92CF92DF92EF92FF92CF93DF9300D027
:1010F00000D0CDB7DEB7C0907B00D0907C00E090F0
:101100007D00F0907E0080907B0090907C00A0900D
:101110007D00B0907E008C189D08AE08BF08861632
:101120009706A806B906B8F080917B0090917C00E4
:10113000A0917D00B0917E000F900F900F900F90C6
:10114000DF91CF91FF90EF90DF90CF90BF90AF9065
:101150009F908F90089569837A838B839C837FDF30
:1011600069817A818B819C81CECF60917B00709167
:101170007C0080917D0090917E000895D798DF9A41
:1011800080E883BD12BC8AB780628ABF8BB7806259
:101190008BBF089589B5826089BD8FE891E0019782
:1011A000F1F700C0000009B400FC02C00000FBCF52
:1011B00089B5846089BD089586E08BBD83E08CBDD0
:1011C0008FEF81BFE7DF8FB5807F81608FBD8FB5E7
:1011D0008F7C8FBD80B7826080BF80B7816080BF09
:1011E00087B5816087BDB99ABA9ABB9ABD9A86B510
:1011F0008C7F86BD89E087BD83E680BF80E384BDA8
:1012000084E08DBD08950F93A82F362F822F90E094
:1012100061E170E024D6FC01E00FF11DE255FF4FC3
:10122000443008F043E050E084E0440F551F8A95B5
:10123000E1F78A2FA43008F083E0482B632F343085
:1012400008F063E0660F660F642B60830F910895CA
:10125000EEEBF0E08FE38083719691E0EE3CF907CE
:10126000D1F708958FE090E00197F1F70895842F6A
:10127000837041F480E000000000000000000000E6
:1012800000000DC0813029F400000000000083E060
:1012900006C0823011F484E002C086E00000942F82
:1012A0009C7041F490E0000000000000000000008D
:1012B00000000DC0943029F491E00000000000000F
:1012C00006C0983011F492E002C093E00000442F71
:1012D000407329F444E000000000000006C04031E3
:1012E00011F445E002C046E0000094BD8ABD4DBD4A
:1012F0006111B8CF0895CF93DF9324E0880F991F31
:101300002A95E1F760E073E0C7D5CB0161E170E0B9
:10131000A6D5EC01C255DF4F488160E081E0A7DF30
:1013200083E580BF81E190E00197F1F7498161E0B9
:1013300080E09DDF4A8161E080E099DF4B8161E0E0
:1013400080E095DF4C8161E080E091DF4D8161E0DC
:1013500080E08DDF4E8161E080E089DF4F8161E0D8
:1013600080E085DF488561E080E081DF498561E0DC
:1013700080E07DDF4A8561E080E079DF4B8561E0D8
:1013800080E075DF4C8561E080E071DF4D8561E0D4
:1013900080E06DDF4E8561E080E069DF4F8561E0D0
:1013A00080E065DF488960E080E061DF1ABC83E6A9
:1013B00080BF80E384BD84E08DBDDF91CF9108952F
:1013C0009093870080938600089530E056E0220FC6
:1013D000331F5A95E1F7FC01A591B591A20FB31FF8
:1013E00070E0660F771F660F771F842F86958695AE
:1013F000680F711DA60FB71FFD01849190E0437027
:10140000440F02C0959587954A95E2F78370089539
:101410006C5F7F4F50E0440F551F440F551F480F1E
:10142000511DFB0185919591840F951FFC018491BD
:101430000895FF920F931F93CF93DF93DC011996CA
:101440000D911C911A97EC0120E030E0F12CC901BC
:1014500063E070E004D5F801E80FF91F31960590BC
:10146000F491E02DAD01420F531F3097C9F014964F
:101470008C911497982F96959695E90FF11DE4910C
:10148000F0E08370880F02C0F595E7958A95E2F742
:101490008E2F8370833029F4FA01828181958283B3
:1014A00080E0FA016281D2D4211101C08195988136
:1014B000980F9993882311F0FF24F3942F5F3F4FE7
:1014C0002230310521F61B962D913C911C97211558
:1014D000310569F11D964C911D97F90170960590A3
:1014E000F491E02D309799F014968C911497982FE1
:1014F000969596959695E90FF11DE491F0E0877029
:1015000002C0F595E7958A95E2F7E17001C0E0E049
:101510008E2F840F1D968C931D97F901369664913A
:10152000AFD41D969C93941711F0FF24F3948F2D44
:10153000DF91CF911F910F91FF9008952F923F92CD
:101540004F925F926F927F928F929F92AF92BF92D3
:10155000CF92DF92EF92FF920F931F93CF93DF937F
:1015600000D000D01F92CDB7DEB79D838C83AB0136
:1015700042967C016115710509F461C0DB013C9064
:101580001196BC91B983FB0107811085A480458425
:1015900031E0A11030E0F70164918A2D71D4592E09
:1015A0008C819D818D599A4079F4A0FC0BC081E01B
:1015B0008A0DFA018483BA018DE99AE0BFDF5524D0
:1015C000539401C0512C31E00115110561F18A2DB0
:1015D000869586958695F801E80FF11DE491F0E077
:1015E0008A2D877002C0F595E7958A95E2F72E2F30
:1015F0002170722EAA2051F18A2D90E00197FC01F2
:1016000023E0F595E7952A95E1F7E00FF11FE491C6
:10161000F0E08770992702C0F595E7958A95E2F783
:10162000E170FF2705C0712CAA2081F0E0E0F0E016
:10163000872D90E0E817F90749F031E007C01982DB
:10164000312C512C412CA12C712C30E0F7018491CC
:10165000823008F031E0BEEAEB2EB0E0FB2E212C08
:10166000FA2DF170FA83C32CDD24C7FCD094B12C81
:1016700010E1812E912C8091A1006980681A620C82
:101680002FE0261508F451C04C815D81465C57401F
:1016900029F497E0961514F4A3E04A2E00E010E038
:1016A0008091A000AC81BD81AD59BA40A9F4FA8106
:1016B000FF2391F0A601481B510987FD5395CA01EC
:1016C000800F911F8A199B09B401FAD3482F87FF15
:1016D00006C040E1480F03C0432D481B400F772050
:1016E00019F05FE0541B452F4031C8F4252D662DBD
:1016F0008C819D813B8369DE3B81882381F0442D71
:101700006C817D8185DE482F407350E03B81403203
:1017100051050CF0805FF701E00FF11F80830F5F30
:101720001F4F0031110509F0BBCF239481E1E80E72
:10173000F11C90E129129FCF832F0F900F900F90F3
:101740000F900F90DF91CF911F910F91FF90EF902D
:10175000DF90CF90BF90AF909F908F907F906F90D1
:101760005F904F903F902F90089582B790918500A1
:10177000890F90919600890F089590936800809347
:10178000670090939E0080939D0010929600FC014C
:1017900038962591359130939A0020939900FC0159
:1017A0003A960590F491E02DF0939C00E0939B0015
:1017B00024912195209392003396249120939300B5
:1017C00041E04093940040939500FC013C962591A4
:1017D0003591309398002093970010929F001092BB
:1017E000AC001092AB001092A4001092A8001092CE
:1017F000A700FC013E960590F491E02DF093AA001D
:10180000E093A900849181958093A0003396849100
:101810008093A1004093A2004093A3001092A600E1
:101820001092A5001092AD000895809167009091EC
:1018300068002AE08233920791F02AE08D399207FE
:10184000A1F483E08093660082E194E090936800C5
:101850008093670080916700909168008ECF81E04F
:101860008093660081EC99E0F1CF8450994091F724
:101870008091960081518D3268F78CE998E0E6CF2F
:101880001F920F920FB60F9211242F933F934F93F5
:101890005F936F937F938F939F93AF93BF93EF93D8
:1018A000FF93C3DF8AB780628ABFFF91EF91BF9138
:1018B000AF919F918F917F916F915F914F913F91E8
:1018C0002F910F900FBE0F901F901895CF9380917E
:1018D0006600813061F5CCE048DF6C2FD1D2892FD2
:1018E00090918900943059F08093890090E089307C
:1018F000910508F042C0FC01ED5EFF4F0994843071
:1019000059F3F2CF86EC97E03AC085E498E037C00F
:101910008EE298E034C08BE697E031C084E099E035
:101920002EC086E995E02BC08FE795E028C0833074
:10193000A1F51BDF6CE0A4D2892F90E089309105DE
:10194000E0F4FC01E45EFF4F09948FE793E017C0D9
:101950008DEE95E014C088E293E011C081ED92E035
:101960000EC087E092E00BC080EB91E008C089E5F3
:1019700091E005C082E890E002C084E496E0909394
:101980006800809367008091660080938400809156
:10199000670090916800CF91F0CECF91089580912B
:1019A0006700909168002AE08233920769F02AE08C
:1019B0008D39920749F029E0813C920721F024E01B
:1019C0008231920731F482DF809167009091680044
:1019D000D4CE25E08639920719F48AE994E015C03F
:1019E00025E08F37920719F488E794E00EC029E0CC
:1019F0008B3D920719F08552944079F4109284003F
:101A0000B4DE80FF07C08DE99AE090936800809370
:101A10006700DACF82E39AE0F8CF809184008330C8
:101A200019F485E294E002C08BED99E09093680090
:101A30008093670010928400C7CFFC016385748592
:101A4000458580E0E5DC282F207330E02032310529
:101A50000CF0805F4EEA50E020E030E0FA01E20F47
:101A6000F31F80832F5F3F4F20313105B9F74F5E61
:101A70005F4FF1E04E3B5F0779F708951F93CF93D7
:101A8000DF93809185008F5F809385008091670050
:101A900090916800909387008093860082E990E09F
:101AA000CCDF82E990E0C5DC811102C01FEF01C0EC
:101AB00010E180EA90E0BDDC811110E180918400AA
:101AC000882329F1833019F4C5E2D4E002C0CBEDBC
:101AD000D9E0E0919700F0919800309791F08091D3
:101AE0009600982F969596959695E90FF11DE4919D
:101AF000F0E0877002C0F595E7958A95E2F7E0FD82
:101B000011C060E070E0CE0119DD811110E162E9E1
:101B100070E0809167009091680010DD882379F073
:101B200010E10DC062E970E080916700909168005B
:101B300005DD811110E160E070E0CE01EECF809113
:101B400096008F5F809396008093A400E0916700D9
:101B5000F091680037969491891708F020DF812F63
:101B6000DF91CF911F91089580916500882351F0F6
:101B7000FCDA60938A0070938B0080938C009093C2
:101B80008D00089580917B0090917C00A0917D0054
:101B9000B0917E0040918A0050918B0060918C0042
:101BA00070918D00841B950BA60BB70B80349D4064
:101BB000A340B105B0F080917B0090917C00A09192
:101BC0007D00B0917E0080938A0090938B00A0935B
:101BD0008C00B0938D0052DF8F3F19F082E080932C
:101BE000650008959C01862F97E0263C390731F463
:101BF0004830E8F4962F91709F5F1CC099E0243024
:101C0000390781F490E08031910550F4FC01EB5DDF
:101C1000FF4F099492E00EC093E00CC094E00AC01C
:101C200095E008C0F901369664912AD103C090E08E
:101C300001C091E0892F08959C01862F9AE02233FC
:101C4000390779F46CE01CD1892F90E08C30910534
:101C500030F4FC01EB5CFF4F099480E0089582E0D2
:101C600008952450394061F447FD03C0411107C075
:101C700001C080E063E004D1089581E0089580E52B
:101C800008951092820010928100109280001092AC
:101C9000830080E384BD84E08DBD0895CF93DF93FE
:101CA00080918000909181008697D82FC92F209134
:101CB000830030918200332339F01DBCECE2F0E068
:101CC0003197F1F735E007C033E03DBDECE2F0E0DD
:101CD0003197F1F734E03DBDE2E0F0E03197F1F704
:101CE000211109DB20918000309181002F5F3F4F4F
:101CF00030938100209380002091800030918100FA
:101D000023323105E1F060F42330310511F51092F2
:101D1000830081E08093820080E484BD85E014C06C
:101D20002632310599F02632334099F4109283001F
:101D30001092810010928000DFEFCFE70AC010926E
:101D4000820080E384BD84E08DBD03C081E0809388
:101D500083008D2F9C2FDF91CF91089582E0809397
:101D6000650008951F920F920FB60F9211242F93C2
:101D70003F934F935F936F937F938F939F93AF9313
:101D8000BF93EF93FF9323D980916500882391F04F
:101D900085DF8F3F9F4771F480917F008F5F809335
:101DA0007F0080916500882329F080916500815033
:101DB00080936500FF91EF91BF91AF919F918F91BB
:101DC0007F916F915F914F913F912F910F900FBE37
:101DD0000F901F9018958DEE83BB62E080E03AD79C
:101DE00063E080E012D741E060E080E066C783CA2C
:101DF00090917F00937081E020918800921301C040
:101E000080E090938800089523DA2EEA30E040E0E5
:101E100080E090E0F901E80FF91F542F580F50832C
:101E2000019680319105B1F74F5F2F5E3F4F4031F2
:101E300079F7D1DFB6D780E08CD7BED99FD9B0D89B
:101E4000811101C0F2DC90DEC3D7F9CF002480FD00
:101E5000060E660F11F08695D1F7802D08950024A7
:101E6000552704C0080E591F880F991F009729F0A5
:101E700076956795B8F37105B9F7802D952F08957C
:101E8000991B79E004C0991F961708F0961B881FCC
:101E90007A95C9F780950895AA1BBB1B51E107C02D
:101EA000AA1FBB1FA617B70710F0A61BB70B881FEA
:101EB000991F5A95A9F780959095BC01CD01089579
:101EC00097FB072E16F4009406D077FD08D0E4DFC8
:101ED00007FC05D03EF4909581959F4F089570952D
:101EE00061957F4F0895A1E21A2EAA1BBB1BFD012D
:101EF0000DC0AA1FBB1FEE1FFF1FA217B307E407E9
:101F0000F50720F0A21BB30BE40BF50B661F771F40
:101F1000881F991F1A9469F7609570958095909520
:0E1F20009B01AC01BD01CF010895F894FFCFE5
:0A1F2E0001E07900000201320A0010
:00000001FF
