:10000000AEC3C8C321C9C6C3C5C3C4C3C3C3C2C367
:10001000C1C3C0C3BFC3BEC3BDC3BCC354CCBAC33A
:10002000B9C3B8C3B7C3CEC8D0C8D2C8D4C8D6C85D
:10003000D8C8DAC8DCC8DEC80BCA0ACA09CA08CAE6
:1000400009CA08CA07CAF7C9F6C9F5C9F6C9F5C980
:10005000F4C9F5C9F4C9F3C911CA10CA0FCA1ECA36
:100060001DCA0ECA0DCA1ACA19CA08CA07CA06CAC0
:10007000B70000008A010118830086002007A50050
:10008000000003FFFFFF008C00102D07ABAA020049
:100090000000B7000000A10101180000AB0020071C
:1000A000A50000000300000010180700B100102D8B
:1000B00007AAAA000000000000000000A80A000033
:1000C000AAAA0200D5370040F7F70340D7DF0F4058
:1000D000FD570100FCFF000055C600C055F503F0B8
:1000E00056F50050AA2A0090AA2A00948A0A000411
:1000F0005001000050050000A80A0000AAAA020052
:10010000D5370040F7F70340D7DF0F40FD57010018
:10011000FCFF0050A505005FA5563F3FE56A3D0F77
:10012000AA2A0480AAAA05A0AAAA05940AA8055486
:100130000000005001000000A80A0000AAAA020066
:10014000D5370040F7F70340D7DF0F40FD570100D8
:10015000FCFF00006505004095160040A5EB00403F
:1001600095AA0080F5AB0000F62A0000A815000053
:1001700054550000540100A50100008A010110003F
:100180000023071E070E0700000125043F07A501F5
:100190000000A1010110000023071E070E07000048
:1001A000012505020700A80A0000AAAA0200D53707
:1001B0000040F7F70340D7DF0F40FD570100FCFF79
:1001C00000006505004065590150A55A05F0B96E5B
:1001D0000FF0ABEA0FF0AAAA0F002AA800400550C2
:1001E0000150055005FC010000F801012800002322
:1001F000071E070E07000001252F000080AAAA0293
:100200006055550958555525585555255855552566
:10021000565555955665599556655995566559954E
:1002200056555595665555995859652558A55A25D9
:100230005855552560955609802AA8028F0200005E
:100240008B020130850261027F024F020000010033
:100250000000005502555555555755554444040066
:1002600000007302F06702AAAAAAAA57555555556D
:1002700055555500000000EAAAEAAAEAAAEAAAFF30
:10028000FF000000000000F807F80725020000004A
:10029000000000000000A00000009800000098008E
:1002A00000A8A60080562A0068A59500566A958089
:1002B000A96595A06665256A655925565955096849
:1002C000555502A056A50200AA2A0000000000F61B
:1002D000020000F20201280000E2021E070E0700E1
:1002E0000004000000F0E802AAAAAAAA55AAAAAA35
:1002F000AAAA2502072F000000000080020000A02B
:100300000A0000A82A0000E8290000BAA60000BAE6
:10031000A60000BAA60000BAA60000BAA60000BA5D
:10032000A60000E8290000A82A0000A00A0000801A
:1003300002000000000000000000008001000080BA
:10034000010000600500006005000060050000601D
:1003500005000070050000700500006005000060E9
:1003600005000060050000600500008001000080BD
:10037000010000000000000000000080000000807C
:10038000000000800000008000000080000000806D
:10039000000000C0000000C00000008000000080DD
:1003A000000000800000008000000080000000804D
:1003B0000000000000000000000000C0010000C0BC
:1003C000010000F0070000F0070000F0070000F057
:1003D000070000F0070000F0070000F0070000F041
:1003E000070000F0070000F0070000C0010000C097
:1003F000010000000000730400005B04065051047B
:10040000370413041D0409040100000100041080D6
:10041000000100FFFF0000000000000000000000DD
:10042000002304555555550000030000000000004E
:1004300000000055555555000000F03D04AAAAAA39
:10044000AA00000000000000000000000000000002
:1004500000AAAAAAAAAAAAAAAAFFFF2502270008F8
:100460000227000E0227000A0227000301260000CF
:100470002001200050050000541500005555004093
:10048000555501D057D507545EB51554FEBF1555C7
:100490006EB955556AA9555555555554A96A150053
:1004A000AAAA0000AAAA0FC0ABFA3FC0AFFE3F0045
:1004B000BFFF0FCE040000C6040228000023071E61
:1004C000070E07B9060125070200250200000040BB
:1004D00001000040010000500500005005000054DC
:1004E0001500545555155465591550655905406505
:1004F00059010055550000555500405555014055CE
:1005000055014015540150014005500000053C05BF
:10051000000021050128000023071E070E07000028
:10052000012507022F3C05000038050128000023A3
:10053000071E070E070000012507042F00500500C5
:10054000005429000055AA004055AA025055A9059B
:10055000945A5515A46A5515A56A555AA56A556A3F
:10056000955A556955555555A4FEBF1A00FFFF0011
:1005700000FFDF0000FFDF0000FC3700A4050000E3
:10058000A005011400009A0500008F05000001007D
:10059000000010950503555555550000001000004A
:1005A00025022700000000000000000000000000FD
:1005B000000000000000000000000000000000003B
:1005C0000050050040555501D45FF517A5FAAF5A04
:1005D0005555555580AAAA0280AAAA02F00FF03FED
:1005E00000000000FB050000F705010800003307CC
:1005F0000000330700000125020000FCFFFF3F5709
:100600005555D5775555DD575555D5575555D5576A
:100610005555D5575555D5575555D5575555D55782
:100620005555D5575555D5575555D5575555D57752
:100630005555DD575555D5FCFFFF3F660600005662
:1006400006043C00003307000033074E0601A88271
:100650002AA8822AA80225020700250202002502F4
:1006600001002502020054555515A9AAAAEAB9AA03
:10067000AAEEA956A5EAA9F597EAA9B5D6EAA9B5B9
:10068000D6EAA9BED5EAA96AFDEAA96AADEAA9AA8D
:10069000AFEAA96AA9EAA96AADEAB9AAAFEEA9AA1E
:1006A000AAEAFFFFFFFFCE060000BE0603280000F7
:1006B00023071E070E07B90601FFFFFFFFFF252FC7
:1006C0000704251702002507050225040000005530
:1006D00055005055550554AAAA15A5FEBF5AA5FEAA
:1006E000BF5A54AAAA15505555050055550000404B
:1006F0000100154001545440011554414115504525
:100700005105504551054055550100500500000068
:100710000000140755555555000355555555FFFF15
:10072000000000000000F02907AAAAAAAA00000001
:100730000000000000000000004C43446469726542
:1007400063744C564453393020323031342D3037B5
:100750002D31302030353A32363A34300000112411
:100760001FBECFE5D2E0DEBFCDBF10E0A0E6B0E017
:10077000EEEDFAE102C005900D92AA36B107D9F765
:1007800011E0AAE6B0E001C01D92A03CB107E1F77C
:1007900004D9A3C935CCFC018281861710F063838C
:1007A0000895828183830895FC011182108242831F
:1007B000F2CFFC0180819181181619064CF48081DA
:1007C00091812281821B91099183808381E001C004
:1007D00080E0208131819381290F311D3183208375
:1007E0000895823008F5663079F030F4662351F0D0
:1007F0006330D1F492E00BC0683041F06A30A1F46C
:1008000095E005C091E003C093E001C094E0813021
:1008100029F083B7887F892B83BF04C08FB5887F79
:10082000892B8FBD80E0089581E008956430D0F475
:10083000882319F0813049F015C060FD13C066951A
:1008400011F0A89A0DC0A8980BC0613019F486B5B4
:10085000816002C086B58E7F86BD86B58D7F86BDE0
:1008600080E0089581E00895CF93DF93C82FD62FBD
:10087000642FDCDF882311F0806108C06D2F8C2F7E
:10088000B0DF882311F0806201C080E0DF91CF915A
:100890000895843008F042C0623008F041C091E011
:1008A000411101C090E08295807F860F992309F065
:1008B000F894813081F028F08031B9F08131F9F07D
:1008C00031C089B7992311F0806101C08F7E89BF43
:1008D00088B780611DC089B7992311F0886001C075
:1008E000877F89BF88B7886013C089B7992311F0C3
:1008F000806401C08F7B89BF88B7806409C089B7D5
:10090000992311F0806201C08F7D89BF88B7806212
:1009100088BF992341F0789490E005C091E003C02E
:1009200092E001C093E0892F0895811101C081E018
:10093000282F30E040E050E060EE79E780E090E082
:10094000AAD82093610030936200409363005093D3
:10095000640008952091610030916200409163002D
:100960005091640060EE79E780E090E094D8822FA7
:10097000089560E08EE890E00ECFC198B99A4FEFED
:1009800060E08EE890E010DF80EE99E7A0E0B0E054
:100990008093610090936200A0936300B093640021
:1009A000F5C080936A0008950F931F9343D18091FF
:1009B0007B0090917C00A0917D00B0917E004091E1
:1009C0007100509172006091730070917400841BEB
:1009D000950BA60BB70B409161005091620060919E
:1009E00063007091640084179507A607B70768F144
:1009F00080917B0090917C00A0917D00B0917E0061
:100A00008093710090937200A0937300B093740070
:100A10008091910060916000772767FD7095680F65
:100A2000711D6F3F710534F08FEF809360006FEFA1
:100A300070E008C0161617062CF081E08093600065
:100A400060E070E08EE890E0A6DE80916A00882386
:100A500009F483C0982F9F70282F207F31F09111C7
:100A600007C021E02093700003C091111092700024
:100A7000E0917000EE2319F082958F7001C0892FEC
:100A800040916F00942F969500916B0010916C002F
:100A900020916D0030916E00981730F580917B00A9
:100AA00090917C00A0917D00B0917E00801B910B05
:100AB000A20BB30B8032914AA740B10508F448C09D
:100AC00080917B0090917C00A0917D00B0917E0090
:100AD00080936B0090936C00A0936D00B0936E00B8
:100AE0004F5F40936F0034C040917B0050917C0079
:100AF00060917D0070917E00401B510B620B730B67
:100B000080E099E0ADE3B0E00E2E04C0880F991F9D
:100B1000AA1FBB1F0A94D2F7481759076A077B0719
:100B2000B8F080917B0090917C00A0917D00B09105
:100B30007E0080936B0090936C00A0936D00B09347
:100B40006E0010926F0081E0E11180E080937000F0
:100B500080916F008095817003C08EE890E029DE5F
:100B6000882321F0B998C19A81E003C0C198B99A4D
:100B700080E01F910F910895B998C19A8FEF0000FE
:100B80008150E9F786B386958170089582B7809386
:100B90007A0010927B0010927C0010927D001092DF
:100BA0007E000895E2B74091760050917700609101
:100BB0007800709179008E2F90E0452B462B472BC3
:100BC00071F040917A00E41718F427E830E002C091
:100BD00020E030E0841B9109820F931F06C0209112
:100BE0007500821B910989579F4F40917B0050915E
:100BF0007C0060917D0070917E00AA2797FDA095F2
:100C0000BA2F840F951FA61FB71F80937B00909368
:100C10007C00A0937D00B0937E001092760010922D
:100C200077001092780010927900E0937A00E093B8
:100C30007500089522B730917A00822F90E0831BCF
:100C4000910940917500241791F1409176005091DF
:100C5000770060917800709179004F5F5F4F6F4F20
:100C60007F4F4093760050937700609378007093A5
:100C70007900231710F489579F4F20937A004091F1
:100C80007B0050917C0060917D0070917E00AA27CE
:100C900097FDA095BA2F840F951FA61FB71F8093AD
:100CA0007B0090937C00A0937D00B0937E0008951C
:100CB0008F929F92AF92BF92CF92DF92EF92FF926C
:100CC000CF93DF9300D000D0CDB7DEB7C0907B00CC
:100CD000D0907C00E0907D00F0907E0080907B00C2
:100CE00090907C00A0907D00B0907E008C189D08B4
:100CF000AE08BF0886169706A806B906B8F0809118
:100D00007B0090917C00A0917D00B0917E000F90BF
:100D10000F900F900F90DF91CF91FF90EF90DF90A9
:100D2000CF90BF90AF909F908F90089569837A8302
:100D30008B839C837FDF69817A818B819C81CECF7D
:100D400060917B0070917C0080917D0090917E008D
:100D5000089589B5826089BD8FE891E00197F1F728
:100D600000C0000009B400FC02C00000FBCF89B540
:100D7000846089BD0895D798DF9A80E883BD12BC4E
:100D80008AB780628ABF8BB780628BBF08950F934A
:100D9000A82F362F822F90E061E170E038D6FC0159
:100DA000E00FF11DE055FF4F443008F043E050E004
:100DB00084E0440F551F8A95E1F78A2FA43008F08C
:100DC00083E0482B632F343008F063E0660F660F32
:100DD000642B60830F910895E0ECF0E0108271962F
:100DE00081E0E03DF807D1F7089590938700809364
:100DF0008600089530E056E0220F331F5A95E1F740
:100E0000FC01A591B591A20FB31F70E0660F771F8B
:100E1000660F771F842F86958695680F711DA60F24
:100E2000B71FFD01849190E04370440F02C0959577
:100E300087954A95E2F7837008956C5F7F4F50E085
:100E4000440F551F440F551F480F511DFB0185913D
:100E50009591840F951FFC0184910895EF92FF9264
:100E60000F931F93CF93DF93DC0119960D911C9183
:100E70001A97EC0120E030E0C90163E070E0C7D5CB
:100E8000800F911F0196FC01E590F590AD01420F96
:100E9000531FE114F104D1F014966C911497862F2E
:100EA00086958695F701E80FF11DE4918E2F90E06D
:100EB0006370660F02C0959587956A95E2F7837017
:100EC000833029F4FA0182818195828380E0FA01DE
:100ED000628194D5211101C081959881980F9993D1
:100EE0002F5F3F4F2230310539F61D968C911D97AB
:100EF0001B962D913C911C97F90170960590F491E9
:100F0000E02D309799F014969C911497492F4695AF
:100F100046954695E40FF11DE491F0E0977002C00C
:100F2000F595E7959A95E2F7E17001C0E0E08E0F44
:100F30001D968C931D97F9013696649179D51D966F
:100F40009C93DF91CF911F910F91FF90EF900895A7
:100F50002F923F924F925F926F927F928F929F92C9
:100F6000AF92BF92CF92DF92EF92FF920F931F93B7
:100F7000CF93DF9300D000D01F92CDB7DEB77C01B6
:100F80007D836C836115710551F0FB012080F18137
:100F9000F983FB01A780B0848481558506C019823E
:100FA000212C80E0A12CB12C50E0982F969596959D
:100FB00096952501490E511C877088248394912CA5
:100FC00002C0880C991C8A95E2F7B0EBCB2EB0E0FA
:100FD000DB2E312C80E03701F2E16F0E711C909115
:100FE000A1003981391B330D303108F044C086EA45
:100FF000E81686E0F80619F438300CF053E000E00B
:1010000010E08091A000422D481B400FA114B104B4
:1010100051F0F201849190E088219921892B19F0F7
:10102000FFE0F41B4F2F403100F5EC81FD818481FE
:10103000F3016491FDD4292F632FC7013B835A83A9
:10104000D9DE3B815A81882381F0452FB701F5DE37
:10105000682F607370E03B815A81603271050CF03B
:10106000805FF601E00FF11F80830F5F1F4F00319B
:10107000110539F6832D3394F1E1CF0ED11C90E1A7
:101080003912ADCF0F900F900F900F900F90DF910E
:10109000CF911F910F91FF90EF90DF90CF90BF9075
:1010A000AF909F908F907F906F905F904F903F9008
:1010B0002F900895109284009093680080936700A9
:1010C00090939E0080939D0010929600FC013896AC
:1010D0002591359130939A0020939900FC013A961E
:1010E0000590F491E02DF0939C00E0939B002491F7
:1010F000219520939200339624912093930041E010
:101100004093940040939500FC013C9625913591C5
:10111000309398002093970010929F001092AC009B
:101120001092AB001092A4001092A8001092A70099
:10113000FC013E960590F491E02DF093AA00E09317
:10114000A900849181958093A00033968491809327
:10115000A1004093A2004093A3001092A600109219
:10116000A5001092AD0008951F93CF93DF93809157
:1011700067009091680026E08B33920709F04BC01E
:101180002091850030E0E0918400F0E0109189002A
:10119000CCE0D0E082B7A901480F511DCA018E0FE3
:1011A0009F1FBE0165D4482F143049F04093890039
:1011B0008930910510F5FC01ED5EFF4F09948430F4
:1011C00049F3F4CF86EA96E01AC085E295E017C0AD
:1011D0008EE095E014C083EB94E011C086EF93E0BD
:1011E0000EC08CE392E00BC085EE91E008C08EE863
:1011F00091E005C087E791E002C08FEC92E0909308
:1012000068008093670081E08093660080916700AA
:101210009091680011C0865F934091F480918400A2
:1012200081518D3268F481E0809366008CE795E00F
:101230009093680080936700DF91CF911F913ACF20
:10124000DF91CF911F9108951F920F920FB60F92C9
:1012500011242F933F934F935F936F937F938F93BB
:101260009F93AF93BF93EF93FF937EDF8AB7806224
:101270008ABFFF91EF91BF91AF919F918F917F9125
:101280006F915F914F913F912F910F900FBE0F90F3
:101290001F901895809167009091680026E08B332D
:1012A000920739F121E08E38920731F481E0809382
:1012B000660082E990E014C021E08737920731F49C
:1012C00081E08093660080E790E00AC0109266009B
:1012D000845E954019F48BE396E002C084EE95E0BD
:1012E00090936800809367008091670090916800F8
:1012F000E1CE0895FC0163857485458580E09DDD20
:10130000282F207330E0203231050CF0805F40EB55
:1013100050E020E030E0FA01E20FF31F80832F5FFE
:101320003F4F20313105B9F74F5E5F4FF1E0403C50
:101330005F0779F70895CF93809185008F5F809341
:10134000850080916700909168009093870080935A
:10135000860080918400809396008093A40082E9A7
:1013600090E0C8DF82E990E079DD80EA90E076DD08
:1013700080916600882361F1E0919700F0919800D8
:10138000309791F080919600982F96959695969526
:10139000E90FF11DE491F0E0877002C0F595E79543
:1013A0008A95E2F7E0FD06C060E070E084EE95E02B
:1013B000CFDD0EC062E970E0809167009091680017
:1013C000C7DDC82F60E070E084EE95E0C1DD08C0A5
:1013D00062E970E08091670090916800B9DDC82FE4
:1013E000909184009F5F90938400E0916700F0915A
:1013F000680037968491981718F0109284004ADF9D
:101400008C2FCF9108959C01862F96E0263A3907BC
:1014100031F44830E8F4962F91709F5F1CC093E040
:10142000263F390781F490E08031910550F4FC01AA
:10143000E45EFF4F099492E00EC093E00CC094E08C
:101440000AC095E008C0F90136966491F1D203C054
:1014500090E001C091E0892F08959C01862F96E0CD
:101460002B33390779F46CE0E3D2892F90E08C308C
:10147000910530F4FC01E45DFF4F099480E008958C
:1014800082E00895265F334061F447FD03C04111B7
:1014900007C001C080E063E0CBD2089581E00895E9
:1014A00080E50895109282001092810010928000D1
:1014B0001092830088B3806388BB8BB38F7C8BBB17
:1014C0000895CF93DF93C0918000D0918100A897B9
:1014D00020918300CE0134E0880F991F3A95E1F7FF
:1014E00060EA70E0B1D2CB0161E170E090D280554A
:1014F0009F4F9093AF008093AE0080918200C4987C
:10150000882321F189E090E00000C3980000C39A8D
:1015100001970097C9F7C49A87E090E00000C3984C
:101520000000C39A01970097C9F7222309F435C137
:10153000E091AE00F091AF008081806C8BBB000029
:10154000C3980000C39A8DE090E014C089E090E059
:101550000000C3980000C39A01970097C9F7C49A86
:1015600087E090E00000C3980000C39A01970097BD
:10157000C9F7DBCF0000C3980000C39A019700971A
:10158000C9F78181806C8BBB0000C3980000C39AAF
:101590008DE090E00000C3980000C39A0197009787
:1015A000C9F78281806C8BBB0000C3980000C39A8E
:1015B0008DE090E00000C3980000C39A0197009767
:1015C000C9F78381806C8BBB0000C3980000C39A6D
:1015D0008DE090E00000C3980000C39A0197009747
:1015E000C9F78481806C8BBB0000C3980000C39A4C
:1015F0008DE090E00000C3980000C39A0197009727
:10160000C9F78581806C8BBB0000C3980000C39A2A
:101610008DE090E00000C3980000C39A0197009706
:10162000C9F78681806C8BBB0000C3980000C39A09
:101630008DE090E00000C3980000C39A01970097E6
:10164000C9F78781806C8BBB0000C3980000C39AE8
:101650008DE090E00000C3980000C39A01970097C6
:10166000C9F78085806C8BBB0000C3980000C39ACB
:101670008DE090E00000C3980000C39A01970097A6
:10168000C9F78185806C8BBB0000C3980000C39AAA
:101690008DE090E00000C3980000C39A0197009786
:1016A000C9F78285806C8BBB0000C3980000C39A89
:1016B0008DE090E00000C3980000C39A0197009766
:1016C000C9F78385806C8BBB0000C3980000C39A68
:1016D0008DE090E00000C3980000C39A0197009746
:1016E000C9F78485806C8BBB0000C3980000C39A47
:1016F0008DE090E00000C3980000C39A0197009726
:10170000C9F78585806C8BBB0000C3980000C39A25
:101710008DE090E00000C3980000C39A0197009705
:10172000C9F78685806C8BBB0000C3980000C39A04
:101730008DE090E00000C3980000C39A01970097E5
:10174000C9F78785806C8BBB0000C3980000C39AE3
:101750008DE090E00000C3980000C39A01970097C5
:10176000C9F78089806C8BBB0000C3980000C39AC6
:1017700080E190E00000C3980000C39A01970097B1
:10178000C9F78BB38C7F8BBB88B3806388BB8BB36B
:101790008F7C8BBB80E190E00AC080EF90E000007E
:1017A000C3980000C39A01970097C9F7F3CF0000D0
:1017B000C3980000C39A01970097C9F72091800051
:1017C000309181002F5F3F4F309381002093800044
:1017D00024323105D1F050F424313105E9F410926E
:1017E000830081E080938200C59816C028323105BD
:1017F00081F0283C310581F4109283001092810021
:1018000010928000CFEFDFE707C010928200C59AE8
:1018100003C081E080938300CE01DF91CF910895D2
:1018200081E08093650093E09BBD8CBD8FB5807F88
:1018300081608FBD8FB58F7C8FBD86B58C7F86BD57
:1018400080B78F7C80BF80B78E7F80BF08958091E6
:101850006500882351F074DA60938A0070938B00DE
:1018600080938C0090938D00089580917B009091DF
:101870007C00A0917D00B0917E0040918A00509143
:101880008B0060918C0070918D00841B950BA60BD2
:10189000B70B80349D40A340B105A0F080917B0040
:1018A00090917C00A0917D00B0917E0080938A0091
:1018B00090938B00A0938C00B0938D003CDD8F3F04
:1018C00009F0AECF08951F920F920FB60F92112418
:1018D0002F933F934F935F936F937F938F939F9338
:1018E000AF93BF93EF93FF935DD9809165008823F9
:1018F00059F1E7DD8F3F9F4739F580917F008F5F7A
:1019000080937F0080916500882329F08091650095
:1019100081508093650080916500811115C083E03E
:101920008BBD81E08CBD8FB5807F81608FBD8FB511
:101930008F7C8FBD86B58C7F86BD80B78F7C8062A3
:1019400080BF80B7816080BFFF91EF91BF91AF9161
:101950009F918F917F916F915F914F913F912F91C7
:101960000F900FBE0F901F90189587E883BB62E021
:1019700080E05CD763E080E034D741E060E080E065
:1019800088C790917F00937081E020918800921326
:1019900001C080E09093880008951EDA20EB30E0CB
:1019A00040E080E090E0F901E80FF91F542F580F54
:1019B0005083019680319105B1F74F5F2F5E3F4F05
:1019C000403179F7D2DFD9D780E0AFD7BB9ABC9A44
:1019D000BD9ABE9A8AB38F638ABBC69A88B3806366
:1019E00088BB8BB38F7C8BBB8BB3837F8BBB8BB361
:1019F0008C7F8BBBC0D92BDFD7D7FDCF002480FDD8
:101A0000060E660F11F08695D1F7802D08950024FB
:101A1000552704C0080E591F880F991F009729F0F9
:101A200076956795B8F37105B9F7802D952F0895D0
:101A3000991B79E004C0991F961708F0961B881F20
:101A40007A95C9F780950895AA1BBB1B51E107C081
:101A5000AA1FBB1FA617B70710F0A61BB70B881F3E
:101A6000991F5A95A9F780959095BC01CD010895CD
:101A700097FB072E16F4009406D077FD08D0E4DF1C
:101A800007FC05D03EF4909581959F4F0895709581
:101A900061957F4F0895A1E21A2EAA1BBB1BFD0181
:101AA0000DC0AA1FBB1FEE1FFF1FA217B307E4073D
:101AB000F50720F0A21BB30BE40BF50B661F771F95
:101AC000881F991F1A9469F7609570958095909575
:0E1AD0009B01AC01BD01CF010895F894FFCF3A
:0A1ADE0001E079000001013C020064
:00000001FF
