:1000000025C23FC23EC23DC23CC23BC23AC239C217
:1000100038C237C236C235C234C233C2FCC531C25F
:1000200030C22FC22EC2000092012403B60448063B
:10003000D9076A09FB0A8C0C1C0EAB0F3A11C812C7
:100040005514E2156E17F918821A0B1C931D1A1F0E
:100050009F202322A6232825A8262628A3291F2B54
:10006000992C112E872FFB306E32DF334D35BA3687
:1000700024388C39F23A563CB83D173F7340CE4194
:1000800025437A44CD451C476948B449FB4A3F4C57
:10009000814DBF4EFB4F335168529B53C954F555A8
:1000A0001D5742586459825A9C5BB35CC75DD75E4A
:1000B000E35FEB60F061F162EE63E864DD65CF66FB
:1000C000BC67A6688B696D6A4A6B236CF86CC96D56
:1000D000966E5E6F2270E2709D7154720773B573F5
:1000E0005F740475A5754176D8766B77FA77847856
:1000F00009798979057A7C7AEE7A5C7BC57B297CE3
:10010000887CE37C397D897DD57D1D7E5F7E9C7EEC
:10011000D57E097F377F617F867FA67FC17FD87FAD
:10012000E97FF57FFD7FFF7F000C36360C001C0653
:1001300018060000000000601E0C1E1E383F1C3F09
:100140001E1E00001800061E3E0C3F3C3F7F7F3CF9
:10015000331E78670F63631C3F1E3F1E3F333363BC
:1001600063337F1E031E08000C00070038001C00CC
:10017000070C18070E000000000000000800000037
:100180000000003818076E0E001E36363E63360635
:100190000C0C660C00000030330F33333C03063385
:1001A000333300000C000C33631E66663646466629
:1001B000330C306606776736663366332D33336328
:1001C0006333330606181C000C00060030003600AE
:1001D000060000060C000000000000000C000000FB
:1001E0000000000C180C3B13001E367F03331C0369
:1001F00006183C0C000000183B0C3030361F033052
:1002000033330C0C063F18307B3366036616160337
:10021000330C3036067F6F63663366070C33336307
:10022000363319060C183600181E3E1E301E066E98
:10023000360E1E660C371F1E3B6E1B3E3E3333636D
:1002400063333F0C180C0039000C00361E186E008A
:100250000618FF3F003F000C3F0C1C1C33301F18DA
:100260001E3E0C0C030030187B333E03661E1E033B
:100270003F0C301E066B7B633E333E1C0C33336BEE
:100280001C1E0C0618186300003066333E330F3313
:100290006E0C18360C7F3333663336030C333363FE
:1002A0003633190700380069000C007F300C3B0022
:1002B00006183C0C00000006370C06307F30330C6B
:1002C00033300000063F180C7B3F6603661616733A
:1002D000330C333646637363063B1E380C33337F6F
:1002E000360C460630180000003E6603333F0633E6
:1002F000660C181E0C6B33336633361E0C33336BAF
:100300001C330C0C180C000E000000361F66330066
:100310000C0C660C0E000C03330C333330333306F5
:1003200033180C0E0C000C00033366663646066666
:10033000330C336666636336061E36330C331E7722
:10034000630C630660180000003366333303063E17
:10035000660C18360C6333333E3E06302C331E7F5A
:10036000363E260C180C00F3000C00360C636E00B1
:10037000180600000C000C011E3F3F1E301E1E061A
:100380001E0E0C0C1800060C1E333F3C3F7F0F7CEA
:10039000331E1E677F63631C0F38671E1E3F0C638E
:1003A000631E7F1E401E0000006E3D1E6E1E0F303D
:1003B000671E1B671E63331E06300F1F186E0C3638
:1003C00063303F38180700460000000000000000BE
:1003D0000000000006000000000000000000000017
:1003E0000000000600000000000000000000000007
:1003F00000000000000000000000000000000000FD
:1004000000000000000000FF000000000000001FCE
:1004100000000E00000000000F7800000000000047
:10042000001F0000000000F44C43446469726563DF
:10043000744C564453393520323031342D30372DF9
:1004400031322030383A34343A32330011241FBE6E
:10045000CFE5D2E0DEBFCDBF10E0A0E6B0E0EAE439
:10046000FDE002C005900D92A636B107D9F710E065
:10047000A6E6B0E001C01D92A538B107E1F713D49C
:1004800062C4BECDFC018281861710F0638308959B
:10049000828183830895FC01118210824283F2CF0E
:1004A000FC0180819181181619064CF4808191819C
:1004B0002281821B91099183808381E001C080E0C9
:1004C000208131819381290F311D3183208308954B
:1004D000823008F5663079F030F4662351F06330ED
:1004E000D1F492E00BC0683041F06A30A1F495E09D
:1004F00005C091E003C093E001C094E0813029F091
:1005000083B7887F892B83BF04C08FB5887F892BF1
:100510008FBD80E0089581E008956430D0F4882391
:1005200019F0813049F015C060FD13C0669511F0D7
:10053000A89A0DC0A8980BC0613019F486B58160E7
:1005400002C086B58E7F86BD86B58D7F86BD80E074
:10055000089581E00895CF93DF93C82FD62F642F9D
:10056000DCDF882311F0806108C06D2F8C2FB0DF95
:10057000882311F0806201C080E0DF91CF9108955F
:10058000843008F042C0623008F041C091E041116F
:1005900001C090E08295807F860F992309F0F8943E
:1005A000813081F028F08031B9F08131F9F031C02B
:1005B00089B7992311F0806101C08F7E89BF88B708
:1005C00080611DC089B7992311F0886001C0877FC1
:1005D00089BF88B7886013C089B7992311F08064F8
:1005E00001C08F7B89BF88B7806409C089B7992310
:1005F00011F0806201C08F7D89BF88B7806288BF9B
:10060000992341F0789490E005C091E003C092E016
:1006100001C093E0892F0895811101C081E0282F46
:1006200030E040E050E060EE79E780E090E055D3C4
:100630002093610030936200409363005093640004
:1006400008952091610030916200409163005091C3
:10065000640060EE79E780E090E03FD3822F089558
:1006600060E081E890E00ECFDE98D69A4FEF60E030
:1006700081E890E010DF80EE99E7A0E0B0E08093A1
:10068000610090936200A0936300B0936400F6C091
:100690008093660008950F931F9344D18091770053
:1006A00090917800A0917900B0917A0040916D000E
:1006B00050916E0060916F0070917000841B950BDB
:1006C000A60BB70B409161005091620060916300EE
:1006D0007091640084179507A607B70768F18091A9
:1006E000770090917800A0917900B0917A00809382
:1006F0006D0090936E00A0936F00B0937000809196
:10070000840060916000772767FD7095680F711D08
:100710006F3F710534F08FEF809360006FEF70E0F2
:1007200008C0161617062CF081E08093600060E088
:1007300070E081E890E0A6DE80916600882309F4ED
:1007400083C0982F9F70282F207F31F0911107C010
:1007500021E020936C0003C0911110926C00E09195
:100760006C00EE2319F082958F7001C0892F4091A3
:100770006B00942F9695009167001091680020916E
:10078000690030916A00981730F580917700909158
:100790007800A0917900B0917A00801B910BA20B98
:1007A000B30B8032914AA740B10508F448C080914C
:1007B000770090917800A0917900B0917A008093B1
:1007C000670090936800A0936900B0936A004F5F40
:1007D00040936B0034C04091770050917800609155
:1007E000790070917A00401B510B620B730B80E013
:1007F00099E0ADE3B0E00E2E04C0880F991FAA1F48
:10080000BB1F0A94D2F7481759076A077B07B8F04D
:100810008091770090917800A0917900B0917A0052
:100820008093670090936800A0936900B0936A007A
:1008300010926B0081E0E11180E080936C00809168
:100840006B008095817003C081E890E029DE8823E9
:1008500021F0D698DE9A81E003C0DE98D69A80E037
:100860001F910F910895D698DE9A8FEF0000815066
:10087000E9F789B386FB882780F9089582B78093CA
:100880007600109277001092780010927900109202
:100890007A000895E2B74091720050917300609120
:1008A0007400709175008E2F90E0452B462B472BDE
:1008B00071F040917600E41718F42FED30E002C09B
:1008C00020E030E0841B9109820F931F06C0209125
:1008D0007100821B910981529F4F40917700509186
:1008E00078006091790070917A00AA2797FDA09511
:1008F000BA2F840F951FA61FB71F80937700909380
:100900007800A0937900B0937A0010927200109250
:1009100073001092740010927500E0937600E093DB
:100920007100089522B730917600822F90E0831BEA
:10093000910940917100241791F1409172005091FA
:10094000730060917400709175004F5F5F4F6F4F3F
:100950007F4F4093720050937300609374007093C4
:100960007500231710F481529F4F20937600409119
:100970007700509178006091790070917A00AA27F1
:1009800097FDA095BA2F840F951FA61FB71F8093C0
:10099000770090937800A0937900B0937A0008953F
:1009A0008F929F92AF92BF92CF92DF92EF92FF927F
:1009B000CF93DF9300D000D0CDB7DEB7C0907700E3
:1009C000D0907800E0907900F0907A0080907700E5
:1009D00090907800A0907900B0907A008C189D08D3
:1009E000AE08BF0886169706A806B906B8F080912B
:1009F000770090917800A0917900B0917A000F90E3
:100A00000F900F900F90DF91CF91FF90EF90DF90BC
:100A1000CF90BF90AF909F908F90089569837A8315
:100A20008B839C837FDF69817A818B819C81CECF90
:100A300060917700709178008091790090917A00B0
:100A4000089560E072E036D197FD9E5F8038910591
:100A500084F08F3F910529F024F0803851E095070C
:100A60003CF420E031E0A901481B590BCA0108956C
:100A700092500895E6DF97FF05C091958195910901
:100A800021E001C020E0FC01EE0FFF1FEA5DFF4FF7
:100A900085919491222319F091958195910908955A
:100AA000D0DF97FF05C091958195910921E001C0A4
:100AB00020E0FC01EE0FFF1FE95DFF4F8491211143
:100AC0008195089589B5826089BD8FE891E001978D
:100AD000F1F700C0000009B400FC02C00000FBCF29
:100AE00089B5846089BD089586E08BBD83E08CBDA7
:100AF0008FEF81BFE7DF8FB5807F81608FBD8FB5BE
:100B00008F7C8FBD80B7826080BF80B7816080BFDF
:100B100087B5816087BDB99ABA9ABB9ABD9A86B5E6
:100B20008C7F86BD89E087BD83E680BF80E384BD7E
:100B300084E08DBD089510927E0010927D00109289
:100B40007C0010927F0080E384BD84E08DBD089519
:100B50008FEF8DBD83E991E00197F1F780E384BDCC
:100B600084E08DBD0895CF93DF9380917C009091B8
:100B70007D000797D82FC92F20917F0030917E00EC
:100B8000332319F01DBC35E003C033E03DBD34E034
:100B90003DBD2111DDDF20917C0030917D002F5F74
:100BA0003F4F30937D0020937C0020917C0030915A
:100BB0007D0024303105E1F060F42330310511F57A
:100BC00010927F0081E080937E0080E484BD85E008
:100BD00014C02730310599F02730334099F4109232
:100BE0007F0010927D0010927C00DFEFCFE70AC0FB
:100BF00010927E0080E384BD84E08DBD03C081E05F
:100C000080937F008D2F9C2FDF91CF91089581E0FD
:100C10008093650008951F920F920FB60F921124D2
:100C20002F933F934F935F936F937F938F939F93F4
:100C3000AF93BF93EF93FF932DDE809165008823E0
:100C400049F091DF8F3F9F4729F480917B008F5FB0
:100C500080937B00FF91EF91BF91AF919F918F9116
:100C60007F916F915F914F913F912F910F900FBEA8
:100C70000F901F9018958FED83BB62E080E04DDCF4
:100C800063E080E025DC41E060E080E079CC909199
:100C90007B00937081E020918000921301C080E07E
:100CA000909380000895E7DFDFDC80E0B5DC1CDF97
:100CB000F2DCFECF97FB072E16F4009406D077FDEA
:100CC00008D02DD007FC05D03EF4909581959F4F1C
:100CD0000895709561957F4F0895A1E21A2EAA1B81
:100CE000BB1BFD010DC0AA1FBB1FEE1FFF1FA217DC
:100CF000B307E407F50720F0A21BB30BE40BF50BD9
:100D0000661F771F881F991F1A9469F76095709561
:100D1000809590959B01AC01BD01CF010895AA1B60
:100D2000BB1B51E107C0AA1FBB1FA617B70710F0D6
:100D3000A61BB70B881F991F5A95A9F78095909508
:0A0D4000BC01CD010895F894FFCF27
:060D4A0001E07900000148
:00000001FF
