:1000000060C37AC379C378C377C376C375C374C337
:1000100073C372C371C370C36FC36EC3BFC86CC3F5
:100020006BC36AC369C3000092012403B604480687
:10003000D9076A09FB0A8C0C1C0EAB0F3A11C812C7
:100040005514E2156E17F918821A0B1C931D1A1F0E
:100050009F202322A6232825A8262628A3291F2B54
:10006000992C112E872FFB306E32DF334D35BA3687
:1000700024388C39F23A563CB83D173F7340CE4194
:1000800025437A44CD451C476948B449FB4A3F4C57
:10009000814DBF4EFB4F335168529B53C954F555A8
:1000A0001D5742586459825A9C5BB35CC75DD75E4A
:1000B000E35FEB60F061F162EE63E864DD65CF66FB
:1000C000BC67A6688B696D6A4A6B236CF86CC96D56
:1000D000966E5E6F2270E2709D7154720773B573F5
:1000E0005F740475A5754176D8766B77FA77847856
:1000F00009798979057A7C7AEE7A5C7BC57B297CE3
:10010000887CE37C397D897DD57D1D7E5F7E9C7EEC
:10011000D57E097F377F617F867FA67FC17FD87FAD
:10012000E97FF57FFD7FFF7F4C434464697265631F
:10013000744C564453353920323031332D31322D01
:1001400031322031303A30303A343000000C36361B
:100150000C001C0618060000000000601E0C1E1E8D
:10016000383F1C3F1E1E00001800061E3E0C3F3C80
:100170003F7F7F3C331E78670F63631C3F1E3F1E2B
:100180003F33336363337F1E031E08000C000700F8
:1001900038001C00070C18070E00000000000000CB
:1001A000080000000000003818076E001E36363EBA
:1001B0006336060C0C660C00000030330F33333C02
:1001C000030633333300000C000C33631E666636BF
:1001D000464666330C306606776736663366332DDF
:1001E0003333636333330606181C000C00060030FB
:1001F000003600060000060C000000000000000CA5
:100200000000000000000C180C3B001E367F03337A
:100210001C0306183C0C000000183B0C3030361F45
:10022000033033330C0C063F18307B3366036616FD
:100230001603330C3036067F6F63663366070C3364
:100240003363363319060C183600181E3E1E301E56
:10025000066E360E1E660C371F1E3B6E1B3E3E336F
:10026000336363333F0C180C00000C00361E186E0D
:10027000000618FF3F003F000C3F0C1C1C33301FD2
:10028000181E3E0C0C030030187B333E03661E1E06
:10029000033F0C301E066B7B633E333E1C0C333336
:1002A0006B1C1E0C0618186300003066333E330FBB
:1002B000336E0C18360C7F3333663336030C33330E
:1002C0006336331907003800000C007F300C3B0008
:1002D00006183C0C00000006370C06307F30330C4B
:1002E00033300000063F180C7B3F6603661616731A
:1002F000330C333646637363063B1E380C33337F4F
:10030000360C460630180000003E6603333F0633C5
:10031000660C181E0C6B33336633361E0C33336B8E
:100320001C330C0C180C00000000361F6633000C48
:100330000C660C0E000C03330C33333033330633AE
:10034000180C0E0C000C0003336666364606663346
:100350000C336666636336061E36330C331E7763D2
:100360000C630660180000003366333303063E66F4
:100370000C18360C6333333E3E06302C331E7F366A
:100380003E260C180C00000C00360C636E0018069C
:1003900000000C000C011E3F3F1E301E1E061E0EEC
:1003A0000C0C1800060C1E333F3C3F7F0F7C331EA5
:1003B0001E677F63631C0F38671E1E3F0C63631E3E
:1003C0007F1E401E0000006E3D1E6E1E0F30671E19
:1003D0001B671E63331E06300F1F186E0C3663300A
:1003E0003F38180700000000000000000000000077
:1003F00000060000000000000000000000000000F7
:1004000006000000000000000000000000000000E6
:1004100000000000000000000000000000000000DC
:1004200000000000FF000000000000001F00000EA0
:1004300000000000000F78000000000000001F0016
:1004400000000000F0002222F0002222600C640272
:10045000600C6402C006408CC006408CE004C404FA
:10046000E4006404E0084C04E2004406E002440CAA
:10047000E80046046006600660066006C0C0C0C0B2
:10048000C0000000000000C0C0C0C0C0C0C0C000AC
:10049000000F0F0F0F0F0F0000C0C0C0C0C0000042
:1004A0000F0F0F0F0F0F0F0F0000C0C0C000000F85
:1004B0000F0F0F0F0F0F0F0F0F0000C0C0000F0F17
:1004C0000F000F0F0F0F000F0F0F00C0000F0F0FC7
:1004D0000000000F0F0000000F0F0F00000F0F0FA4
:1004E0000F000F0F0F0F000F0F0F0F00000F0F0F58
:1004F0000F0F0F0F0F0F0F0F0F0F0F00000F0F0F2A
:100500000F0F0F0F0F0F0F0F0F0F0F00000F0F0028
:10051000000F0F0F0F0F0F00000F0F00000F0F0F36
:1005200000000F0F0F0F00000F0F0F00C0000F0F84
:100530000F0000000000000F0F0F00C0C000000FF0
:100540000F0F0F0F0F0F0F0F0F0000C0C0C00000E4
:100550000F0F0F0F0F0F0F0F0000C0C0C0C0C00063
:10056000000F0F0F0F0F0F0000C0C0C0C0C0C0C0F1
:10057000C0000000000000C0C0C0C0C0C0C0C0C0FB
:10058000C0000000000000C0C0C0C0C0C0C0C000AB
:10059000000F0F0F0F0F0F0000C0C0C0C0C0000041
:1005A0000F0F0F0F0F0F0F0F0000C0C0C000000F84
:1005B0000F0F0F0F0F0F0F0F0F0000C0C0000F0F16
:1005C0000F000F0F0F0F0F0F0F0F00C0000F0F0FB7
:1005D0000000000F0F000F0F0F0F0F00000F0F0F85
:1005E0000F000F0F0F0F00000F0F0F00000F0F0F66
:1005F0000F0F0F0F0F0F0F0F0F0F0F00000F0F0F29
:100600000F0F0F0F0F0F0F0F0F0F0F00000F0F0027
:10061000000F0F0F0F0F0F00000F0F00000F0F0F35
:1006200000000F0F0F0F00000F0F0F00C0000F0F83
:100630000F0000000000000F0F0F00C0C000000FEF
:100640000F0F00030003000F0F0000C0C0C0000028
:100650000F0F00030303000F0000C0C0C0C0C000A4
:10066000000F0F0000000F0000C0C0C0C0C0C0C01D
:10067000C0000000000000C0C0C0C0C020546865B9
:1006800020517569636B2042726F776E20466F78D8
:10069000204A756D706564204F76657220546865D8
:1006A000204C617A7920446F672100454647656692
:1006B0006700202B2D2E3031323334353637383920
:1006C000680011241FBECFE5D2E0DEBFCDBF10E031
:1006D000A0E6B0E0E6E3FAE102C005900D92AE3686
:1006E000B107D9F711E0AEE6B0E001C01D92A43920
:1006F000B107E1F743D59DC983CC97B18F71907E47
:10070000892B87B9089586B1807411F081E008952E
:10071000369A80E008953E983F983D98379A3598EC
:10072000349A339886B1876086B987B18F6187B96B
:10073000EADF86B18074E9F7089524B135B1C901C3
:10074000089586B18295869586958170089596B1B3
:100750008770987F892B86B90895833080F0873021
:1007600010F48F5F0CC092B1835021E030E002C0E2
:10077000220F331F8A95E2F7922B92B9089591B117
:1007800021E030E002C0220F331F8A95E2F7922B5E
:1007900091B90895823028F5663081F0673028F4E9
:1007A000662351F06330E9F405C0683049F06A30DF
:1007B000C1F408C092E007C091E005C093E003C017
:1007C00094E001C095E09770813029F083B7887F6D
:1007D000892B83BF04C08FB5887F892B8FBD80E0B4
:1007E000089581E008956430F0F4882319F0813091
:1007F000D1F40AC0862F8170B1F4627011F0A89A0A
:1008000001C0A89885B30DC0613019F486B5816028
:1008100002C086B58E7F86BD86B586B58D7F86BDC6
:1008200086B580E0089581E008950F931F93182FF7
:10083000062F642FD8DF882311F0806105C0812F37
:10084000602FA8DF811180621F910F91089584307D
:1008500010F081E00895623010F082E008954423A2
:1008600011F041E0F8948295807F860F8130A1F0ED
:10087000813030F08031E1F0813131F183E0089551
:10088000442319F089B7806102C089B78F7E89BF80
:1008900089B788B7806123C0442319F089B788607D
:1008A00002C089B7877F89BF89B788B7886017C0BA
:1008B000442319F089B7806402C089B78F7B89BF50
:1008C00089B788B780640BC0442319F089B7806268
:1008D00002C089B78F7D89BF89B788B7806288BF1A
:1008E000442311F480E00895789480E00895FC0199
:1008F00044838481861710F0658302C084818583D8
:1009000011821082138212820895FC01848186175D
:1009100010F0658302C08481858311821082138266
:1009200012820895FC01828193812581820F911D9D
:1009300093838283228133818081918182179307FF
:1009400010F080E008C0808191812481820F911D88
:100950009183808381E040815181228133814217DC
:10096000530721F41182108213821282089560E0ED
:1009700072E066D797FF02C080509E4F8038910585
:1009800044F4FC01EE0FFF1FEA5DFF4F2591349107
:1009900029C08F3F910509F05CF4E0E0F1E0E81B2D
:1009A000F90BEE0FFF1FEA5DFF4F259134911AC03E
:1009B00021E08038920744F4FC01EE0FFF1FEA5D4E
:1009C000F140859194910AC0E0E0F2E0E81BF90B58
:1009D000EE0FFF1FEA5DFF4F859194912227332789
:1009E000281B390BC901089560E072E029D79C01EA
:1009F00037FF02C020503E4F203831053CF4F9014A
:100A0000EE0FFF1FE95DFF4F849108952F3F3105E1
:100A100009F054F4E0E0F1E0E21BF30BEE0FFF1FEE
:100A2000E95DFF4F8491089581E02038380744F450
:100A3000F901EE0FFF1FE95DF14084918195089562
:100A4000E0E0F2E0E21BF30BEE0FFF1FE95DFF4F6A
:100A5000849181950895E82FF0E0EE0FFF1FEE0FCF
:100A6000FF1FE058FF4F862F90E063E070E0C2D692
:100A7000208131814281538104C056954795379535
:100A800027958A95D2F7822F877008950F931F9329
:100A9000E82FF0E0862F90E063E070E0ABD6A82F5F
:100AA000EE0FFF1FEE0FFF1FE058FF4F67E070E0F3
:100AB00080E090E00A2E04C0660F771F881F991F00
:100AC0000A94D2F760957095809590950081118178
:100AD000228133816023712382239323242F30E0EA
:100AE00040E050E004C0220F331F441F551FAA9559
:100AF000D2F7622B732B842B952B608371838283B7
:100B000093831F910F9108950F931F93E0E8F0E0F6
:100B1000119211921192119290E0E83CF907C1F7FD
:100B200012E1181B0BC000E0402F410F4770812FCE
:100B3000602FACDF0F5F0A30B9F71F5F123198F3F7
:100B40001F910F9108952F923F924F925F926F9253
:100B50007F928F929F92AF92BF92CF92DF92EF924D
:100B6000FF920F931F93DF93CF9300D0CDB7DEB7E3
:100B700080917E00853021F410927E0080E0C4DFF9
:100B800030906F00409171002090700050917F0074
:100B9000852F90E0837090708230910531F4232D81
:100BA0002F5F243009F0E0C0DEC0009719F4342F25
:100BB0003F5F05C08330910509F42394342F232D22
:100BC0005F5F50937F0080916E0090E0880F991FC7
:100BD000880F991F820F911D880F991F8C5B9B4F67
:100BE000122D1D5FA0E0B3E0FC01C590D49036C08B
:100BF000CF018E0D9F1D260102C0569447948A9501
:100C0000E2F740FE1AC01231F8F40A30F8F4802FEF
:100C100090E063E070E0EED52401350104C07694E5
:100C20006794579447948A95D2F7842D877029F05A
:100C3000231561F4341751F407C031960F5FE43087
:100C4000F105B1F680E004C081E001C080E0A1E0E0
:100C5000B1501150BF3FD9F08823C9F4AA2309F03D
:100C600085C0EB2EFF24EE0CFF1CEE0CFF1CE12FC9
:100C7000F0E0EE0FFF1FEE0FFF1FE058FF4F8080E8
:100C80009180A280B380032FE0E0F0E0B1CFAA23EF
:100C900031F420936F00309371002092700088230C
:100CA00009F464C080917000882309F045C08091E8
:100CB0007100833009F040C080916F00882309F0F3
:100CC0003BC080917E008F5F80937E0035C0409155
:100CD0006E00E42FF0E0EE0FFF1FEE0FFF1F80917C
:100CE0006F00E80FF11DEE0FFF1FEC5BFB4F8591CE
:100CF0009491B701620F731F02C0969587956A950C
:100D0000E2F780FF0CC080917000609171006E0D61
:100D10004F5F810F29833A83B9DE3A812981089494
:100D2000E11CF11C64E0E616F10489F61F5F2C5FFC
:100D30003F4F143021F406C020E030E010E0EE24F4
:100D4000FF24C5CF80916E008F5F80936E00873047
:100D500011F410926E0083E0809371001092700085
:100D600010926F0003C020E0342F2ACF0F900F9015
:100D7000CF91DF911F910F91FF90EF90DF90CF9077
:100D8000BF90AF909F908F907F906F905F904F90AB
:100D90003F902F9008958823A9F090917200815080
:100DA000923038F4873068F4E82FF0E0E05AFF4FD3
:100DB00006C0873030F4E82FF0E0E959FF4F80811A
:100DC00008958FE308951092730086E08093C80021
:100DD00083E68093C9000895809173008334F8F40A
:100DE000E82FF0E0EE0FFF1FE853FF4F9081987F50
:100DF000F1F08F5F80937300A82FB0E0FD01EE0F3C
:100E0000FF1FE853FF4FAA0FBB1FAA53BF4F8C9180
:100E10008770808311968C91119781830895833414
:100E200031F487E080934E0183E780934F0108956A
:100E300020917300562F586F15C0233419F4209356
:100E400073001BC0222321F43091C800387F09F0C1
:100E50002F5FE22FF0E0EE0FFF1FE853FF4F5083AC
:100E600041834F978F31910540F72093730000978E
:100E700011F480E00895233419F4AEDF81E0089581
:100E8000222321F43091C800387F19F02F5F20937E
:100E90007300E0917300F0E0EE0FFF1FE853FF4F87
:100EA000880F880F880F862B8083418380E0089508
:100EB000E0917300F0E0DF01AA0FBB1FA853BF4F02
:100EC0002C91009711F1422F4695469546954F314A
:100ED00098F43FE1341B432F50E04817590738F08E
:100EE000880F880F880F820F8C9380E00895286FF9
:100EF0002C93841B950B49F0EE0FFF1FE853FF4F17
:100F000060816770418194DF089580E00895E091E9
:100F10007300EE2311F48CDF0895F0E0EE0FFF1F55
:100F2000E853FF4F208130E027703070A62FB0E0EB
:100F30002A173B0729F42181241711F4B9DF0895FA
:100F400077DF08951F93182F842F662359F410928A
:100F50007D001092730096E09093C80093E6909302
:100F6000C9000BC090917300992339F090917D00D6
:100F7000191719F490E09CDF16C0612F70E06C71B6
:100F800070707595679575956795212F22952695B3
:100F900027702295207F912F9370292B90E0422F6C
:100FA00047DF10937D001F910895682F70E08370D4
:100FB00090E09C0121703070880F991F282B392BED
:100FC000220F331F220F331F2068AB014073507074
:100FD000440F551F242BCB018C70907095958795ED
:100FE00095958795822B089589B5826089BD88EC97
:100FF00090E00197F1F701C0000009B400FEFCCFBA
:1010000089B5846089BD089586E08BBD83E08CBD81
:101010008FEF81BFE9DF8FB5807F84608FBD8FB593
:1010200080638FBD80B7826080BF80B7816080BFE2
:1010300087B5816087BDB99ABA9ABB9ABD9A86B5C1
:101040008C7F86BD89E087BD83E680BF80E384BD59
:1010500084E08DBD089580E384BD84E08DBD089556
:101060002091740080917500882339F01DBC8FEAAF
:1010700090E00197F1F785E007C083E08DBD8FEA2E
:1010800090E00197F1F784E08DBD88E590E001974D
:10109000F1F7222309F42DC083E580BFE8ECF0E0EE
:1010A0004191542F57706191762F6F7072957F70B8
:1010B0005ABD64BD7DBD487FA9F0000000004850C6
:1010C00079F30000000000000000000000000000B4
:1010D0000000000000000000000000000000000010
:1010E0000000EDCF83E680BF14BC86E08DBD80E3B9
:1010F00084BD80917600909177000196909377005F
:101100008093760083329105C1F08432910520F4FA
:1011100083309105E1F408C086329105A9F023E0FF
:1011200086329207A1F415C01092740081E080937A
:10113000750080E484BD85E005C01092750080E3F1
:1011400084BD84E08DBD03C081E08093740080E0A5
:10115000089510927400109277001092760081E04A
:10116000089583EE83BB80E062E03DDB80E068E0D1
:1011700011DB80E060E041E06ADB089587E0C4DCD9
:10118000F0DF42DF80917800882339F489B78071DD
:10119000E9F760E041E05BDBF5CFFFCF1F920F92F4
:1011A0000FB60F9211249F92AF92BF92CF92DF920F
:1011B000EF92FF920F931F932F933F934F935F9361
:1011C0006F937F938F939F93AF93BF93EF93FF930F
:1011D000DF93CF9300D0CDB7DEB742DF882369F02D
:1011E000809179008F5F80937900823031F4109282
:1011F000790080E060E040E02ADB00917600109109
:1012000077000352104023E00030120708F0C5C1F8
:101210000115110571F480917B0090917C0040963E
:1012200090937C0080937B0080917A008F5F809305
:101230007A001092730086E08093C80083E6809362
:10124000C90083E090E067E043E761DE80917B00C6
:1012500090917C00800F911FC7DB70E8F72EF80E8D
:1012600080917B0090917C000196800F911FBCDBE8
:1012700080588F1520F4EF2CE81AFE1804C0F816D9
:1012800020F4E82EEF18EE2011F4EE24E394909071
:101290007A00E0E063E0D62EAF2CBB24CE2EC394C0
:1012A0006C2D690D01C060536033E8F7462F437021
:1012B00070E062FF03C03D2D341B432F9B012C7057
:1012C0003070359527953595279564FF03C08D2D92
:1012D000821B282FCB018073907034E09595879501
:1012E0003A95E1F766FF03C09D2D981B892F30E0EA
:1012F00023703070220F331F220F331F4370422B95
:1013000090E083709070B4E0880F991FBA95E1F770
:10131000482B8C2D90E065E070E06CD2242F30E0FB
:10132000F42FF17040738A159B0598F4B90163702E
:101330007070660F771F6F2B40642C70307035957E
:10134000279535952795422B85E090E0E0DDEC2D43
:10135000A5CF8E2F90E065E070E04CD2B9016370AC
:101360007070660F771F6F2B40642C70307035954E
:10137000279535952795422B9501281B390BC901D7
:10138000C6DD8E2D90E067E043E7C1DD680183E0B4
:10139000D694C7948A95E1F78C2D9C2D01C090536B
:1013A0009033E8F7692F637092FF03C023E0261B98
:1013B000622F982F01C090539033E8F7792F737004
:1013C00092FF03C023E0271B722F282F01C0205358
:1013D0002033E8F730E0A90140735070B4E0559530
:1013E0004795BA95E1F7542F26FF05C093E0941B6B
:1013F000592F01C080538033E8F790E09C012C7096
:1014000030703595279535952795422F84FF03C079
:1014100023E0241B422F21E031E02F1931097170A4
:101420006370660F672B952F92959073906443704D
:10143000492BC9018E1991096ADD83E090E067E0CC
:1014400043E765DD83E090E067E040E460DDC601EE
:101450006FE570E0E1D1805E8983C801877090708C
:10146000F1E0EF2EF12C02C0EE0CFF1C8A95E2F7A2
:10147000E9E9AE2EE2E0BE2EE981C5018E0F911D95
:10148000FC01E45DFE4F849190E08E219F21009746
:1014900029F081E090E067E043E404C081E090E05F
:1014A00067E040E434DD21EA3FEFA20EB31E31EAEB
:1014B000A3163FEFB30601F783E090E067E040E456
:1014C00026DD81E090E067E043E721DDB601645866
:1014D000794FCE01019641E050E010D283E090E0D8
:1014E00060E040E514DD8CE796E0FFD1C816D90630
:1014F00020F579E9C72E72E0D72EE981C6018E0F5B
:10150000911DFC01E45DFE4F849190E08E219F21AE
:10151000009721F081E090E067E003C081E090E077
:1015200060E040E5F4DC21EA3FEFC20ED31E31EA71
:10153000C3163FEFD30609F705C088E090E060E0EE
:1015400040E5E5DC83E090E060E040E5E0DC169516
:1015500007951695079520E0402F602F6370660F62
:10156000802F8170682B40734064C8018C7090702C
:101570009695879596958795482B81E090E02A83EC
:10158000C6DC2A812F5F0F5F1F4F203429F783E0CD
:1015900090E067E043E7BBDC1FDC0F900F90CF913A
:1015A000DF91FF91EF91BF91AF919F918F917F91CB
:1015B0006F915F914F913F912F911F910F91FF90EC
:1015C000EF90DF90CF90BF90AF909F900F900FBEA5
:1015D0000F901F901895ABE0B0E0E0EFFAE047C144
:1015E0006C014B017A01FC0117821682838181FD17
:1015F00008C02FEF3FEFFAC022E030E0E20EF31E0A
:1016000004C05E010894A11CB11CF6017380F401B2
:1016100073FC859173FE81914F01882309F4E3C027
:10162000853251F473FC059173FE01914F0105322F
:1016300011F010E01AC085E290E029C0002309F4FF
:10164000D2C082EB96E0602F70E044D1009739F46D
:10165000033211F4106103C00C3661F41068F40118
:1016600073FC059173FE01914F0117FFE7CF002333
:1016700009F4B9C08BEA96E0602F70E02BD1009797
:1016800049F024E030E0E20EF31E8FE390E0B60173
:1016900044D1BBCF033629F0033771F00335E1F4B1
:1016A0000AC087010E5F1F4FF70180819181B6014B
:1016B00034D17801AACF1160F7016080718003C036
:1016C00090E0B6012AD1F30110FD859110FF8191C0
:1016D0003F018823A9F790CF043611F0093629F588
:1016E00017FF08C0F701608171818281938124E036
:1016F00030E00AC0F70120813181B901882777FDE8
:101700008095982F22E030E0E20EF31E1F7E97FFB7
:1017100008C090958095709561957F4F8F4F9F4F32
:101720001064A5012AE030E033C00037A9F001378A
:1017300030F40835B1F00F3609F055C006C0053752
:1017400039F0083709F04FC008C028E030E00CC07D
:101750001F7E2AE030E008C01061146220E130E012
:1017600003C0146020E132E017FF08C0F701608178
:1017700071818281938144E050E007C0F70160816C
:10178000718180E090E042E050E0E40EF51EA5019A
:10179000F0D0082F0A19612E772416FF04C08DE2BD
:1017A00090E0B601BAD064FE13C0FE01E00FF11D57
:1017B0008081803369F080E390E0B601AED062FEB4
:1017C00007C0C30180729070885A9F4FB601A5D0A0
:1017D0000150F501E00FF11D808190E0B6019DD030
:1017E0000023B1F712CFF60126813781C9012B966C
:1017F000EEE059C05527002480FF02C0060E571F97
:10180000660F771F6115710521F0969587950097F2
:1018100099F7952F802D0895AA1BBB1B51E107C096
:10182000AA1FBB1FA617B70710F0A61BB70B881F70
:10183000991F5A95A9F780959095BC01CD010895FF
:1018400097FB092E07260AD077FD04D0E5DF06D0E6
:1018500000201AF4709561957F4F0895F6F79095E2
:1018600081959F4F08952F923F924F925F926F9272
:101870007F928F929F92AF92BF92CF92DF92EF9220
:10188000FF920F931F93CF93DF93CDB7DEB7CA1BA1
:10189000DB0B0FB6F894DEBF0FBECDBF09942A88CC
:1018A000398848885F846E847D848C849B84AA8474
:1018B000B984C884DF80EE80FD800C811B81AA8101
:1018C000B981CE0FD11D0FB6F894DEBF0FBECDBFCC
:1018D000ED010895FC010590061621F00020D9F7CE
:1018E000C00108953197CF010895FC0105900020B3
:1018F000E9F7809590958E0F9F1F0895FB01DC01FD
:101900004150504048F005900D920020C9F701C0A9
:101910001D9241505040E0F708950F931F93CF93CD
:10192000DF938C01EB018B8181FF1BC082FF0DC017
:101930002E813F818C819D812817390764F4E881CD
:10194000F9810193F983E88306C0E885F985802F42
:101950000995009731F48E819F8101969F838E8334
:1019600002C00FEF1FEFC801DF91CF911F910F91C0
:101970000895FA01AA27283061F1203191F1E89405
:101980006F936E7F6E5F7F4F8F4F9F4FAF4FB1E072
:1019900040D0B4E03ED0670F781F891F9A1FA11D69
:1019A000680F791F8A1F911DA11D6A0F711D811D6E
:1019B000911DA11D22D009F468943F91062E000CC0
:1019C0003019000C000C3019305D3193CEF6CF0188
:1019D0000895462F4770405D4193B3E00FD0C9F79B
:1019E000F6CF462F4F70405D4A3318F0495D31FD08
:1019F0004052419302D0A9F7EACFB4E0A69597955B
:101A0000879577956795BA95C9F700976105710530
:101A100008959B01AC010A2E06945795479537957A
:101A20002795BA95C9F7620F731F841F951FA01DD4
:061A30000895F894FFCFB9
:0E1A360003070F0C3C3033010410141105158A
:00000001FF
